{
  "contractName": "TaggedTopics",
  "abi": [
    {
      "anonymous": false,
      "inputs": [
        {
          "indexed": false,
          "internalType": "address",
          "name": "staker",
          "type": "address"
        },
        {
          "indexed": false,
          "internalType": "uint256",
          "name": "totalAmt",
          "type": "uint256"
        },
        {
          "indexed": false,
          "internalType": "uint256",
          "name": "stakeAmt",
          "type": "uint256"
        },
        {
          "indexed": false,
          "internalType": "uint256",
          "name": "topicId",
          "type": "uint256"
        },
        {
          "indexed": false,
          "internalType": "uint256",
          "name": "tagId",
          "type": "uint256"
        }
      ],
      "name": "StakeAdded",
      "type": "event"
    },
    {
      "anonymous": false,
      "inputs": [
        {
          "indexed": false,
          "internalType": "uint256",
          "name": "amt",
          "type": "uint256"
        },
        {
          "indexed": false,
          "internalType": "uint256",
          "name": "stakeIdx",
          "type": "uint256"
        }
      ],
      "name": "StakeUpdated",
      "type": "event"
    },
    {
      "anonymous": false,
      "inputs": [
        {
          "indexed": false,
          "internalType": "uint256",
          "name": "id",
          "type": "uint256"
        },
        {
          "indexed": false,
          "internalType": "string",
          "name": "tag",
          "type": "string"
        },
        {
          "indexed": false,
          "internalType": "address",
          "name": "addedBy",
          "type": "address"
        }
      ],
      "name": "TagAdded",
      "type": "event"
    },
    {
      "anonymous": false,
      "inputs": [
        {
          "indexed": false,
          "internalType": "uint256",
          "name": "id",
          "type": "uint256"
        },
        {
          "indexed": false,
          "internalType": "uint256[]",
          "name": "tagIds",
          "type": "uint256[]"
        },
        {
          "indexed": true,
          "internalType": "address",
          "name": "owner",
          "type": "address"
        },
        {
          "indexed": false,
          "internalType": "string",
          "name": "content",
          "type": "string"
        }
      ],
      "name": "TopicCreated",
      "type": "event"
    },
    {
      "anonymous": false,
      "inputs": [
        {
          "indexed": false,
          "internalType": "uint256",
          "name": "topicId",
          "type": "uint256"
        },
        {
          "indexed": false,
          "internalType": "uint256",
          "name": "tagId",
          "type": "uint256"
        },
        {
          "indexed": false,
          "internalType": "bool",
          "name": "added",
          "type": "bool"
        }
      ],
      "name": "TopicTagUpdated",
      "type": "event"
    },
    {
      "anonymous": false,
      "inputs": [
        {
          "indexed": false,
          "internalType": "uint256",
          "name": "id",
          "type": "uint256"
        },
        {
          "indexed": false,
          "internalType": "uint256[]",
          "name": "tagIds",
          "type": "uint256[]"
        }
      ],
      "name": "TopicTagsUpdated",
      "type": "event"
    },
    {
      "anonymous": false,
      "inputs": [
        {
          "indexed": false,
          "internalType": "uint256",
          "name": "id",
          "type": "uint256"
        },
        {
          "indexed": false,
          "internalType": "uint256[]",
          "name": "tagIds",
          "type": "uint256[]"
        },
        {
          "indexed": false,
          "internalType": "string",
          "name": "content",
          "type": "string"
        }
      ],
      "name": "TopicUpdated",
      "type": "event"
    },
    {
      "inputs": [
        {
          "internalType": "string",
          "name": "_tag",
          "type": "string"
        }
      ],
      "name": "addMasterTag",
      "outputs": [],
      "stateMutability": "nonpayable",
      "type": "function"
    },
    {
      "inputs": [
        {
          "internalType": "string",
          "name": "_tag",
          "type": "string"
        }
      ],
      "name": "doesTagExist",
      "outputs": [
        {
          "internalType": "bool",
          "name": "",
          "type": "bool"
        }
      ],
      "stateMutability": "view",
      "type": "function"
    },
    {
      "inputs": [
        {
          "internalType": "uint256",
          "name": "_id",
          "type": "uint256"
        }
      ],
      "name": "getTag",
      "outputs": [
        {
          "internalType": "string",
          "name": "",
          "type": "string"
        }
      ],
      "stateMutability": "view",
      "type": "function"
    },
    {
      "inputs": [],
      "name": "getTagCount",
      "outputs": [
        {
          "internalType": "uint256",
          "name": "",
          "type": "uint256"
        }
      ],
      "stateMutability": "view",
      "type": "function"
    },
    {
      "inputs": [
        {
          "internalType": "uint256",
          "name": "_id",
          "type": "uint256"
        }
      ],
      "name": "getTopic",
      "outputs": [
        {
          "internalType": "string",
          "name": "content",
          "type": "string"
        },
        {
          "internalType": "address",
          "name": "owner",
          "type": "address"
        },
        {
          "internalType": "uint256[]",
          "name": "tagIds",
          "type": "uint256[]"
        }
      ],
      "stateMutability": "view",
      "type": "function"
    },
    {
      "inputs": [],
      "name": "getTopicCount",
      "outputs": [
        {
          "internalType": "uint256",
          "name": "",
          "type": "uint256"
        }
      ],
      "stateMutability": "view",
      "type": "function"
    },
    {
      "inputs": [
        {
          "internalType": "uint256",
          "name": "_id",
          "type": "uint256"
        }
      ],
      "name": "getTopicTagIds",
      "outputs": [
        {
          "internalType": "uint256[]",
          "name": "",
          "type": "uint256[]"
        }
      ],
      "stateMutability": "view",
      "type": "function"
    },
    {
      "inputs": [
        {
          "internalType": "address",
          "name": "_user",
          "type": "address"
        }
      ],
      "name": "getUserTopicCount",
      "outputs": [
        {
          "internalType": "uint256",
          "name": "",
          "type": "uint256"
        }
      ],
      "stateMutability": "view",
      "type": "function"
    },
    {
      "inputs": [
        {
          "internalType": "address",
          "name": "_user",
          "type": "address"
        }
      ],
      "name": "getUserTopicIds",
      "outputs": [
        {
          "internalType": "uint256[]",
          "name": "",
          "type": "uint256[]"
        }
      ],
      "stateMutability": "view",
      "type": "function"
    },
    {
      "inputs": [
        {
          "internalType": "uint256",
          "name": "_id",
          "type": "uint256"
        },
        {
          "internalType": "uint256[]",
          "name": "_tagIds",
          "type": "uint256[]"
        },
        {
          "internalType": "string",
          "name": "_fileName",
          "type": "string"
        }
      ],
      "name": "updateTopic",
      "outputs": [],
      "stateMutability": "nonpayable",
      "type": "function"
    },
    {
      "inputs": [
        {
          "internalType": "uint256[]",
          "name": "_tagIds",
          "type": "uint256[]"
        },
        {
          "internalType": "uint256",
          "name": "_topicId",
          "type": "uint256"
        }
      ],
      "name": "updateTopicTags",
      "outputs": [],
      "stateMutability": "nonpayable",
      "type": "function"
    },
    {
      "inputs": [
        {
          "internalType": "uint256[]",
          "name": "_addIds",
          "type": "uint256[]"
        },
        {
          "internalType": "uint256[]",
          "name": "_removeIds",
          "type": "uint256[]"
        },
        {
          "internalType": "uint256[]",
          "name": "_topicTagIdxs",
          "type": "uint256[]"
        },
        {
          "internalType": "uint256[]",
          "name": "_taggedUserTopicIdxs",
          "type": "uint256[]"
        },
        {
          "internalType": "uint256",
          "name": "_topicId",
          "type": "uint256"
        }
      ],
      "name": "updateTopicTags",
      "outputs": [],
      "stateMutability": "nonpayable",
      "type": "function"
    },
    {
      "inputs": [
        {
          "internalType": "uint256",
          "name": "_tagId",
          "type": "uint256"
        }
      ],
      "name": "getTagAddresses",
      "outputs": [
        {
          "internalType": "address[]",
          "name": "",
          "type": "address[]"
        }
      ],
      "stateMutability": "view",
      "type": "function"
    },
    {
      "inputs": [
        {
          "internalType": "uint256",
          "name": "_tagId",
          "type": "uint256"
        },
        {
          "internalType": "address",
          "name": "_address",
          "type": "address"
        }
      ],
      "name": "getTagAddressTopicIds",
      "outputs": [
        {
          "internalType": "uint256[]",
          "name": "",
          "type": "uint256[]"
        }
      ],
      "stateMutability": "view",
      "type": "function"
    },
    {
      "inputs": [
        {
          "internalType": "uint256",
          "name": "_topicId",
          "type": "uint256"
        },
        {
          "internalType": "uint256",
          "name": "_tagId",
          "type": "uint256"
        }
      ],
      "name": "getTopicTagStakeTotal",
      "outputs": [
        {
          "internalType": "uint256",
          "name": "",
          "type": "uint256"
        }
      ],
      "stateMutability": "view",
      "type": "function"
    },
    {
      "inputs": [
        {
          "internalType": "uint256",
          "name": "_topicId",
          "type": "uint256"
        },
        {
          "internalType": "uint256",
          "name": "_tagId",
          "type": "uint256"
        }
      ],
      "name": "getTopicTagStakes",
      "outputs": [
        {
          "internalType": "uint256[]",
          "name": "idxs",
          "type": "uint256[]"
        },
        {
          "internalType": "uint256[]",
          "name": "amts",
          "type": "uint256[]"
        },
        {
          "internalType": "address[]",
          "name": "stakers",
          "type": "address[]"
        }
      ],
      "stateMutability": "view",
      "type": "function"
    },
    {
      "inputs": [
        {
          "internalType": "address",
          "name": "_address",
          "type": "address"
        }
      ],
      "name": "getUserStakeIds",
      "outputs": [
        {
          "internalType": "uint256[]",
          "name": "",
          "type": "uint256[]"
        }
      ],
      "stateMutability": "view",
      "type": "function"
    }
  ],
  "bytecode": "0x608060405234801561001057600080fd5b506126d3806100206000396000f3fe608060405234801561001057600080fd5b506004361061010b5760003560e01c8063691bbb69116100a2578063a828d5d111610071578063a828d5d114610b3b578063cc89698c14610b93578063ce606ea514610bb1578063f629373814610c82578063f730250614610d055761010b565b8063691bbb69146108d15780637165889614610978578063762a8bd514610a84578063986f191c14610b1d5761010b565b8063313da78f116100de578063313da78f1461045157806340f1725d146104ea57806346d93860146107685780636107d6fc146107b45761010b565b80630317b681146101105780630a2b7cf01461026957806317f2feb6146102ec57806328a3f5e51461038f575b600080fd5b6102676004803603606081101561012657600080fd5b81019080803590602001909291908035906020019064010000000081111561014d57600080fd5b82018360208201111561015f57600080fd5b8035906020019184602083028401116401000000008311171561018157600080fd5b919080806020026020016040519081016040528093929190818152602001838360200280828437600081840152601f19601f820116905080830192505050505050509192919290803590602001906401000000008111156101e157600080fd5b8201836020820111156101f357600080fd5b8035906020019184600183028401116401000000008311171561021557600080fd5b91908080601f016020809104026020016040519081016040528093929190818152602001838380828437600081840152601f19601f820116905080830192505050505050509192919290505050610dc0565b005b6102956004803603602081101561027f57600080fd5b8101908080359060200190929190505050610f28565b6040518080602001828103825283818151815260200191508051906020019060200280838360005b838110156102d85780820151818401526020810190506102bd565b505050509050019250505060405180910390f35b6103386004803603604081101561030257600080fd5b8101908080359060200190929190803573ffffffffffffffffffffffffffffffffffffffff169060200190929190505050610f9e565b6040518080602001828103825283818151815260200191508051906020019060200280838360005b8381101561037b578082015181840152602081019050610360565b505050509050019250505060405180910390f35b61044f600480360360408110156103a557600080fd5b81019080803590602001906401000000008111156103c257600080fd5b8201836020820111156103d457600080fd5b803590602001918460208302840111640100000000831117156103f657600080fd5b919080806020026020016040519081016040528093929190818152602001838360200280828437600081840152601f19601f82011690508083019250505050505050919291929080359060200190929190505050611047565b005b6104936004803603602081101561046757600080fd5b81019080803573ffffffffffffffffffffffffffffffffffffffff169060200190929190505050611108565b6040518080602001828103825283818151815260200191508051906020019060200280838360005b838110156104d65780820151818401526020810190506104bb565b505050509050019250505060405180910390f35b610766600480360360a081101561050057600080fd5b810190808035906020019064010000000081111561051d57600080fd5b82018360208201111561052f57600080fd5b8035906020019184602083028401116401000000008311171561055157600080fd5b919080806020026020016040519081016040528093929190818152602001838360200280828437600081840152601f19601f820116905080830192505050505050509192919290803590602001906401000000008111156105b157600080fd5b8201836020820111156105c357600080fd5b803590602001918460208302840111640100000000831117156105e557600080fd5b919080806020026020016040519081016040528093929190818152602001838360200280828437600081840152601f19601f8201169050808301925050505050505091929192908035906020019064010000000081111561064557600080fd5b82018360208201111561065757600080fd5b8035906020019184602083028401116401000000008311171561067957600080fd5b919080806020026020016040519081016040528093929190818152602001838360200280828437600081840152601f19601f820116905080830192505050505050509192919290803590602001906401000000008111156106d957600080fd5b8201836020820111156106eb57600080fd5b8035906020019184602083028401116401000000008311171561070d57600080fd5b919080806020026020016040519081016040528093929190818152602001838360200280828437600081840152601f19601f8201169050808301925050505050505091929192908035906020019092919050505061119f565b005b61079e6004803603604081101561077e57600080fd5b81019080803590602001909291908035906020019092919050505061123c565b6040518082815260200191505060405180910390f35b6107ea600480360360408110156107ca57600080fd5b81019080803590602001909291908035906020019092919050505061126e565b60405180806020018060200180602001848103845287818151815260200191508051906020019060200280838360005b8381101561083557808201518184015260208101905061081a565b50505050905001848103835286818151815260200191508051906020019060200280838360005b8381101561087757808201518184015260208101905061085c565b50505050905001848103825285818151815260200191508051906020019060200280838360005b838110156108b957808201518184015260208101905061089e565b50505050905001965050505050505060405180910390f35b6108fd600480360360208110156108e757600080fd5b81019080803590602001909291905050506114d7565b6040518080602001828103825283818151815260200191508051906020019080838360005b8381101561093d578082015181840152602081019050610922565b50505050905090810190601f16801561096a5780820380516001836020036101000a031916815260200191505b509250505060405180910390f35b6109a46004803603602081101561098e57600080fd5b8101908080359060200190929190505050611590565b60405180806020018473ffffffffffffffffffffffffffffffffffffffff16815260200180602001838103835286818151815260200191508051906020019080838360005b83811015610a045780820151818401526020810190506109e9565b50505050905090810190601f168015610a315780820380516001836020036101000a031916815260200191505b50838103825284818151815260200191508051906020019060200280838360005b83811015610a6d578082015181840152602081019050610a52565b505050509050019550505050505060405180910390f35b610ac660048036036020811015610a9a57600080fd5b81019080803573ffffffffffffffffffffffffffffffffffffffff169060200190929190505050611706565b6040518080602001828103825283818151815260200191508051906020019060200280838360005b83811015610b09578082015181840152602081019050610aee565b505050509050019250505060405180910390f35b610b2561179d565b6040518082815260200191505060405180910390f35b610b7d60048036036020811015610b5157600080fd5b81019080803573ffffffffffffffffffffffffffffffffffffffff1690602001909291905050506117aa565b6040518082815260200191505060405180910390f35b610b9b6117f6565b6040518082815260200191505060405180910390f35b610c6a60048036036020811015610bc757600080fd5b8101908080359060200190640100000000811115610be457600080fd5b820183602082011115610bf657600080fd5b80359060200191846001830284011164010000000083111715610c1857600080fd5b91908080601f016020809104026020016040519081016040528093929190818152602001838380828437600081840152601f19601f820116905080830192505050505050509192919290505050611803565b60405180821515815260200191505060405180910390f35b610cae60048036036020811015610c9857600080fd5b8101908080359060200190929190505050611882565b6040518080602001828103825283818151815260200191508051906020019060200280838360005b83811015610cf1578082015181840152602081019050610cd6565b505050509050019250505060405180910390f35b610dbe60048036036020811015610d1b57600080fd5b8101908080359060200190640100000000811115610d3857600080fd5b820183602082011115610d4a57600080fd5b80359060200191846001830284011164010000000083111715610d6c57600080fd5b91908080601f016020809104026020016040519081016040528093929190818152602001838380828437600081840152601f19601f820116905080830192505050505050509192919290505050611923565b005b600060038481548110610dcf57fe5b9060005260206000209060040201905081816003019080519060200190610df79291906125b3565b5082816001019080519060200190610e10929190612633565b507fd8e275d29f373157a51081b082dfddd9995ce4bd36c1fe1b892f8d8df9c59985816000015482600101836003016040518084815260200180602001806020018381038352858181548152602001915080548015610e8e57602002820191906000526020600020905b815481526020019060010190808311610e7a575b5050838103825284818154600181600116156101000203166002900481526020019150805460018160011615610100020316600290048015610f115780601f10610ee657610100808354040283529160200191610f11565b820191906000526020600020905b815481529060010190602001808311610ef457829003601f168201915b50509550505050505060405180910390a150505050565b606060038281548110610f3757fe5b9060005260206000209060040201600101805480602002602001604051908101604052809291908181526020018280548015610f9257602002820191906000526020600020905b815481526020019060010190808311610f7e575b50505050509050919050565b60606009600084815260200190815260200160002060008373ffffffffffffffffffffffffffffffffffffffff1673ffffffffffffffffffffffffffffffffffffffff16815260200190815260200160002080548060200260200160405190810160405280929190818152602001828054801561103a57602002820191906000526020600020905b815481526020019060010190808311611026575b5050505050905092915050565b60006003828154811061105657fe5b906000526020600020906004020190508281600101908051906020019061107e929190612633565b507ff9e07a0f3220589d9d05b68b9de495d5fe3086c9680812cf5fe277b15f00b7e9816000015482600101604051808381526020018060200182810382528381815481526020019150805480156110f457602002820191906000526020600020905b8154815260200190600101908083116110e0575b5050935050505060405180910390a1505050565b6060600860008373ffffffffffffffffffffffffffffffffffffffff1673ffffffffffffffffffffffffffffffffffffffff16815260200190815260200160002080548060200260200160405190810160405280929190818152602001828054801561119357602002820191906000526020600020905b81548152602001906001019080831161117f575b50505050509050919050565b60005b84518110156111fd576111f0828683815181106111bb57fe5b60200260200101518684815181106111cf57fe5b60200260200101518685815181106111e357fe5b6020026020010151611ba1565b80806001019150506111a2565b5060005b8551811015611234576112278287838151811061121a57fe5b602002602001015161219a565b8080600101915050611201565b505050505050565b600060066000848152602001908152602001600020600083815260200190815260200160002060000154905092915050565b606080606060006006600087815260200190815260200160002060008681526020019081526020016000206001018054905090508067ffffffffffffffff811180156112b957600080fd5b506040519080825280602002602001820160405280156112e85781602001602082028036833780820191505090505b5091508067ffffffffffffffff8111801561130257600080fd5b506040519080825280602002602001820160405280156113315781602001602082028036833780820191505090505b5092508067ffffffffffffffff8111801561134b57600080fd5b5060405190808252806020026020018201604052801561137a5781602001602082028036833780820191505090505b50935060005b818110156114ce5760006005600660008a8152602001908152602001600020600089815260200190815260200160002060010183815481106113be57fe5b9060005260206000200154815481106113d357fe5b906000526020600020906004020190508060000160009054906101000a900473ffffffffffffffffffffffffffffffffffffffff1684838151811061141457fe5b602002602001019073ffffffffffffffffffffffffffffffffffffffff16908173ffffffffffffffffffffffffffffffffffffffff1681525050806001015485838151811061145f57fe5b602002602001018181525050600660008981526020019081526020016000206000888152602001908152602001600020600101828154811061149d57fe5b90600052602060002001548683815181106114b457fe5b602002602001018181525050508080600101915050611380565b50509250925092565b6060600182815481106114e657fe5b906000526020600020018054600181600116156101000203166002900480601f0160208091040260200160405190810160405280929190818152602001828054600181600116156101000203166002900480156115845780601f1061155957610100808354040283529160200191611584565b820191906000526020600020905b81548152906001019060200180831161156757829003601f168201915b50505050509050919050565b606060006060600384815481106115a357fe5b90600052602060002090600402016003018054600181600116156101000203166002900480601f0160208091040260200160405190810160405280929190818152602001828054600181600116156101000203166002900480156116485780601f1061161d57610100808354040283529160200191611648565b820191906000526020600020905b81548152906001019060200180831161162b57829003601f168201915b505050505092506003848154811061165c57fe5b906000526020600020906004020160020160009054906101000a900473ffffffffffffffffffffffffffffffffffffffff1691506003848154811061169d57fe5b90600052602060002090600402016001018054806020026020016040519081016040528092919081815260200182805480156116f857602002820191906000526020600020905b8154815260200190600101908083116116e4575b505050505090509193909250565b6060600460008373ffffffffffffffffffffffffffffffffffffffff1673ffffffffffffffffffffffffffffffffffffffff16815260200190815260200160002080548060200260200160405190810160405280929190818152602001828054801561179157602002820191906000526020600020905b81548152602001906001019080831161177d575b50505050509050919050565b6000600180549050905090565b6000600460008373ffffffffffffffffffffffffffffffffffffffff1673ffffffffffffffffffffffffffffffffffffffff168152602001908152602001600020805490509050919050565b6000600380549050905090565b600080826040518082805190602001908083835b6020831061183a5780518252602082019150602081019050602083039250611817565b6001836020036101000a038019825116818451168082178552505050505050905001915050908152602001604051809103902060009054906101000a900460ff169050919050565b6060600b600083815260200190815260200160002080548060200260200160405190810160405280929190818152602001828054801561191757602002820191906000526020600020905b8160009054906101000a900473ffffffffffffffffffffffffffffffffffffffff1673ffffffffffffffffffffffffffffffffffffffff16815260200190600101908083116118cd575b50505050509050919050565b600015156000826040518082805190602001908083835b6020831061195d578051825260208201915060208101905060208303925061193a565b6001836020036101000a038019825116818451168082178552505050505050905001915050908152602001604051809103902060009054906101000a900460ff16151514611a13576040517f08c379a00000000000000000000000000000000000000000000000000000000081526004018080602001828103825260128152602001807f54616720616c726561647920657869737473000000000000000000000000000081525060200191505060405180910390fd5b60006001805490509050600182908060018154018082558091505060019003906000526020600020016000909190919091509080519060200190611a589291906125b3565b5060016000836040518082805190602001908083835b60208310611a915780518252602082019150602081019050602083039250611a6e565b6001836020036101000a038019825116818451168082178552505050505050905001915050908152602001604051809103902060006101000a81548160ff0219169083151502179055507f8fc004b14aee5c0ca4de94bd14237f561d1b8fcd297828e4cd108d4a558387ef81833360405180848152602001806020018373ffffffffffffffffffffffffffffffffffffffff168152602001828103825284818151815260200191508051906020019080838360005b83811015611b61578082015181840152602081019050611b46565b50505050905090810190601f168015611b8e5780820380516001836020036101000a031916815260200191505b5094505050505060405180910390a15050565b6001151560076000868152602001908152602001600020600085815260200190815260200160002060009054906101000a900460ff16151514611c4c576040517f08c379a00000000000000000000000000000000000000000000000000000000081526004018080602001828103825260138152602001807f546f706963206973206e6f74207461676765640000000000000000000000000081525060200191505060405180910390fd5b3373ffffffffffffffffffffffffffffffffffffffff1660038581548110611c7057fe5b906000526020600020906004020160020160009054906101000a900473ffffffffffffffffffffffffffffffffffffffff1673ffffffffffffffffffffffffffffffffffffffff1614611d2b576040517f08c379a00000000000000000000000000000000000000000000000000000000081526004018080602001828103825260208152602001807f4f6e6c7920746f706963206f776e65722063616e20757064617465207461677381525060200191505060405180910390fd5b8260038581548110611d3957fe5b90600052602060002090600402016001018381548110611d5557fe5b906000526020600020015414611dd3576040517f08c379a00000000000000000000000000000000000000000000000000000000081526004018080602001828103825260198152602001807f54616720696420616e6420696e646578206d69736d617463680000000000000081525060200191505060405180910390fd5b836009600085815260200190815260200160002060003373ffffffffffffffffffffffffffffffffffffffff1673ffffffffffffffffffffffffffffffffffffffff1681526020019081526020016000208281548110611e2f57fe5b906000526020600020015414611ead576040517f08c379a000000000000000000000000000000000000000000000000000000000815260040180806020018281038252601b8152602001807f546f70696320696420616e6420696e646578206d69736d61746368000000000081525060200191505060405180910390fd5b600060076000868152602001908152602001600020600085815260200190815260200160002060006101000a81548160ff02191690831515021790555060038481548110611ef757fe5b9060005260206000209060040201600101600160038681548110611f1757fe5b9060005260206000209060040201600101805490500381548110611f3757fe5b906000526020600020015460038581548110611f4f57fe5b90600052602060002090600402016001018381548110611f6b57fe5b906000526020600020018190555060038481548110611f8657fe5b9060005260206000209060040201600101805480611fa057fe5b600190038181906000526020600020016000905590556009600084815260200190815260200160002060003373ffffffffffffffffffffffffffffffffffffffff1673ffffffffffffffffffffffffffffffffffffffff16815260200190815260200160002060016009600086815260200190815260200160002060003373ffffffffffffffffffffffffffffffffffffffff1673ffffffffffffffffffffffffffffffffffffffff16815260200190815260200160002080549050038154811061206757fe5b90600052602060002001546009600085815260200190815260200160002060003373ffffffffffffffffffffffffffffffffffffffff1673ffffffffffffffffffffffffffffffffffffffff16815260200190815260200160002082815481106120cd57fe5b90600052602060002001819055506009600084815260200190815260200160002060003373ffffffffffffffffffffffffffffffffffffffff1673ffffffffffffffffffffffffffffffffffffffff16815260200190815260200160002080548061213457fe5b600190038181906000526020600020016000905590557f027dd7071e2a04e9c5eaabd02ace2b8c700a4eb05b5c4bd4e27bd7b11fbd8c1b84846000604051808481526020018381526020018215158152602001935050505060405180910390a150505050565b6000151560076000848152602001908152602001600020600083815260200190815260200160002060009054906101000a900460ff16151514612245576040517f08c379a00000000000000000000000000000000000000000000000000000000081526004018080602001828103825260178152602001807f546f70696320697320616c72656164792074616767656400000000000000000081525060200191505060405180910390fd5b3373ffffffffffffffffffffffffffffffffffffffff166003838154811061226957fe5b906000526020600020906004020160020160009054906101000a900473ffffffffffffffffffffffffffffffffffffffff1673ffffffffffffffffffffffffffffffffffffffff1614612324576040517f08c379a00000000000000000000000000000000000000000000000000000000081526004018080602001828103825260208152602001807f4f6e6c7920746f706963206f776e65722063616e20757064617465207461677381525060200191505060405180910390fd5b60001515600a600083815260200190815260200160002060003373ffffffffffffffffffffffffffffffffffffffff1673ffffffffffffffffffffffffffffffffffffffff16815260200190815260200160002060009054906101000a900460ff161515141561246c576001600a600083815260200190815260200160002060003373ffffffffffffffffffffffffffffffffffffffff1673ffffffffffffffffffffffffffffffffffffffff16815260200190815260200160002060006101000a81548160ff021916908315150217905550600b6000828152602001908152602001600020339080600181540180825580915050600190039060005260206000200160009091909190916101000a81548173ffffffffffffffffffffffffffffffffffffffff021916908373ffffffffffffffffffffffffffffffffffffffff1602179055505b600160076000848152602001908152602001600020600083815260200190815260200160002060006101000a81548160ff0219169083151502179055506009600082815260200190815260200160002060003373ffffffffffffffffffffffffffffffffffffffff1673ffffffffffffffffffffffffffffffffffffffff1681526020019081526020016000208290806001815401808255809150506001900390600052602060002001600090919091909150556003828154811061252d57fe5b90600052602060002090600402016001018190806001815401808255809150506001900390600052602060002001600090919091909150557f027dd7071e2a04e9c5eaabd02ace2b8c700a4eb05b5c4bd4e27bd7b11fbd8c1b82826001604051808481526020018381526020018215158152602001935050505060405180910390a15050565b828054600181600116156101000203166002900490600052602060002090601f016020900481019282601f106125f457805160ff1916838001178555612622565b82800160010185558215612622579182015b82811115612621578251825591602001919060010190612606565b5b50905061262f9190612680565b5090565b82805482825590600052602060002090810192821561266f579160200282015b8281111561266e578251825591602001919060010190612653565b5b50905061267c9190612680565b5090565b5b80821115612699576000816000905550600101612681565b509056fea26469706673582212201e9ff475e8e0c742a93aa889284972e023d2048a9dd4f8fafe19018d0268153464736f6c634300060c0033",
  "source": "pragma solidity ^0.6.0;\n\nimport './Topics.sol';\n\n/** @title TopicTags. */\ncontract TaggedTopics is Topics {\n\n  struct Stake {\n    address staker;\n    uint amt;\n    uint topicId;\n    uint tagId;\n  }\n\n  struct TagStake {\n    uint totalStaked;\n    uint[] stakeIdxs;\n  }\n\n  Stake[] stakes;\n  //topicId -> tagId -> stakeIdx\n  mapping (uint => mapping (uint => TagStake)) stakesByTopic;\n  //topicId -> tagId -> bool\n  mapping (uint => mapping (uint => bool)) topicIsTagged;\n\n  mapping (address => uint[]) stakesByUser;\n\n  //tagId -> address => topicId\n  mapping (uint => mapping(address => uint[])) userTopicsByTag;\n  mapping (uint => mapping(address => bool)) userHasTagged;\n  mapping (uint => address[]) usersByTag;\n\n  event TopicTagUpdated(uint topicId, uint tagId, bool added);\n  event StakeAdded(address staker, uint totalAmt, uint stakeAmt, uint topicId, uint tagId);\n  event StakeUpdated(uint amt, uint stakeIdx);\n\n  function updateTopicTags(uint[] memory _addIds, uint[] memory _removeIds, uint[] memory _topicTagIdxs, uint[] memory _taggedUserTopicIdxs, uint _topicId) public {\n  for (uint i=0; i < _removeIds.length;i++) {\n    removeTagTopic(_topicId, _removeIds[i], _topicTagIdxs[i], _taggedUserTopicIdxs[i]);\n  }\n\n  for (uint t = 0; t<_addIds.length;t++) {\n    addTagTopic(_topicId, _addIds[t]);\n  }\n  }\n\n\n  function addTagTopic(uint _topicId, uint _tagId) internal {\n  require(topicIsTagged[_topicId][_tagId] == false, 'Topic is already tagged');\n  require(topics[_topicId].owner == msg.sender, 'Only topic owner can update tags');\n\n  if (userHasTagged[_tagId][msg.sender] == false) {\n    userHasTagged[_tagId][msg.sender] = true;\n    usersByTag[_tagId].push(msg.sender);\n  }\n\n  topicIsTagged[_topicId][_tagId] = true;\n  userTopicsByTag[_tagId][msg.sender].push(_topicId);\n  topics[_topicId].tagIds.push(_tagId);\n\n  emit TopicTagUpdated(_topicId, _tagId, true);\n  }\n\n\n  function removeTagTopic(uint _topicId, uint _tagId, uint _topicTagsIdx, uint _taggedUserTopicsIdx) internal {\n  require(topicIsTagged[_topicId][_tagId] == true, 'Topic is not tagged');\n  require(topics[_topicId].owner == msg.sender, 'Only topic owner can update tags');\n  require(topics[_topicId].tagIds[_topicTagsIdx] ==_tagId, 'Tag id and index mismatch');\n  require(userTopicsByTag[_tagId][msg.sender][_taggedUserTopicsIdx] ==_topicId, 'Topic id and index mismatch');\n\n  topicIsTagged[_topicId][_tagId] = false;\n\n  topics[_topicId].tagIds[_topicTagsIdx] = topics[_topicId].tagIds[topics[_topicId].tagIds.length-1];\n\n  topics[_topicId].tagIds.pop();\n\n  userTopicsByTag[_tagId][msg.sender][_taggedUserTopicsIdx] = userTopicsByTag[_tagId][msg.sender][userTopicsByTag[_tagId][msg.sender].length-1];\n\n  userTopicsByTag[_tagId][msg.sender].pop();\n\n  emit TopicTagUpdated(_topicId, _tagId, false);\n  }\n\n  function getTagAddresses(uint _tagId) public view returns (address[] memory) {\n  return usersByTag[_tagId];\n  }\n\n  function getTagAddressTopicIds(uint _tagId, address _address) public view returns (uint[] memory) {\n  return userTopicsByTag[_tagId][_address];\n  }\n\n  function getTopicTagStakeTotal(uint _topicId, uint _tagId) public view returns (uint) {\n  return stakesByTopic[_topicId][_tagId].totalStaked;\n  }\n\n  function getTopicTagStakes(uint _topicId, uint _tagId) public view returns (uint[] memory idxs, uint[] memory amts, address[] memory stakers) {\n  uint stakesLength = stakesByTopic[_topicId][_tagId].stakeIdxs.length;\n  stakers = new address[](stakesLength);\n  amts = new uint256[](stakesLength);\n  idxs = new uint256[](stakesLength);\n  for (uint i = 0;i < stakesLength;i++) {\n    Stake storage stake = stakes[stakesByTopic[_topicId][_tagId].stakeIdxs[i]];\n    stakers[i] = stake.staker;\n    amts[i] = stake.amt;\n    idxs[i] = stakesByTopic[_topicId][_tagId].stakeIdxs[i];\n  }\n  return (idxs, amts, stakers);\n  }\n\n  function getUserStakeIds(address _address) public view returns (uint[] memory) {\n  return stakesByUser[_address];\n  }\n\n}\n",
  "sourcePath": "/home/steve/codes/algernon_dapp/contracts/contracts/TaggedTopics.sol",
  "compiler": {
    "name": "solc",
    "version": "0.6.12+commit.27d51765.Emscripten.clang"
  },
  "schemaVersion": "3.0.23",
  "updatedAt": "2020-10-17T19:00:41.589Z",
  "devdoc": {
    "kind": "dev",
    "methods": {},
    "title": "TopicTags. ",
    "version": 1
  },
  "userdoc": {
    "kind": "user",
    "methods": {},
    "version": 1
  }
}