{
  "contractName": "Tags",
  "abi": [
    {
      "anonymous": false,
      "inputs": [
        {
          "indexed": false,
          "internalType": "uint256",
          "name": "id",
          "type": "uint256"
        },
        {
          "indexed": false,
          "internalType": "string",
          "name": "tag",
          "type": "string"
        },
        {
          "indexed": false,
          "internalType": "address",
          "name": "addedBy",
          "type": "address"
        }
      ],
      "name": "TagAdded",
      "type": "event"
    },
    {
      "inputs": [
        {
          "internalType": "string",
          "name": "_tag",
          "type": "string"
        }
      ],
      "name": "addMasterTag",
      "outputs": [],
      "stateMutability": "nonpayable",
      "type": "function"
    },
    {
      "inputs": [
        {
          "internalType": "string",
          "name": "_tag",
          "type": "string"
        }
      ],
      "name": "doesTagExist",
      "outputs": [
        {
          "internalType": "bool",
          "name": "",
          "type": "bool"
        }
      ],
      "stateMutability": "view",
      "type": "function"
    },
    {
      "inputs": [],
      "name": "getTagCount",
      "outputs": [
        {
          "internalType": "uint256",
          "name": "",
          "type": "uint256"
        }
      ],
      "stateMutability": "view",
      "type": "function"
    },
    {
      "inputs": [
        {
          "internalType": "uint256",
          "name": "_id",
          "type": "uint256"
        }
      ],
      "name": "getTag",
      "outputs": [
        {
          "internalType": "string",
          "name": "",
          "type": "string"
        }
      ],
      "stateMutability": "view",
      "type": "function"
    }
  ],
  "bytecode": "0x608060405234801561001057600080fd5b50610738806100206000396000f3fe608060405234801561001057600080fd5b506004361061004c5760003560e01c8063691bbb6914610051578063986f191c146100f8578063ce606ea514610116578063f7302506146101e7575b600080fd5b61007d6004803603602081101561006757600080fd5b81019080803590602001909291905050506102a2565b6040518080602001828103825283818151815260200191508051906020019080838360005b838110156100bd5780820151818401526020810190506100a2565b50505050905090810190601f1680156100ea5780820380516001836020036101000a031916815260200191505b509250505060405180910390f35b61010061035b565b6040518082815260200191505060405180910390f35b6101cf6004803603602081101561012c57600080fd5b810190808035906020019064010000000081111561014957600080fd5b82018360208201111561015b57600080fd5b8035906020019184600183028401116401000000008311171561017d57600080fd5b91908080601f016020809104026020016040519081016040528093929190818152602001838380828437600081840152601f19601f820116905080830192505050505050509192919290505050610368565b60405180821515815260200191505060405180910390f35b6102a0600480360360208110156101fd57600080fd5b810190808035906020019064010000000081111561021a57600080fd5b82018360208201111561022c57600080fd5b8035906020019184600183028401116401000000008311171561024e57600080fd5b91908080601f016020809104026020016040519081016040528093929190818152602001838380828437600081840152601f19601f8201169050808301925050505050505091929192905050506103e7565b005b6060600182815481106102b157fe5b906000526020600020018054600181600116156101000203166002900480601f01602080910402602001604051908101604052809291908181526020018280546001816001161561010002031660029004801561034f5780601f106103245761010080835404028352916020019161034f565b820191906000526020600020905b81548152906001019060200180831161033257829003601f168201915b50505050509050919050565b6000600180549050905090565b600080826040518082805190602001908083835b6020831061039f578051825260208201915060208101905060208303925061037c565b6001836020036101000a038019825116818451168082178552505050505050905001915050908152602001604051809103902060009054906101000a900460ff169050919050565b600015156000826040518082805190602001908083835b6020831061042157805182526020820191506020810190506020830392506103fe565b6001836020036101000a038019825116818451168082178552505050505050905001915050908152602001604051809103902060009054906101000a900460ff161515146104d7576040517f08c379a00000000000000000000000000000000000000000000000000000000081526004018080602001828103825260128152602001807f54616720616c726561647920657869737473000000000000000000000000000081525060200191505060405180910390fd5b6000600180549050905060018290806001815401808255809150506001900390600052602060002001600090919091909150908051906020019061051c929190610665565b5060016000836040518082805190602001908083835b602083106105555780518252602082019150602081019050602083039250610532565b6001836020036101000a038019825116818451168082178552505050505050905001915050908152602001604051809103902060006101000a81548160ff0219169083151502179055507f8fc004b14aee5c0ca4de94bd14237f561d1b8fcd297828e4cd108d4a558387ef81833360405180848152602001806020018373ffffffffffffffffffffffffffffffffffffffff168152602001828103825284818151815260200191508051906020019080838360005b8381101561062557808201518184015260208101905061060a565b50505050905090810190601f1680156106525780820380516001836020036101000a031916815260200191505b5094505050505060405180910390a15050565b828054600181600116156101000203166002900490600052602060002090601f016020900481019282601f106106a657805160ff19168380011785556106d4565b828001600101855582156106d4579182015b828111156106d35782518255916020019190600101906106b8565b5b5090506106e191906106e5565b5090565b5b808211156106fe5760008160009055506001016106e6565b509056fea264697066735822122072a5288e576ddff0df2aacd35e7e0f83c6363e4fa819453692f4197113b9da8764736f6c634300060c0033",
  "source": "pragma solidity ^0.6.0;\n\n/** @title Tags. */\ncontract Tags {\n\n  mapping (string => bool) tagExists;\n  string[] tags;\n\n  event TagAdded(uint id, string tag, address addedBy);\n\n  function addMasterTag(string memory _tag) public {\n    require(tagExists[_tag] == false, 'Tag already exists');\n    uint id = tags.length;\n    tags.push(_tag);\n    tagExists[_tag] = true;\n    emit TagAdded(id, _tag, msg.sender);\n  }\n\n  function addTags(uint256[] memory _toAdd, uint256[] storage _sourceIdxs) internal {\n    for (uint256 i; i < _toAdd.length; i++) {\n      _sourceIdxs.push(_toAdd[i]);\n    }\n  }\n\n  function removeTag(uint256 _toRemove, uint256[]  storage _sourceIdxs) internal {\n    _sourceIdxs[_toRemove] = _sourceIdxs[_sourceIdxs.length-1];\n    _sourceIdxs.pop();\n  }\n\n  function doesTagExist(string memory _tag) public view returns (bool) {\n    return tagExists[_tag];\n  }\n\n  function getTagCount() public view returns (uint256) {\n    return tags.length;\n  }\n\n  function getTag(uint256 _id) public view returns (string memory) {\n    return tags[_id];\n  }\n\n}\n",
  "sourcePath": "/home/steve/codes/algernon_dapp/contracts/contracts/Tags.sol",
  "compiler": {
    "name": "solc",
    "version": "0.6.12+commit.27d51765.Emscripten.clang"
  },
  "schemaVersion": "3.0.23",
  "updatedAt": "2020-10-17T19:00:41.597Z",
  "devdoc": {
    "kind": "dev",
    "methods": {},
    "title": "Tags. ",
    "version": 1
  },
  "userdoc": {
    "kind": "user",
    "methods": {},
    "version": 1
  }
}