{
  "contractName": "Topics",
  "abi": [
    {
      "anonymous": false,
      "inputs": [
        {
          "indexed": false,
          "internalType": "uint256",
          "name": "id",
          "type": "uint256"
        },
        {
          "indexed": false,
          "internalType": "string",
          "name": "tag",
          "type": "string"
        },
        {
          "indexed": false,
          "internalType": "address",
          "name": "addedBy",
          "type": "address"
        }
      ],
      "name": "TagAdded",
      "type": "event"
    },
    {
      "anonymous": false,
      "inputs": [
        {
          "indexed": false,
          "internalType": "uint256",
          "name": "id",
          "type": "uint256"
        },
        {
          "indexed": false,
          "internalType": "uint256[]",
          "name": "tagIds",
          "type": "uint256[]"
        },
        {
          "indexed": true,
          "internalType": "address",
          "name": "owner",
          "type": "address"
        },
        {
          "indexed": false,
          "internalType": "string",
          "name": "content",
          "type": "string"
        }
      ],
      "name": "TopicCreated",
      "type": "event"
    },
    {
      "anonymous": false,
      "inputs": [
        {
          "indexed": false,
          "internalType": "uint256",
          "name": "id",
          "type": "uint256"
        },
        {
          "indexed": false,
          "internalType": "uint256[]",
          "name": "tagIds",
          "type": "uint256[]"
        }
      ],
      "name": "TopicTagsUpdated",
      "type": "event"
    },
    {
      "anonymous": false,
      "inputs": [
        {
          "indexed": false,
          "internalType": "uint256",
          "name": "id",
          "type": "uint256"
        },
        {
          "indexed": false,
          "internalType": "uint256[]",
          "name": "tagIds",
          "type": "uint256[]"
        },
        {
          "indexed": false,
          "internalType": "string",
          "name": "content",
          "type": "string"
        }
      ],
      "name": "TopicUpdated",
      "type": "event"
    },
    {
      "inputs": [
        {
          "internalType": "string",
          "name": "_tag",
          "type": "string"
        }
      ],
      "name": "addMasterTag",
      "outputs": [],
      "stateMutability": "nonpayable",
      "type": "function"
    },
    {
      "inputs": [
        {
          "internalType": "string",
          "name": "_tag",
          "type": "string"
        }
      ],
      "name": "doesTagExist",
      "outputs": [
        {
          "internalType": "bool",
          "name": "",
          "type": "bool"
        }
      ],
      "stateMutability": "view",
      "type": "function"
    },
    {
      "inputs": [
        {
          "internalType": "uint256",
          "name": "_id",
          "type": "uint256"
        }
      ],
      "name": "getTag",
      "outputs": [
        {
          "internalType": "string",
          "name": "",
          "type": "string"
        }
      ],
      "stateMutability": "view",
      "type": "function"
    },
    {
      "inputs": [],
      "name": "getTagCount",
      "outputs": [
        {
          "internalType": "uint256",
          "name": "",
          "type": "uint256"
        }
      ],
      "stateMutability": "view",
      "type": "function"
    },
    {
      "inputs": [
        {
          "internalType": "uint256",
          "name": "_id",
          "type": "uint256"
        },
        {
          "internalType": "uint256[]",
          "name": "_tagIds",
          "type": "uint256[]"
        },
        {
          "internalType": "string",
          "name": "_fileName",
          "type": "string"
        }
      ],
      "name": "updateTopic",
      "outputs": [],
      "stateMutability": "nonpayable",
      "type": "function"
    },
    {
      "inputs": [
        {
          "internalType": "uint256[]",
          "name": "_tagIds",
          "type": "uint256[]"
        },
        {
          "internalType": "uint256",
          "name": "_topicId",
          "type": "uint256"
        }
      ],
      "name": "updateTopicTags",
      "outputs": [],
      "stateMutability": "nonpayable",
      "type": "function"
    },
    {
      "inputs": [],
      "name": "getTopicCount",
      "outputs": [
        {
          "internalType": "uint256",
          "name": "",
          "type": "uint256"
        }
      ],
      "stateMutability": "view",
      "type": "function"
    },
    {
      "inputs": [
        {
          "internalType": "address",
          "name": "_user",
          "type": "address"
        }
      ],
      "name": "getUserTopicCount",
      "outputs": [
        {
          "internalType": "uint256",
          "name": "",
          "type": "uint256"
        }
      ],
      "stateMutability": "view",
      "type": "function"
    },
    {
      "inputs": [
        {
          "internalType": "address",
          "name": "_user",
          "type": "address"
        }
      ],
      "name": "getUserTopicIds",
      "outputs": [
        {
          "internalType": "uint256[]",
          "name": "",
          "type": "uint256[]"
        }
      ],
      "stateMutability": "view",
      "type": "function"
    },
    {
      "inputs": [
        {
          "internalType": "uint256",
          "name": "_id",
          "type": "uint256"
        }
      ],
      "name": "getTopic",
      "outputs": [
        {
          "internalType": "string",
          "name": "content",
          "type": "string"
        },
        {
          "internalType": "address",
          "name": "owner",
          "type": "address"
        },
        {
          "internalType": "uint256[]",
          "name": "tagIds",
          "type": "uint256[]"
        }
      ],
      "stateMutability": "view",
      "type": "function"
    },
    {
      "inputs": [
        {
          "internalType": "uint256",
          "name": "_id",
          "type": "uint256"
        }
      ],
      "name": "getTopicTagIds",
      "outputs": [
        {
          "internalType": "uint256[]",
          "name": "",
          "type": "uint256[]"
        }
      ],
      "stateMutability": "view",
      "type": "function"
    }
  ],
  "bytecode": "0x608060405234801561001057600080fd5b506111a0806100206000396000f3fe608060405234801561001057600080fd5b50600436106100a95760003560e01c8063762a8bd511610071578063762a8bd5146104ff578063986f191c14610598578063a828d5d1146105b6578063cc89698c1461060e578063ce606ea51461062c578063f7302506146106fd576100a9565b80630317b681146100ae5780630a2b7cf01461020757806328a3f5e51461028a578063691bbb691461034c57806371658896146103f3575b600080fd5b610205600480360360608110156100c457600080fd5b8101908080359060200190929190803590602001906401000000008111156100eb57600080fd5b8201836020820111156100fd57600080fd5b8035906020019184602083028401116401000000008311171561011f57600080fd5b919080806020026020016040519081016040528093929190818152602001838360200280828437600081840152601f19601f8201169050808301925050505050505091929192908035906020019064010000000081111561017f57600080fd5b82018360208201111561019157600080fd5b803590602001918460018302840111640100000000831117156101b357600080fd5b91908080601f016020809104026020016040519081016040528093929190818152602001838380828437600081840152601f19601f8201169050808301925050505050505091929192905050506107b8565b005b6102336004803603602081101561021d57600080fd5b8101908080359060200190929190505050610920565b6040518080602001828103825283818151815260200191508051906020019060200280838360005b8381101561027657808201518184015260208101905061025b565b505050509050019250505060405180910390f35b61034a600480360360408110156102a057600080fd5b81019080803590602001906401000000008111156102bd57600080fd5b8201836020820111156102cf57600080fd5b803590602001918460208302840111640100000000831117156102f157600080fd5b919080806020026020016040519081016040528093929190818152602001838360200280828437600081840152601f19601f82011690508083019250505050505050919291929080359060200190929190505050610996565b005b6103786004803603602081101561036257600080fd5b8101908080359060200190929190505050610a57565b6040518080602001828103825283818151815260200191508051906020019080838360005b838110156103b857808201518184015260208101905061039d565b50505050905090810190601f1680156103e55780820380516001836020036101000a031916815260200191505b509250505060405180910390f35b61041f6004803603602081101561040957600080fd5b8101908080359060200190929190505050610b10565b60405180806020018473ffffffffffffffffffffffffffffffffffffffff16815260200180602001838103835286818151815260200191508051906020019080838360005b8381101561047f578082015181840152602081019050610464565b50505050905090810190601f1680156104ac5780820380516001836020036101000a031916815260200191505b50838103825284818151815260200191508051906020019060200280838360005b838110156104e85780820151818401526020810190506104cd565b505050509050019550505050505060405180910390f35b6105416004803603602081101561051557600080fd5b81019080803573ffffffffffffffffffffffffffffffffffffffff169060200190929190505050610c86565b6040518080602001828103825283818151815260200191508051906020019060200280838360005b83811015610584578082015181840152602081019050610569565b505050509050019250505060405180910390f35b6105a0610d1d565b6040518082815260200191505060405180910390f35b6105f8600480360360208110156105cc57600080fd5b81019080803573ffffffffffffffffffffffffffffffffffffffff169060200190929190505050610d2a565b6040518082815260200191505060405180910390f35b610616610d76565b6040518082815260200191505060405180910390f35b6106e56004803603602081101561064257600080fd5b810190808035906020019064010000000081111561065f57600080fd5b82018360208201111561067157600080fd5b8035906020019184600183028401116401000000008311171561069357600080fd5b91908080601f016020809104026020016040519081016040528093929190818152602001838380828437600081840152601f19601f820116905080830192505050505050509192919290505050610d83565b60405180821515815260200191505060405180910390f35b6107b66004803603602081101561071357600080fd5b810190808035906020019064010000000081111561073057600080fd5b82018360208201111561074257600080fd5b8035906020019184600183028401116401000000008311171561076457600080fd5b91908080601f016020809104026020016040519081016040528093929190818152602001838380828437600081840152601f19601f820116905080830192505050505050509192919290505050610e02565b005b6000600384815481106107c757fe5b90600052602060002090600402019050818160030190805190602001906107ef929190611080565b5082816001019080519060200190610808929190611100565b507fd8e275d29f373157a51081b082dfddd9995ce4bd36c1fe1b892f8d8df9c5998581600001548260010183600301604051808481526020018060200180602001838103835285818154815260200191508054801561088657602002820191906000526020600020905b815481526020019060010190808311610872575b50508381038252848181546001816001161561010002031660029004815260200191508054600181600116156101000203166002900480156109095780601f106108de57610100808354040283529160200191610909565b820191906000526020600020905b8154815290600101906020018083116108ec57829003601f168201915b50509550505050505060405180910390a150505050565b60606003828154811061092f57fe5b906000526020600020906004020160010180548060200260200160405190810160405280929190818152602001828054801561098a57602002820191906000526020600020905b815481526020019060010190808311610976575b50505050509050919050565b6000600382815481106109a557fe5b90600052602060002090600402019050828160010190805190602001906109cd929190611100565b507ff9e07a0f3220589d9d05b68b9de495d5fe3086c9680812cf5fe277b15f00b7e981600001548260010160405180838152602001806020018281038252838181548152602001915080548015610a4357602002820191906000526020600020905b815481526020019060010190808311610a2f575b5050935050505060405180910390a1505050565b606060018281548110610a6657fe5b906000526020600020018054600181600116156101000203166002900480601f016020809104026020016040519081016040528092919081815260200182805460018160011615610100020316600290048015610b045780601f10610ad957610100808354040283529160200191610b04565b820191906000526020600020905b815481529060010190602001808311610ae757829003601f168201915b50505050509050919050565b60606000606060038481548110610b2357fe5b90600052602060002090600402016003018054600181600116156101000203166002900480601f016020809104026020016040519081016040528092919081815260200182805460018160011615610100020316600290048015610bc85780601f10610b9d57610100808354040283529160200191610bc8565b820191906000526020600020905b815481529060010190602001808311610bab57829003601f168201915b5050505050925060038481548110610bdc57fe5b906000526020600020906004020160020160009054906101000a900473ffffffffffffffffffffffffffffffffffffffff16915060038481548110610c1d57fe5b9060005260206000209060040201600101805480602002602001604051908101604052809291908181526020018280548015610c7857602002820191906000526020600020905b815481526020019060010190808311610c64575b505050505090509193909250565b6060600460008373ffffffffffffffffffffffffffffffffffffffff1673ffffffffffffffffffffffffffffffffffffffff168152602001908152602001600020805480602002602001604051908101604052809291908181526020018280548015610d1157602002820191906000526020600020905b815481526020019060010190808311610cfd575b50505050509050919050565b6000600180549050905090565b6000600460008373ffffffffffffffffffffffffffffffffffffffff1673ffffffffffffffffffffffffffffffffffffffff168152602001908152602001600020805490509050919050565b6000600380549050905090565b600080826040518082805190602001908083835b60208310610dba5780518252602082019150602081019050602083039250610d97565b6001836020036101000a038019825116818451168082178552505050505050905001915050908152602001604051809103902060009054906101000a900460ff169050919050565b600015156000826040518082805190602001908083835b60208310610e3c5780518252602082019150602081019050602083039250610e19565b6001836020036101000a038019825116818451168082178552505050505050905001915050908152602001604051809103902060009054906101000a900460ff16151514610ef2576040517f08c379a00000000000000000000000000000000000000000000000000000000081526004018080602001828103825260128152602001807f54616720616c726561647920657869737473000000000000000000000000000081525060200191505060405180910390fd5b60006001805490509050600182908060018154018082558091505060019003906000526020600020016000909190919091509080519060200190610f37929190611080565b5060016000836040518082805190602001908083835b60208310610f705780518252602082019150602081019050602083039250610f4d565b6001836020036101000a038019825116818451168082178552505050505050905001915050908152602001604051809103902060006101000a81548160ff0219169083151502179055507f8fc004b14aee5c0ca4de94bd14237f561d1b8fcd297828e4cd108d4a558387ef81833360405180848152602001806020018373ffffffffffffffffffffffffffffffffffffffff168152602001828103825284818151815260200191508051906020019080838360005b83811015611040578082015181840152602081019050611025565b50505050905090810190601f16801561106d5780820380516001836020036101000a031916815260200191505b5094505050505060405180910390a15050565b828054600181600116156101000203166002900490600052602060002090601f016020900481019282601f106110c157805160ff19168380011785556110ef565b828001600101855582156110ef579182015b828111156110ee5782518255916020019190600101906110d3565b5b5090506110fc919061114d565b5090565b82805482825590600052602060002090810192821561113c579160200282015b8281111561113b578251825591602001919060010190611120565b5b509050611149919061114d565b5090565b5b8082111561116657600081600090555060010161114e565b509056fea264697066735822122091fd86113a306502e62d8811946321678ba9cc7f2281276f997712b8caafcecd64736f6c634300060c0033",
  "source": "pragma solidity ^0.6.0;\n\nimport './Tags.sol';\n\n/** @title Users. */\ncontract Topics is Tags {\n  uint256 topicId;\n\n  struct Topic {\n    uint256 id;\n    uint[] tagIds;\n    address owner;\n    string content;\n  }\n\n  Topic[] topics;\n  mapping (address => uint256[]) userTopicIds;\n\n  event TopicCreated(uint256 id, uint256[] tagIds, address indexed owner, string content);\n  event TopicUpdated(uint256 id, uint256[] tagIds, string content);\n  event TopicTagsUpdated(uint256 id, uint256[] tagIds);\n\n  function createUserTopic(string memory _fileName, uint256[] memory _tagIds, address _user) internal returns (uint256) {\n    Topic memory topic = Topic(topicId, _tagIds, _user, _fileName);\n    topics.push(topic);\n    userTopicIds[_user].push(topic.id);\n    topicId++;\n    emit TopicCreated(topic.id, topic.tagIds, topic.owner, topic.content);\n\n    return topic.id;\n  }\n\n  function updateTopic(uint256 _id, uint256[] memory _tagIds, string memory _fileName) public {\n    Topic storage topic = topics[_id];\n    topic.content = _fileName;\n    topic.tagIds = _tagIds;\n    emit TopicUpdated(topic.id, topic.tagIds, topic.content);\n  }\n\n\n  function updateTopicTags(uint256[] memory _tagIds, uint256 _topicId) public {\n    Topic storage topic = topics[_topicId];\n    topic.tagIds = _tagIds;\n    emit TopicTagsUpdated(topic.id, topic.tagIds);\n  } \n\n  function getTopicCount() public view returns (uint256) {\n    return topics.length;\n  }\n\n  function getUserTopicCount(address _user) public view returns (uint256) {\n    return userTopicIds[_user].length;\n  }\n\n  function getUserTopicIds(address _user) public view returns (uint256[] memory) {\n    return userTopicIds[_user];\n  }\n\n  function getTopicInfo(Topic storage _topic) internal view returns (string memory content, address owner) {\n    content = _topic.content;\n    owner = _topic.owner;\n  }\n\n  function getTopic(uint256 _id) public view returns (string memory content, address owner, uint256[] memory tagIds) {\n    content = topics[_id].content;\n    owner = topics[_id].owner;\n    tagIds = topics[_id].tagIds;\n  }\n\n  function getTopicTagIds( uint256 _id) public view returns (uint256[] memory) {\n    return topics[_id].tagIds;\n  }\n\n}\n",
  "sourcePath": "/home/steve/codes/algernon_dapp/contracts/contracts/Topics.sol",
  "compiler": {
    "name": "solc",
    "version": "0.6.12+commit.27d51765.Emscripten.clang"
  },
  "schemaVersion": "3.0.23",
  "updatedAt": "2020-10-17T19:00:41.599Z",
  "devdoc": {
    "kind": "dev",
    "methods": {},
    "title": "Users. ",
    "version": 1
  },
  "userdoc": {
    "kind": "user",
    "methods": {},
    "version": 1
  }
}