{
  "contractName": "Algernon",
  "abi": [
    {
      "inputs": [
        {
          "internalType": "address",
          "name": "_tokenAddress",
          "type": "address"
        }
      ],
      "stateMutability": "nonpayable",
      "type": "constructor"
    },
    {
      "anonymous": false,
      "inputs": [
        {
          "indexed": true,
          "internalType": "bytes32",
          "name": "role",
          "type": "bytes32"
        },
        {
          "indexed": true,
          "internalType": "bytes32",
          "name": "previousAdminRole",
          "type": "bytes32"
        },
        {
          "indexed": true,
          "internalType": "bytes32",
          "name": "newAdminRole",
          "type": "bytes32"
        }
      ],
      "name": "RoleAdminChanged",
      "type": "event"
    },
    {
      "anonymous": false,
      "inputs": [
        {
          "indexed": true,
          "internalType": "bytes32",
          "name": "role",
          "type": "bytes32"
        },
        {
          "indexed": true,
          "internalType": "address",
          "name": "account",
          "type": "address"
        },
        {
          "indexed": true,
          "internalType": "address",
          "name": "sender",
          "type": "address"
        }
      ],
      "name": "RoleGranted",
      "type": "event"
    },
    {
      "anonymous": false,
      "inputs": [
        {
          "indexed": true,
          "internalType": "bytes32",
          "name": "role",
          "type": "bytes32"
        },
        {
          "indexed": true,
          "internalType": "address",
          "name": "account",
          "type": "address"
        },
        {
          "indexed": true,
          "internalType": "address",
          "name": "sender",
          "type": "address"
        }
      ],
      "name": "RoleRevoked",
      "type": "event"
    },
    {
      "anonymous": false,
      "inputs": [
        {
          "indexed": false,
          "internalType": "uint256",
          "name": "stakeIdx",
          "type": "uint256"
        },
        {
          "indexed": false,
          "internalType": "address",
          "name": "staker",
          "type": "address"
        },
        {
          "indexed": false,
          "internalType": "uint256",
          "name": "totalAmt",
          "type": "uint256"
        },
        {
          "indexed": false,
          "internalType": "uint256",
          "name": "stakeAmt",
          "type": "uint256"
        },
        {
          "indexed": false,
          "internalType": "uint256",
          "name": "topicId",
          "type": "uint256"
        },
        {
          "indexed": false,
          "internalType": "uint256",
          "name": "tagId",
          "type": "uint256"
        }
      ],
      "name": "StakeAdded",
      "type": "event"
    },
    {
      "anonymous": false,
      "inputs": [
        {
          "indexed": false,
          "internalType": "uint256",
          "name": "stakeIdx",
          "type": "uint256"
        },
        {
          "indexed": false,
          "internalType": "uint256",
          "name": "amt",
          "type": "uint256"
        }
      ],
      "name": "StakeDecreased",
      "type": "event"
    },
    {
      "anonymous": false,
      "inputs": [
        {
          "indexed": false,
          "internalType": "uint256",
          "name": "stakeIdx",
          "type": "uint256"
        },
        {
          "indexed": false,
          "internalType": "uint256",
          "name": "totalAmt",
          "type": "uint256"
        },
        {
          "indexed": false,
          "internalType": "uint256",
          "name": "stakeAmt",
          "type": "uint256"
        }
      ],
      "name": "StakeIncreased",
      "type": "event"
    },
    {
      "anonymous": false,
      "inputs": [
        {
          "indexed": false,
          "internalType": "uint256",
          "name": "id",
          "type": "uint256"
        },
        {
          "indexed": false,
          "internalType": "string",
          "name": "tag",
          "type": "string"
        },
        {
          "indexed": false,
          "internalType": "uint256",
          "name": "parent",
          "type": "uint256"
        },
        {
          "indexed": false,
          "internalType": "address",
          "name": "addedBy",
          "type": "address"
        }
      ],
      "name": "TagAdded",
      "type": "event"
    },
    {
      "anonymous": false,
      "inputs": [
        {
          "indexed": false,
          "internalType": "uint256",
          "name": "id",
          "type": "uint256"
        },
        {
          "indexed": false,
          "internalType": "string",
          "name": "tag",
          "type": "string"
        },
        {
          "indexed": false,
          "internalType": "uint256",
          "name": "parent",
          "type": "uint256"
        },
        {
          "indexed": false,
          "internalType": "address",
          "name": "updatedBy",
          "type": "address"
        }
      ],
      "name": "TagUpdated",
      "type": "event"
    },
    {
      "anonymous": false,
      "inputs": [
        {
          "indexed": false,
          "internalType": "address",
          "name": "operator",
          "type": "address"
        },
        {
          "indexed": false,
          "internalType": "address",
          "name": "from",
          "type": "address"
        },
        {
          "indexed": false,
          "internalType": "address",
          "name": "to",
          "type": "address"
        },
        {
          "indexed": false,
          "internalType": "uint256",
          "name": "amount",
          "type": "uint256"
        },
        {
          "indexed": false,
          "internalType": "bytes",
          "name": "userData",
          "type": "bytes"
        },
        {
          "indexed": false,
          "internalType": "bytes",
          "name": "operatorData",
          "type": "bytes"
        }
      ],
      "name": "TokensReceived",
      "type": "event"
    },
    {
      "anonymous": false,
      "inputs": [
        {
          "indexed": false,
          "internalType": "address",
          "name": "operator",
          "type": "address"
        },
        {
          "indexed": false,
          "internalType": "address",
          "name": "from",
          "type": "address"
        },
        {
          "indexed": false,
          "internalType": "address",
          "name": "to",
          "type": "address"
        },
        {
          "indexed": false,
          "internalType": "uint256",
          "name": "amount",
          "type": "uint256"
        },
        {
          "indexed": false,
          "internalType": "bytes",
          "name": "userData",
          "type": "bytes"
        },
        {
          "indexed": false,
          "internalType": "bytes",
          "name": "operatorData",
          "type": "bytes"
        }
      ],
      "name": "TokensSent",
      "type": "event"
    },
    {
      "anonymous": false,
      "inputs": [
        {
          "indexed": false,
          "internalType": "uint256",
          "name": "id",
          "type": "uint256"
        },
        {
          "indexed": false,
          "internalType": "uint256[]",
          "name": "tagIds",
          "type": "uint256[]"
        },
        {
          "indexed": true,
          "internalType": "address",
          "name": "owner",
          "type": "address"
        },
        {
          "indexed": false,
          "internalType": "string",
          "name": "content",
          "type": "string"
        }
      ],
      "name": "TopicCreated",
      "type": "event"
    },
    {
      "anonymous": false,
      "inputs": [
        {
          "indexed": false,
          "internalType": "uint256",
          "name": "topicId",
          "type": "uint256"
        },
        {
          "indexed": false,
          "internalType": "uint256",
          "name": "tagId",
          "type": "uint256"
        },
        {
          "indexed": false,
          "internalType": "bool",
          "name": "added",
          "type": "bool"
        }
      ],
      "name": "TopicTagUpdated",
      "type": "event"
    },
    {
      "anonymous": false,
      "inputs": [
        {
          "indexed": false,
          "internalType": "uint256",
          "name": "id",
          "type": "uint256"
        },
        {
          "indexed": false,
          "internalType": "uint256[]",
          "name": "tagIds",
          "type": "uint256[]"
        }
      ],
      "name": "TopicTagsUpdated",
      "type": "event"
    },
    {
      "anonymous": false,
      "inputs": [
        {
          "indexed": false,
          "internalType": "uint256",
          "name": "id",
          "type": "uint256"
        },
        {
          "indexed": false,
          "internalType": "uint256[]",
          "name": "tagIds",
          "type": "uint256[]"
        },
        {
          "indexed": false,
          "internalType": "string",
          "name": "content",
          "type": "string"
        }
      ],
      "name": "TopicUpdated",
      "type": "event"
    },
    {
      "inputs": [],
      "name": "DEFAULT_ADMIN_ROLE",
      "outputs": [
        {
          "internalType": "bytes32",
          "name": "",
          "type": "bytes32"
        }
      ],
      "stateMutability": "view",
      "type": "function"
    },
    {
      "inputs": [],
      "name": "TAGGER_ROLE",
      "outputs": [
        {
          "internalType": "bytes32",
          "name": "",
          "type": "bytes32"
        }
      ],
      "stateMutability": "view",
      "type": "function"
    },
    {
      "inputs": [
        {
          "internalType": "uint256",
          "name": "_topicId",
          "type": "uint256"
        },
        {
          "internalType": "uint256",
          "name": "_tagId",
          "type": "uint256"
        },
        {
          "internalType": "uint256",
          "name": "_amt",
          "type": "uint256"
        }
      ],
      "name": "addStake",
      "outputs": [],
      "stateMutability": "nonpayable",
      "type": "function"
    },
    {
      "inputs": [
        {
          "internalType": "string",
          "name": "_tag",
          "type": "string"
        },
        {
          "internalType": "uint256",
          "name": "_parent",
          "type": "uint256"
        }
      ],
      "name": "addTag",
      "outputs": [],
      "stateMutability": "nonpayable",
      "type": "function"
    },
    {
      "inputs": [
        {
          "internalType": "bytes32",
          "name": "role",
          "type": "bytes32"
        }
      ],
      "name": "getRoleAdmin",
      "outputs": [
        {
          "internalType": "bytes32",
          "name": "",
          "type": "bytes32"
        }
      ],
      "stateMutability": "view",
      "type": "function"
    },
    {
      "inputs": [
        {
          "internalType": "uint256",
          "name": "_id",
          "type": "uint256"
        }
      ],
      "name": "getTag",
      "outputs": [
        {
          "internalType": "uint256",
          "name": "",
          "type": "uint256"
        },
        {
          "internalType": "string",
          "name": "",
          "type": "string"
        },
        {
          "internalType": "uint256",
          "name": "",
          "type": "uint256"
        }
      ],
      "stateMutability": "view",
      "type": "function"
    },
    {
      "inputs": [
        {
          "internalType": "uint256",
          "name": "_tagId",
          "type": "uint256"
        },
        {
          "internalType": "address",
          "name": "_address",
          "type": "address"
        }
      ],
      "name": "getTagAddressTopicIds",
      "outputs": [
        {
          "internalType": "uint256[]",
          "name": "",
          "type": "uint256[]"
        }
      ],
      "stateMutability": "view",
      "type": "function"
    },
    {
      "inputs": [
        {
          "internalType": "uint256",
          "name": "_tagId",
          "type": "uint256"
        }
      ],
      "name": "getTagAddresses",
      "outputs": [
        {
          "internalType": "address[]",
          "name": "",
          "type": "address[]"
        }
      ],
      "stateMutability": "view",
      "type": "function"
    },
    {
      "inputs": [],
      "name": "getTagCount",
      "outputs": [
        {
          "internalType": "uint256",
          "name": "",
          "type": "uint256"
        }
      ],
      "stateMutability": "view",
      "type": "function"
    },
    {
      "inputs": [
        {
          "internalType": "uint256",
          "name": "_id",
          "type": "uint256"
        }
      ],
      "name": "getTopic",
      "outputs": [
        {
          "internalType": "string",
          "name": "content",
          "type": "string"
        },
        {
          "internalType": "address",
          "name": "owner",
          "type": "address"
        },
        {
          "internalType": "uint256[]",
          "name": "tagIds",
          "type": "uint256[]"
        }
      ],
      "stateMutability": "view",
      "type": "function"
    },
    {
      "inputs": [],
      "name": "getTopicCount",
      "outputs": [
        {
          "internalType": "uint256",
          "name": "",
          "type": "uint256"
        }
      ],
      "stateMutability": "view",
      "type": "function"
    },
    {
      "inputs": [
        {
          "internalType": "uint256",
          "name": "_id",
          "type": "uint256"
        }
      ],
      "name": "getTopicTagIds",
      "outputs": [
        {
          "internalType": "uint256[]",
          "name": "",
          "type": "uint256[]"
        }
      ],
      "stateMutability": "view",
      "type": "function"
    },
    {
      "inputs": [
        {
          "internalType": "uint256",
          "name": "_topicId",
          "type": "uint256"
        },
        {
          "internalType": "uint256",
          "name": "_tagId",
          "type": "uint256"
        }
      ],
      "name": "getTopicTagStakeTotal",
      "outputs": [
        {
          "internalType": "uint256",
          "name": "",
          "type": "uint256"
        }
      ],
      "stateMutability": "view",
      "type": "function"
    },
    {
      "inputs": [
        {
          "internalType": "uint256",
          "name": "_topicId",
          "type": "uint256"
        },
        {
          "internalType": "uint256",
          "name": "_tagId",
          "type": "uint256"
        }
      ],
      "name": "getTopicTagStakes",
      "outputs": [
        {
          "internalType": "uint256[]",
          "name": "idxs",
          "type": "uint256[]"
        },
        {
          "internalType": "uint256[]",
          "name": "amts",
          "type": "uint256[]"
        },
        {
          "internalType": "address[]",
          "name": "stakers",
          "type": "address[]"
        }
      ],
      "stateMutability": "view",
      "type": "function"
    },
    {
      "inputs": [
        {
          "internalType": "address",
          "name": "_address",
          "type": "address"
        }
      ],
      "name": "getUserStakeIds",
      "outputs": [
        {
          "internalType": "uint256[]",
          "name": "",
          "type": "uint256[]"
        }
      ],
      "stateMutability": "view",
      "type": "function"
    },
    {
      "inputs": [
        {
          "internalType": "address",
          "name": "_user",
          "type": "address"
        }
      ],
      "name": "getUserTopicCount",
      "outputs": [
        {
          "internalType": "uint256",
          "name": "",
          "type": "uint256"
        }
      ],
      "stateMutability": "view",
      "type": "function"
    },
    {
      "inputs": [
        {
          "internalType": "address",
          "name": "_user",
          "type": "address"
        }
      ],
      "name": "getUserTopicIds",
      "outputs": [
        {
          "internalType": "uint256[]",
          "name": "",
          "type": "uint256[]"
        }
      ],
      "stateMutability": "view",
      "type": "function"
    },
    {
      "inputs": [
        {
          "internalType": "address",
          "name": "_addr",
          "type": "address"
        }
      ],
      "name": "grantAdminRole",
      "outputs": [],
      "stateMutability": "nonpayable",
      "type": "function"
    },
    {
      "inputs": [
        {
          "internalType": "bytes32",
          "name": "role",
          "type": "bytes32"
        },
        {
          "internalType": "address",
          "name": "account",
          "type": "address"
        }
      ],
      "name": "grantRole",
      "outputs": [],
      "stateMutability": "nonpayable",
      "type": "function"
    },
    {
      "inputs": [
        {
          "internalType": "address",
          "name": "_addr",
          "type": "address"
        }
      ],
      "name": "grantTaggerRole",
      "outputs": [],
      "stateMutability": "nonpayable",
      "type": "function"
    },
    {
      "inputs": [
        {
          "internalType": "bytes32",
          "name": "role",
          "type": "bytes32"
        },
        {
          "internalType": "address",
          "name": "account",
          "type": "address"
        }
      ],
      "name": "hasRole",
      "outputs": [
        {
          "internalType": "bool",
          "name": "",
          "type": "bool"
        }
      ],
      "stateMutability": "view",
      "type": "function"
    },
    {
      "inputs": [
        {
          "internalType": "uint256",
          "name": "_stakeIdx",
          "type": "uint256"
        },
        {
          "internalType": "uint256",
          "name": "_amt",
          "type": "uint256"
        }
      ],
      "name": "increaseStake",
      "outputs": [],
      "stateMutability": "nonpayable",
      "type": "function"
    },
    {
      "inputs": [
        {
          "internalType": "address",
          "name": "_addr",
          "type": "address"
        }
      ],
      "name": "isAdmin",
      "outputs": [
        {
          "internalType": "bool",
          "name": "",
          "type": "bool"
        }
      ],
      "stateMutability": "view",
      "type": "function"
    },
    {
      "inputs": [
        {
          "internalType": "address",
          "name": "_addr",
          "type": "address"
        }
      ],
      "name": "isTagger",
      "outputs": [
        {
          "internalType": "bool",
          "name": "",
          "type": "bool"
        }
      ],
      "stateMutability": "view",
      "type": "function"
    },
    {
      "inputs": [
        {
          "internalType": "uint256",
          "name": "_stakeIdx",
          "type": "uint256"
        },
        {
          "internalType": "uint256",
          "name": "_amt",
          "type": "uint256"
        }
      ],
      "name": "reduceStake",
      "outputs": [],
      "stateMutability": "nonpayable",
      "type": "function"
    },
    {
      "inputs": [
        {
          "internalType": "bytes32",
          "name": "role",
          "type": "bytes32"
        },
        {
          "internalType": "address",
          "name": "account",
          "type": "address"
        }
      ],
      "name": "renounceRole",
      "outputs": [],
      "stateMutability": "nonpayable",
      "type": "function"
    },
    {
      "inputs": [
        {
          "internalType": "address",
          "name": "_addr",
          "type": "address"
        }
      ],
      "name": "revokeAdminRole",
      "outputs": [],
      "stateMutability": "nonpayable",
      "type": "function"
    },
    {
      "inputs": [
        {
          "internalType": "bytes32",
          "name": "role",
          "type": "bytes32"
        },
        {
          "internalType": "address",
          "name": "account",
          "type": "address"
        }
      ],
      "name": "revokeRole",
      "outputs": [],
      "stateMutability": "nonpayable",
      "type": "function"
    },
    {
      "inputs": [
        {
          "internalType": "address",
          "name": "_addr",
          "type": "address"
        }
      ],
      "name": "revokeTaggerRole",
      "outputs": [],
      "stateMutability": "nonpayable",
      "type": "function"
    },
    {
      "inputs": [
        {
          "internalType": "string",
          "name": "",
          "type": "string"
        }
      ],
      "name": "tagExists",
      "outputs": [
        {
          "internalType": "bool",
          "name": "",
          "type": "bool"
        }
      ],
      "stateMutability": "view",
      "type": "function"
    },
    {
      "inputs": [
        {
          "internalType": "address",
          "name": "",
          "type": "address"
        }
      ],
      "name": "tokenBalances",
      "outputs": [
        {
          "internalType": "uint256",
          "name": "",
          "type": "uint256"
        }
      ],
      "stateMutability": "view",
      "type": "function"
    },
    {
      "inputs": [
        {
          "internalType": "uint256",
          "name": "_id",
          "type": "uint256"
        },
        {
          "internalType": "uint256",
          "name": "_newParent",
          "type": "uint256"
        }
      ],
      "name": "updateParent",
      "outputs": [],
      "stateMutability": "nonpayable",
      "type": "function"
    },
    {
      "inputs": [
        {
          "internalType": "uint256",
          "name": "_id",
          "type": "uint256"
        },
        {
          "internalType": "uint256[]",
          "name": "_tagIds",
          "type": "uint256[]"
        },
        {
          "internalType": "string",
          "name": "_fileName",
          "type": "string"
        }
      ],
      "name": "updateTopic",
      "outputs": [],
      "stateMutability": "nonpayable",
      "type": "function"
    },
    {
      "inputs": [
        {
          "internalType": "uint256[]",
          "name": "_tagIds",
          "type": "uint256[]"
        },
        {
          "internalType": "uint256",
          "name": "_topicId",
          "type": "uint256"
        }
      ],
      "name": "updateTopicTags",
      "outputs": [],
      "stateMutability": "nonpayable",
      "type": "function"
    },
    {
      "inputs": [
        {
          "internalType": "uint256[]",
          "name": "_addIds",
          "type": "uint256[]"
        },
        {
          "internalType": "uint256[]",
          "name": "_removeIds",
          "type": "uint256[]"
        },
        {
          "internalType": "uint256[]",
          "name": "_topicTagIdxs",
          "type": "uint256[]"
        },
        {
          "internalType": "uint256[]",
          "name": "_taggedUserTopicIdxs",
          "type": "uint256[]"
        },
        {
          "internalType": "uint256",
          "name": "_topicId",
          "type": "uint256"
        }
      ],
      "name": "updateTopicTags",
      "outputs": [],
      "stateMutability": "nonpayable",
      "type": "function"
    },
    {
      "inputs": [
        {
          "internalType": "uint256[]",
          "name": "_tagIds",
          "type": "uint256[]"
        },
        {
          "internalType": "string",
          "name": "fileName",
          "type": "string"
        }
      ],
      "name": "createTopic",
      "outputs": [
        {
          "internalType": "uint256",
          "name": "",
          "type": "uint256"
        }
      ],
      "stateMutability": "nonpayable",
      "type": "function"
    },
    {
      "inputs": [],
      "name": "getContractTokenBalance",
      "outputs": [
        {
          "internalType": "uint256",
          "name": "",
          "type": "uint256"
        }
      ],
      "stateMutability": "view",
      "type": "function"
    },
    {
      "inputs": [
        {
          "internalType": "address",
          "name": "_account",
          "type": "address"
        }
      ],
      "name": "getAlgernonTokenBalance",
      "outputs": [
        {
          "internalType": "uint256",
          "name": "",
          "type": "uint256"
        }
      ],
      "stateMutability": "view",
      "type": "function"
    },
    {
      "inputs": [
        {
          "internalType": "uint256",
          "name": "_amt",
          "type": "uint256"
        }
      ],
      "name": "withdrawTokens",
      "outputs": [],
      "stateMutability": "nonpayable",
      "type": "function"
    },
    {
      "inputs": [
        {
          "internalType": "address",
          "name": "operator",
          "type": "address"
        },
        {
          "internalType": "address",
          "name": "from",
          "type": "address"
        },
        {
          "internalType": "address",
          "name": "to",
          "type": "address"
        },
        {
          "internalType": "uint256",
          "name": "amount",
          "type": "uint256"
        },
        {
          "internalType": "bytes",
          "name": "userData",
          "type": "bytes"
        },
        {
          "internalType": "bytes",
          "name": "operatorData",
          "type": "bytes"
        }
      ],
      "name": "tokensReceived",
      "outputs": [],
      "stateMutability": "nonpayable",
      "type": "function"
    }
  ],
  "bytecode": "0x6080604052620186a0600f5560016010553480156200001d57600080fd5b5060405162005aba38038062005aba83398181016040528101906200004391906200044b565b620000586000801b336200015a60201b60201c565b6200008a7fa807086040659eb7db9d31549a4199b0f7dd99f763c671636e80d5e5dc36a5d0336200017060201b60201c565b33601260006101000a81548173ffffffffffffffffffffffffffffffffffffffff021916908373ffffffffffffffffffffffffffffffffffffffff16021790555080601360006101000a81548173ffffffffffffffffffffffffffffffffffffffff021916908373ffffffffffffffffffffffffffffffffffffffff160217905550620001536040518060400160405280601581526020017f455243373737546f6b656e73526563697069656e74000000000000000000000081525030620001f960201b60201c565b5062000673565b6200016c8282620002b260201b60201c565b5050565b620001a16200018583620003a360201b60201c565b62000195620003c260201b60201c565b620003ca60201b60201c565b620001e3576040517f08c379a0000000000000000000000000000000000000000000000000000000008152600401620001da906200054d565b60405180910390fd5b620001f58282620002b260201b60201c565b5050565b6000826040516020016200020e9190620004f7565b604051602081830303815290604052805190602001209050731820a4b7618bde71dce8cdc73aab6c95905fad2473ffffffffffffffffffffffffffffffffffffffff166329965a1d3083856040518463ffffffff1660e01b8152600401620002799392919062000510565b600060405180830381600087803b1580156200029457600080fd5b505af1158015620002a9573d6000803e3d6000fd5b50505050505050565b620002c48282620003ca60201b60201c565b6200039f57600160008084815260200190815260200160002060000160008373ffffffffffffffffffffffffffffffffffffffff1673ffffffffffffffffffffffffffffffffffffffff16815260200190815260200160002060006101000a81548160ff02191690831515021790555062000344620003c260201b60201c565b73ffffffffffffffffffffffffffffffffffffffff168173ffffffffffffffffffffffffffffffffffffffff16837f2f8788117e7eff1d82e926ec794901d17c78024a50270940304540a733656f0d60405160405180910390a45b5050565b6000806000838152602001908152602001600020600101549050919050565b600033905090565b600080600084815260200190815260200160002060000160008373ffffffffffffffffffffffffffffffffffffffff1673ffffffffffffffffffffffffffffffffffffffff16815260200190815260200160002060009054906101000a900460ff16905092915050565b600081519050620004458162000659565b92915050565b6000602082840312156200045e57600080fd5b60006200046e8482850162000434565b91505092915050565b620004828162000596565b82525050565b6200049381620005aa565b82525050565b6000620004a6826200056f565b620004b281856200058b565b9350620004c4818560208601620005d4565b80840191505092915050565b6000620004df602f836200057a565b9150620004ec826200060a565b604082019050919050565b600062000505828462000499565b915081905092915050565b600060608201905062000527600083018662000477565b62000536602083018562000488565b62000545604083018462000477565b949350505050565b600060208201905081810360008301526200056881620004d0565b9050919050565b600081519050919050565b600082825260208201905092915050565b600081905092915050565b6000620005a382620005b4565b9050919050565b6000819050919050565b600073ffffffffffffffffffffffffffffffffffffffff82169050919050565b60005b83811015620005f4578082015181840152602081019050620005d7565b8381111562000604576000848401525b50505050565b7f416363657373436f6e74726f6c3a2073656e646572206d75737420626520616e60008201527f2061646d696e20746f206772616e740000000000000000000000000000000000602082015250565b620006648162000596565b81146200067057600080fd5b50565b61543780620006836000396000f3fe608060405234801561001057600080fd5b50600436106102475760003560e01c8063716588961161013b578063bec10cde116100b8578063d58c70441161007c578063d58c704414610770578063dc8b37251461078c578063e17a82db146107bc578063e3bb12e0146107d8578063f6293738146107f457610247565b8063bec10cde146106e2578063c634b78e146106fe578063cc89698c1461071a578063d1a29dbd14610738578063d547741f1461075457610247565b8063986f191c116100ff578063986f191c1461063c5780639a19c7b01461065a578063a217fddf14610676578063a828d5d114610694578063b2362add146106c457610247565b8063716588961461054a57806374b649c21461057c578063762a8bd5146105ac578063828fe4d0146105dc57806391d148541461060c57610247565b8063315a095d116101c957806346d938601161018d57806346d938601461046a57806350a5f1081461049a578063523fba7f146104b65780636107d6fc146104e6578063691bbb691461051857610247565b8063315a095d146103dc578063317d9453146103f857806336568abe1461041657806340073aaa1461043257806340f1725d1461044e57610247565b8063248a9ca311610210578063248a9ca31461031457806324d7806c1461034457806328a3f5e5146103745780632f2ff15d14610390578063313da78f146103ac57610247565b806223de291461024c5780630317b6811461026857806303820948146102845780630a2b7cf0146102b457806317f2feb6146102e4575b600080fd5b61026660048036038101906102619190613a97565b610824565b005b610282600480360381019061027d9190613e79565b610959565b005b61029e60048036038101906102999190613a6e565b610a22565b6040516102ab919061469f565b60405180910390f35b6102ce60048036038101906102c99190613deb565b610a55565b6040516102db9190614631565b60405180910390f35b6102fe60048036038101906102f99190613e3d565b610af8565b60405161030b9190614631565b60405180910390f35b61032e60048036038101906103299190613cf1565b610ba1565b60405161033b91906146ba565b60405180910390f35b61035e60048036038101906103599190613a6e565b610bc0565b60405161036b919061469f565b60405180910390f35b61038e60048036038101906103899190613c9d565b610bd6565b005b6103aa60048036038101906103a59190613d1a565b610c80565b005b6103c660048036038101906103c19190613a6e565b610ce6565b6040516103d39190614631565b60405180910390f35b6103f660048036038101906103f19190613deb565b610d7d565b005b610400610ee7565b60405161040d919061491a565b60405180910390f35b610430600480360381019061042b9190613d1a565b610f99565b005b61044c60048036038101906104479190613d97565b61101c565b005b61046860048036038101906104639190613b5a565b611239565b005b610484600480360381019061047f9190613ef8565b611396565b604051610491919061491a565b60405180910390f35b6104b460048036038101906104af9190613f34565b6113c8565b005b6104d060048036038101906104cb9190613a6e565b6116e2565b6040516104dd919061491a565b60405180910390f35b61050060048036038101906104fb9190613ef8565b6116fa565b60405161050f93929190614653565b60405180910390f35b610532600480360381019061052d9190613deb565b611aef565b60405161054193929190614a50565b60405180910390f35b610564600480360381019061055f9190613deb565b611bf0565b604051610573939291906146d5565b60405180910390f35b61059660048036038101906105919190613c31565b611ddd565b6040516105a3919061491a565b60405180910390f35b6105c660048036038101906105c19190613a6e565b611df7565b6040516105d39190614631565b60405180910390f35b6105f660048036038101906105f19190613d56565b611e8e565b604051610603919061469f565b60405180910390f35b61062660048036038101906106219190613d1a565b611ec4565b604051610633919061469f565b60405180910390f35b610644611f2e565b604051610651919061491a565b60405180910390f35b610674600480360381019061066f9190613a6e565b611f3b565b005b61067e611f4b565b60405161068b91906146ba565b60405180910390f35b6106ae60048036038101906106a99190613a6e565b611f52565b6040516106bb919061491a565b60405180910390f35b6106cc611f9e565b6040516106d991906146ba565b60405180910390f35b6106fc60048036038101906106f79190613ef8565b611fc2565b005b61071860048036038101906107139190613a6e565b6121dd565b005b6107226121ed565b60405161072f919061491a565b60405180910390f35b610752600480360381019061074d9190613ef8565b6121fa565b005b61076e60048036038101906107699190613d1a565b6123d1565b005b61078a60048036038101906107859190613ef8565b612437565b005b6107a660048036038101906107a19190613a6e565b6125c5565b6040516107b3919061491a565b60405180910390f35b6107d660048036038101906107d19190613a6e565b61260e565b005b6107f260048036038101906107ed9190613a6e565b61263b565b005b61080e60048036038101906108099190613deb565b612668565b60405161081b919061460f565b60405180910390f35b601360009054906101000a900473ffffffffffffffffffffffffffffffffffffffff1673ffffffffffffffffffffffffffffffffffffffff163373ffffffffffffffffffffffffffffffffffffffff16146108b4576040517f08c379a00000000000000000000000000000000000000000000000000000000081526004016108ab9061471a565b60405180910390fd5b84601160008973ffffffffffffffffffffffffffffffffffffffff1673ffffffffffffffffffffffffffffffffffffffff16815260200190815260200160002060008282546109039190614d2b565b925050819055507fc516411697311e2344b800024721d1011dfc3c7f81c219c10582557cf46336908888888888888888604051610947989796959493929190614560565b60405180910390a15050505050505050565b600060048481548110610995577f4e487b7100000000000000000000000000000000000000000000000000000000600052603260045260246000fd5b90600052602060002090600402019050818160030190805190602001906109bd9291906137e2565b50828160010190805190602001906109d6929190613868565b507fd8e275d29f373157a51081b082dfddd9995ce4bd36c1fe1b892f8d8df9c5998581600001548260010183600301604051610a1493929190614a0b565b60405180910390a150505050565b6000610a4e7fa807086040659eb7db9d31549a4199b0f7dd99f763c671636e80d5e5dc36a5d083611ec4565b9050919050565b606060048281548110610a91577f4e487b7100000000000000000000000000000000000000000000000000000000600052603260045260246000fd5b9060005260206000209060040201600101805480602002602001604051908101604052809291908181526020018280548015610aec57602002820191906000526020600020905b815481526020019060010190808311610ad8575b50505050509050919050565b6060600a600084815260200190815260200160002060008373ffffffffffffffffffffffffffffffffffffffff1673ffffffffffffffffffffffffffffffffffffffff168152602001908152602001600020805480602002602001604051908101604052809291908181526020018280548015610b9457602002820191906000526020600020905b815481526020019060010190808311610b80575b5050505050905092915050565b6000806000838152602001908152602001600020600101549050919050565b6000610bcf6000801b83611ec4565b9050919050565b600060048281548110610c12577f4e487b7100000000000000000000000000000000000000000000000000000000600052603260045260246000fd5b9060005260206000209060040201905082816001019080519060200190610c3a929190613868565b507ff9e07a0f3220589d9d05b68b9de495d5fe3086c9680812cf5fe277b15f00b7e9816000015482600101604051610c739291906149db565b60405180910390a1505050565b610c99610c8c83610ba1565b610c94612709565b611ec4565b610cd8576040517f08c379a0000000000000000000000000000000000000000000000000000000008152600401610ccf9061473a565b60405180910390fd5b610ce28282612711565b5050565b6060600960008373ffffffffffffffffffffffffffffffffffffffff1673ffffffffffffffffffffffffffffffffffffffff168152602001908152602001600020805480602002602001604051908101604052809291908181526020018280548015610d7157602002820191906000526020600020905b815481526020019060010190808311610d5d575b50505050509050919050565b80601160003373ffffffffffffffffffffffffffffffffffffffff1673ffffffffffffffffffffffffffffffffffffffff168152602001908152602001600020541015610dff576040517f08c379a0000000000000000000000000000000000000000000000000000000008152600401610df69061483a565b60405180910390fd5b80601160003373ffffffffffffffffffffffffffffffffffffffff1673ffffffffffffffffffffffffffffffffffffffff1681526020019081526020016000206000828254610e4e9190614e0c565b92505081905550600d60009054906101000a900473ffffffffffffffffffffffffffffffffffffffff1673ffffffffffffffffffffffffffffffffffffffff16639bd9bbc633836040518363ffffffff1660e01b8152600401610eb29291906145d3565b600060405180830381600087803b158015610ecc57600080fd5b505af1158015610ee0573d6000803e3d6000fd5b5050505050565b6000600d60009054906101000a900473ffffffffffffffffffffffffffffffffffffffff1673ffffffffffffffffffffffffffffffffffffffff166370a08231306040518263ffffffff1660e01b8152600401610f449190614545565b60206040518083038186803b158015610f5c57600080fd5b505afa158015610f70573d6000803e3d6000fd5b505050506040513d601f19601f82011682018060405250810190610f949190613e14565b905090565b610fa1612709565b73ffffffffffffffffffffffffffffffffffffffff168173ffffffffffffffffffffffffffffffffffffffff161461100e576040517f08c379a0000000000000000000000000000000000000000000000000000000008152600401611005906148fa565b60405180910390fd5b61101882826127f1565b5050565b6110467fa807086040659eb7db9d31549a4199b0f7dd99f763c671636e80d5e5dc36a5d033611ec4565b611085576040517f08c379a000000000000000000000000000000000000000000000000000000000815260040161107c9061479a565b60405180910390fd5b6000825114156110ca576040517f08c379a00000000000000000000000000000000000000000000000000000000081526004016110c1906147da565b60405180910390fd5b600015156001836040516110de9190614517565b908152602001604051809103902060009054906101000a900460ff1615151461113c576040517f08c379a00000000000000000000000000000000000000000000000000000000081526004016111339061487a565b60405180910390fd5b600060016002805490506111509190614d2b565b905060006040518060400160405280858152602001848152509050600281908060018154018082558091505060019003906000526020600020906002020160009091909190915060008201518160000190805190602001906111b39291906137e2565b50602082015181600101555050600180856040516111d19190614517565b908152602001604051809103902060006101000a81548160ff0219169083151502179055507f06e4cc9025d7c31df00b1ba37c3602316917a0b691ef5de231465230e0debc4e8285853360405161122b9493929190614a8e565b60405180910390a150505050565b60005b84518110156113245761131182868381518110611282577f4e487b7100000000000000000000000000000000000000000000000000000000600052603260045260246000fd5b60200260200101518684815181106112c3577f4e487b7100000000000000000000000000000000000000000000000000000000600052603260045260246000fd5b6020026020010151868581518110611304577f4e487b7100000000000000000000000000000000000000000000000000000000600052603260045260246000fd5b60200260200101516128d2565b808061131c90614f5b565b91505061123c565b5060005b855181101561138e5761137b8287838151811061136e577f4e487b7100000000000000000000000000000000000000000000000000000000600052603260045260246000fd5b6020026020010151613079565b808061138690614f5b565b915050611328565b505050505050565b600060076000848152602001908152602001600020600083815260200190815260200160002060000154905092915050565b60086000848152602001908152602001600020600083815260200190815260200160002060009054906101000a900460ff16611439576040517f08c379a00000000000000000000000000000000000000000000000000000000081526004016114309061481a565b60405180910390fd5b80601160003373ffffffffffffffffffffffffffffffffffffffff1673ffffffffffffffffffffffffffffffffffffffff1681526020019081526020016000205410156114bb576040517f08c379a00000000000000000000000000000000000000000000000000000000081526004016114b29061483a565b60405180910390fd5b6000600760008581526020019081526020016000206000848152602001908152602001600020905060006114f0838633613478565b9050600060405180608001604052803373ffffffffffffffffffffffffffffffffffffffff16815260200183815260200187815260200186815250905060006006805490509050600682908060018154018082558091505060019003906000526020600020906004020160009091909190915060008201518160000160006101000a81548173ffffffffffffffffffffffffffffffffffffffff021916908373ffffffffffffffffffffffffffffffffffffffff1602179055506020820151816001015560408201518160020155606082015181600301555050828460000160008282546115de9190614d2b565b925050819055508360010160016006805490506115fb9190614e0c565b9080600181540180825580915050600190039060005260206000200160009091909190915055600960003373ffffffffffffffffffffffffffffffffffffffff1673ffffffffffffffffffffffffffffffffffffffff16815260200190815260200160002060016006805490506116729190614e0c565b90806001815401808255809150506001900390600052602060002001600090919091909150557f300ba531146acd329b6e832e2f338461d3ffec465e58c23174e82b21a605d6fb813387868b8b6040516116d196959493929190614935565b60405180910390a150505050505050565b60116020528060005260406000206000915090505481565b606080606060006007600087815260200190815260200160002060008681526020019081526020016000206001018054905090508067ffffffffffffffff81111561176e577f4e487b7100000000000000000000000000000000000000000000000000000000600052604160045260246000fd5b60405190808252806020026020018201604052801561179c5781602001602082028036833780820191505090505b5091508067ffffffffffffffff8111156117df577f4e487b7100000000000000000000000000000000000000000000000000000000600052604160045260246000fd5b60405190808252806020026020018201604052801561180d5781602001602082028036833780820191505090505b5092508067ffffffffffffffff811115611850577f4e487b7100000000000000000000000000000000000000000000000000000000600052604160045260246000fd5b60405190808252806020026020018201604052801561187e5781602001602082028036833780820191505090505b50935060005b81811015611ae65760006006600760008a8152602001908152602001600020600089815260200190815260200160002060010183815481106118ef577f4e487b7100000000000000000000000000000000000000000000000000000000600052603260045260246000fd5b906000526020600020015481548110611931577f4e487b7100000000000000000000000000000000000000000000000000000000600052603260045260246000fd5b906000526020600020906004020190508060000160009054906101000a900473ffffffffffffffffffffffffffffffffffffffff1684838151811061199f577f4e487b7100000000000000000000000000000000000000000000000000000000600052603260045260246000fd5b602002602001019073ffffffffffffffffffffffffffffffffffffffff16908173ffffffffffffffffffffffffffffffffffffffff16815250508060010154858381518110611a17577f4e487b7100000000000000000000000000000000000000000000000000000000600052603260045260246000fd5b6020026020010181815250506007600089815260200190815260200160002060008881526020019081526020016000206001018281548110611a82577f4e487b7100000000000000000000000000000000000000000000000000000000600052603260045260246000fd5b9060005260206000200154868381518110611ac6577f4e487b7100000000000000000000000000000000000000000000000000000000600052603260045260246000fd5b602002602001018181525050508080611ade90614f5b565b915050611884565b50509250925092565b600060606000806002600186611b059190614e0c565b81548110611b3c577f4e487b7100000000000000000000000000000000000000000000000000000000600052603260045260246000fd5b9060005260206000209060020201905084816000018260010154818054611b6290614ede565b80601f0160208091040260200160405190810160405280929190818152602001828054611b8e90614ede565b8015611bdb5780601f10611bb057610100808354040283529160200191611bdb565b820191906000526020600020905b815481529060010190602001808311611bbe57829003601f168201915b50505050509150935093509350509193909250565b60606000606060048481548110611c30577f4e487b7100000000000000000000000000000000000000000000000000000000600052603260045260246000fd5b90600052602060002090600402016003018054611c4c90614ede565b80601f0160208091040260200160405190810160405280929190818152602001828054611c7890614ede565b8015611cc55780601f10611c9a57610100808354040283529160200191611cc5565b820191906000526020600020905b815481529060010190602001808311611ca857829003601f168201915b5050505050925060048481548110611d06577f4e487b7100000000000000000000000000000000000000000000000000000000600052603260045260246000fd5b906000526020600020906004020160020160009054906101000a900473ffffffffffffffffffffffffffffffffffffffff16915060048481548110611d74577f4e487b7100000000000000000000000000000000000000000000000000000000600052603260045260246000fd5b9060005260206000209060040201600101805480602002602001604051908101604052809291908181526020018280548015611dcf57602002820191906000526020600020905b815481526020019060010190808311611dbb575b505050505090509193909250565b600080611deb8385336135bf565b90508091505092915050565b6060600560008373ffffffffffffffffffffffffffffffffffffffff1673ffffffffffffffffffffffffffffffffffffffff168152602001908152602001600020805480602002602001604051908101604052809291908181526020018280548015611e8257602002820191906000526020600020905b815481526020019060010190808311611e6e575b50505050509050919050565b6001818051602081018201805184825260208301602085012081835280955050505050506000915054906101000a900460ff1681565b600080600084815260200190815260200160002060000160008373ffffffffffffffffffffffffffffffffffffffff1673ffffffffffffffffffffffffffffffffffffffff16815260200190815260200160002060009054906101000a900460ff16905092915050565b6000600280549050905090565b611f486000801b826123d1565b50565b6000801b81565b6000600560008373ffffffffffffffffffffffffffffffffffffffff1673ffffffffffffffffffffffffffffffffffffffff168152602001908152602001600020805490509050919050565b7fa807086040659eb7db9d31549a4199b0f7dd99f763c671636e80d5e5dc36a5d081565b600060068381548110611ffe577f4e487b7100000000000000000000000000000000000000000000000000000000600052603260045260246000fd5b906000526020600020906004020190503373ffffffffffffffffffffffffffffffffffffffff168160000160009054906101000a900473ffffffffffffffffffffffffffffffffffffffff1673ffffffffffffffffffffffffffffffffffffffff16146120a0576040517f08c379a00000000000000000000000000000000000000000000000000000000081526004016120979061475a565b60405180910390fd5b81601160003373ffffffffffffffffffffffffffffffffffffffff1673ffffffffffffffffffffffffffffffffffffffff168152602001908152602001600020541015612122576040517f08c379a00000000000000000000000000000000000000000000000000000000081526004016121199061483a565b60405180910390fd5b600060076000836002015481526020019081526020016000206000836003015481526020019081526020016000209050600061216384846002015433613478565b9050808260000160008282546121799190614d2b565b92505081905550808360010160008282546121949190614d2b565b925050819055507f26337e00f2cd705c2bbfe3c2e16202188fefd48f4acc43e675f71fcab2dac2558585836040516121ce93929190614b86565b60405180910390a15050505050565b6121ea6000801b82610c80565b50565b6000600480549050905090565b600060068381548110612236577f4e487b7100000000000000000000000000000000000000000000000000000000600052603260045260246000fd5b906000526020600020906004020190503373ffffffffffffffffffffffffffffffffffffffff168160000160009054906101000a900473ffffffffffffffffffffffffffffffffffffffff1673ffffffffffffffffffffffffffffffffffffffff16146122d8576040517f08c379a00000000000000000000000000000000000000000000000000000000081526004016122cf9061475a565b60405180910390fd5b818160010160008282546122ec9190614e0c565b9250508190555081601160003373ffffffffffffffffffffffffffffffffffffffff1673ffffffffffffffffffffffffffffffffffffffff16815260200190815260200160002060008282546123429190614d2b565b9250508190555081600760008360020154815260200190815260200160002060008360030154815260200190815260200160002060000160008282546123889190614e0c565b925050819055507f071932e6797cdba19e146aaa951d635a315b689e2de7372ec085586dcdac0e1c8160010154836040516123c4929190614b26565b60405180910390a1505050565b6123ea6123dd83610ba1565b6123e5612709565b611ec4565b612429576040517f08c379a0000000000000000000000000000000000000000000000000000000008152600401612420906147fa565b60405180910390fd5b61243382826127f1565b5050565b6124617fa807086040659eb7db9d31549a4199b0f7dd99f763c671636e80d5e5dc36a5d033611ec4565b6124a0576040517f08c379a00000000000000000000000000000000000000000000000000000000081526004016124979061479a565b60405180910390fd5b60006001836124af9190614e0c565b90506000600282815481106124ed577f4e487b7100000000000000000000000000000000000000000000000000000000600052603260045260246000fd5b9060005260206000209060020201905060011515600182600001604051612514919061452e565b908152602001604051809103902060009054906101000a900460ff16151514612572576040517f08c379a00000000000000000000000000000000000000000000000000000000081526004016125699061477a565b60405180910390fd5b8281600101819055507f1ffacb3972e8e436e2bb97df843a31836e41fd8f548dd1c6d3cf32c9b70c51a982826000018360010154336040516125b79493929190614ada565b60405180910390a150505050565b6000601160008373ffffffffffffffffffffffffffffffffffffffff1673ffffffffffffffffffffffffffffffffffffffff168152602001908152602001600020549050919050565b6126387fa807086040659eb7db9d31549a4199b0f7dd99f763c671636e80d5e5dc36a5d082610c80565b50565b6126657fa807086040659eb7db9d31549a4199b0f7dd99f763c671636e80d5e5dc36a5d0826123d1565b50565b6060600c60008381526020019081526020016000208054806020026020016040519081016040528092919081815260200182805480156126fd57602002820191906000526020600020905b8160009054906101000a900473ffffffffffffffffffffffffffffffffffffffff1673ffffffffffffffffffffffffffffffffffffffff16815260200190600101908083116126b3575b50505050509050919050565b600033905090565b61271b8282611ec4565b6127ed57600160008084815260200190815260200160002060000160008373ffffffffffffffffffffffffffffffffffffffff1673ffffffffffffffffffffffffffffffffffffffff16815260200190815260200160002060006101000a81548160ff021916908315150217905550612792612709565b73ffffffffffffffffffffffffffffffffffffffff168173ffffffffffffffffffffffffffffffffffffffff16837f2f8788117e7eff1d82e926ec794901d17c78024a50270940304540a733656f0d60405160405180910390a45b5050565b6127fb8282611ec4565b156128ce57600080600084815260200190815260200160002060000160008373ffffffffffffffffffffffffffffffffffffffff1673ffffffffffffffffffffffffffffffffffffffff16815260200190815260200160002060006101000a81548160ff021916908315150217905550612873612709565b73ffffffffffffffffffffffffffffffffffffffff168173ffffffffffffffffffffffffffffffffffffffff16837ff6391f5c32d9c69d2a47ea670b442974b53935d1edc7fd64eb21e047a839171b60405160405180910390a45b5050565b6001151560086000868152602001908152602001600020600085815260200190815260200160002060009054906101000a900460ff1615151461294a576040517f08c379a0000000000000000000000000000000000000000000000000000000008152600401612941906147ba565b60405180910390fd5b3373ffffffffffffffffffffffffffffffffffffffff166004858154811061299b577f4e487b7100000000000000000000000000000000000000000000000000000000600052603260045260246000fd5b906000526020600020906004020160020160009054906101000a900473ffffffffffffffffffffffffffffffffffffffff1673ffffffffffffffffffffffffffffffffffffffff1614612a23576040517f08c379a0000000000000000000000000000000000000000000000000000000008152600401612a1a9061489a565b60405180910390fd5b8260048581548110612a5e577f4e487b7100000000000000000000000000000000000000000000000000000000600052603260045260246000fd5b90600052602060002090600402016001018381548110612aa7577f4e487b7100000000000000000000000000000000000000000000000000000000600052603260045260246000fd5b906000526020600020015414612af2576040517f08c379a0000000000000000000000000000000000000000000000000000000008152600401612ae9906148da565b60405180910390fd5b83600a600085815260200190815260200160002060003373ffffffffffffffffffffffffffffffffffffffff1673ffffffffffffffffffffffffffffffffffffffff1681526020019081526020016000208281548110612b7b577f4e487b7100000000000000000000000000000000000000000000000000000000600052603260045260246000fd5b906000526020600020015414612bc6576040517f08c379a0000000000000000000000000000000000000000000000000000000008152600401612bbd9061485a565b60405180910390fd5b600060086000868152602001908152602001600020600085815260200190815260200160002060006101000a81548160ff02191690831515021790555060048481548110612c3d577f4e487b7100000000000000000000000000000000000000000000000000000000600052603260045260246000fd5b9060005260206000209060040201600101600160048681548110612c8a577f4e487b7100000000000000000000000000000000000000000000000000000000600052603260045260246000fd5b906000526020600020906004020160010180549050612ca99190614e0c565b81548110612ce0577f4e487b7100000000000000000000000000000000000000000000000000000000600052603260045260246000fd5b906000526020600020015460048581548110612d25577f4e487b7100000000000000000000000000000000000000000000000000000000600052603260045260246000fd5b90600052602060002090600402016001018381548110612d6e577f4e487b7100000000000000000000000000000000000000000000000000000000600052603260045260246000fd5b906000526020600020018190555060048481548110612db6577f4e487b7100000000000000000000000000000000000000000000000000000000600052603260045260246000fd5b9060005260206000209060040201600101805480612dfd577f4e487b7100000000000000000000000000000000000000000000000000000000600052603160045260246000fd5b60019003818190600052602060002001600090559055600a600084815260200190815260200160002060003373ffffffffffffffffffffffffffffffffffffffff1673ffffffffffffffffffffffffffffffffffffffff1681526020019081526020016000206001600a600086815260200190815260200160002060003373ffffffffffffffffffffffffffffffffffffffff1673ffffffffffffffffffffffffffffffffffffffff16815260200190815260200160002080549050612ec39190614e0c565b81548110612efa577f4e487b7100000000000000000000000000000000000000000000000000000000600052603260045260246000fd5b9060005260206000200154600a600085815260200190815260200160002060003373ffffffffffffffffffffffffffffffffffffffff1673ffffffffffffffffffffffffffffffffffffffff1681526020019081526020016000208281548110612f8d577f4e487b7100000000000000000000000000000000000000000000000000000000600052603260045260246000fd5b9060005260206000200181905550600a600084815260200190815260200160002060003373ffffffffffffffffffffffffffffffffffffffff1673ffffffffffffffffffffffffffffffffffffffff168152602001908152602001600020805480613021577f4e487b7100000000000000000000000000000000000000000000000000000000600052603160045260246000fd5b600190038181906000526020600020016000905590557f027dd7071e2a04e9c5eaabd02ace2b8c700a4eb05b5c4bd4e27bd7b11fbd8c1b8484600060405161306b93929190614b4f565b60405180910390a150505050565b6000151560086000848152602001908152602001600020600083815260200190815260200160002060009054906101000a900460ff161515146130f1576040517f08c379a00000000000000000000000000000000000000000000000000000000081526004016130e8906148ba565b60405180910390fd5b3373ffffffffffffffffffffffffffffffffffffffff1660048381548110613142577f4e487b7100000000000000000000000000000000000000000000000000000000600052603260045260246000fd5b906000526020600020906004020160020160009054906101000a900473ffffffffffffffffffffffffffffffffffffffff1673ffffffffffffffffffffffffffffffffffffffff16146131ca576040517f08c379a00000000000000000000000000000000000000000000000000000000081526004016131c19061489a565b60405180910390fd5b60001515600b600083815260200190815260200160002060003373ffffffffffffffffffffffffffffffffffffffff1673ffffffffffffffffffffffffffffffffffffffff16815260200190815260200160002060009054906101000a900460ff1615151415613312576001600b600083815260200190815260200160002060003373ffffffffffffffffffffffffffffffffffffffff1673ffffffffffffffffffffffffffffffffffffffff16815260200190815260200160002060006101000a81548160ff021916908315150217905550600c6000828152602001908152602001600020339080600181540180825580915050600190039060005260206000200160009091909190916101000a81548173ffffffffffffffffffffffffffffffffffffffff021916908373ffffffffffffffffffffffffffffffffffffffff1602179055505b600160086000848152602001908152602001600020600083815260200190815260200160002060006101000a81548160ff021916908315150217905550600a600082815260200190815260200160002060003373ffffffffffffffffffffffffffffffffffffffff1673ffffffffffffffffffffffffffffffffffffffff16815260200190815260200160002082908060018154018082558091505060019003906000526020600020016000909190919091505560048281548110613400577f4e487b7100000000000000000000000000000000000000000000000000000000600052603260045260246000fd5b90600052602060002090600402016001018190806001815401808255809150506001900390600052602060002001600090919091909150557f027dd7071e2a04e9c5eaabd02ace2b8c700a4eb05b5c4bd4e27bd7b11fbd8c1b8282600160405161346c93929190614b4f565b60405180910390a15050565b60008061348a60105486600f546137a9565b90506000818661349a9190614e0c565b905085601160008673ffffffffffffffffffffffffffffffffffffffff1673ffffffffffffffffffffffffffffffffffffffff16815260200190815260200160002060008282546134eb9190614e0c565b92505081905550816011600060048881548110613531577f4e487b7100000000000000000000000000000000000000000000000000000000600052603260045260246000fd5b906000526020600020906004020160020160009054906101000a900473ffffffffffffffffffffffffffffffffffffffff1673ffffffffffffffffffffffffffffffffffffffff1673ffffffffffffffffffffffffffffffffffffffff16815260200190815260200160002060008282546135ac9190614d2b565b9250508190555080925050509392505050565b600080604051806080016040528060035481526020018581526020018473ffffffffffffffffffffffffffffffffffffffff168152602001868152509050600481908060018154018082558091505060019003906000526020600020906004020160009091909190915060008201518160000155602082015181600101908051906020019061364f929190613868565b5060408201518160020160006101000a81548173ffffffffffffffffffffffffffffffffffffffff021916908373ffffffffffffffffffffffffffffffffffffffff16021790555060608201518160030190805190602001906136b39291906137e2565b505050600560008473ffffffffffffffffffffffffffffffffffffffff1673ffffffffffffffffffffffffffffffffffffffff168152602001908152602001600020816000015190806001815401808255809150506001900390600052602060002001600090919091909150556003600081548092919061373390614f5b565b9190505550806040015173ffffffffffffffffffffffffffffffffffffffff167f8b910af69fb425b0e128bb4984faa10fe80c4c5cc9988b195d287772e4d3e94982600001518360200151846060015160405161379293929190614996565b60405180910390a280600001519150509392505050565b60006064826137b89190614db2565b8285856137c59190614db2565b6137cf9190614db2565b6137d99190614d81565b90509392505050565b8280546137ee90614ede565b90600052602060002090601f0160209004810192826138105760008555613857565b82601f1061382957805160ff1916838001178555613857565b82800160010185558215613857579182015b8281111561385657825182559160200191906001019061383b565b5b50905061386491906138b5565b5090565b8280548282559060005260206000209081019282156138a4579160200282015b828111156138a3578251825591602001919060010190613888565b5b5090506138b191906138b5565b5090565b5b808211156138ce5760008160009055506001016138b6565b5090565b60006138e56138e084614be2565b614bbd565b9050808382526020820190508285602086028201111561390457600080fd5b60005b85811015613934578161391a8882613a44565b845260208401935060208301925050600181019050613907565b5050509392505050565b600061395161394c84614c0e565b614bbd565b90508281526020810184848401111561396957600080fd5b613974848285614e9c565b509392505050565b60008135905061398b816153bc565b92915050565b600082601f8301126139a257600080fd5b81356139b28482602086016138d2565b91505092915050565b6000813590506139ca816153d3565b92915050565b60008083601f8401126139e257600080fd5b8235905067ffffffffffffffff8111156139fb57600080fd5b602083019150836001820283011115613a1357600080fd5b9250929050565b600082601f830112613a2b57600080fd5b8135613a3b84826020860161393e565b91505092915050565b600081359050613a53816153ea565b92915050565b600081519050613a68816153ea565b92915050565b600060208284031215613a8057600080fd5b6000613a8e8482850161397c565b91505092915050565b60008060008060008060008060c0898b031215613ab357600080fd5b6000613ac18b828c0161397c565b9850506020613ad28b828c0161397c565b9750506040613ae38b828c0161397c565b9650506060613af48b828c01613a44565b955050608089013567ffffffffffffffff811115613b1157600080fd5b613b1d8b828c016139d0565b945094505060a089013567ffffffffffffffff811115613b3c57600080fd5b613b488b828c016139d0565b92509250509295985092959890939650565b600080600080600060a08688031215613b7257600080fd5b600086013567ffffffffffffffff811115613b8c57600080fd5b613b9888828901613991565b955050602086013567ffffffffffffffff811115613bb557600080fd5b613bc188828901613991565b945050604086013567ffffffffffffffff811115613bde57600080fd5b613bea88828901613991565b935050606086013567ffffffffffffffff811115613c0757600080fd5b613c1388828901613991565b9250506080613c2488828901613a44565b9150509295509295909350565b60008060408385031215613c4457600080fd5b600083013567ffffffffffffffff811115613c5e57600080fd5b613c6a85828601613991565b925050602083013567ffffffffffffffff811115613c8757600080fd5b613c9385828601613a1a565b9150509250929050565b60008060408385031215613cb057600080fd5b600083013567ffffffffffffffff811115613cca57600080fd5b613cd685828601613991565b9250506020613ce785828601613a44565b9150509250929050565b600060208284031215613d0357600080fd5b6000613d11848285016139bb565b91505092915050565b60008060408385031215613d2d57600080fd5b6000613d3b858286016139bb565b9250506020613d4c8582860161397c565b9150509250929050565b600060208284031215613d6857600080fd5b600082013567ffffffffffffffff811115613d8257600080fd5b613d8e84828501613a1a565b91505092915050565b60008060408385031215613daa57600080fd5b600083013567ffffffffffffffff811115613dc457600080fd5b613dd085828601613a1a565b9250506020613de185828601613a44565b9150509250929050565b600060208284031215613dfd57600080fd5b6000613e0b84828501613a44565b91505092915050565b600060208284031215613e2657600080fd5b6000613e3484828501613a59565b91505092915050565b60008060408385031215613e5057600080fd5b6000613e5e85828601613a44565b9250506020613e6f8582860161397c565b9150509250929050565b600080600060608486031215613e8e57600080fd5b6000613e9c86828701613a44565b935050602084013567ffffffffffffffff811115613eb957600080fd5b613ec586828701613991565b925050604084013567ffffffffffffffff811115613ee257600080fd5b613eee86828701613a1a565b9150509250925092565b60008060408385031215613f0b57600080fd5b6000613f1985828601613a44565b9250506020613f2a85828601613a44565b9150509250929050565b600080600060608486031215613f4957600080fd5b6000613f5786828701613a44565b9350506020613f6886828701613a44565b9250506040613f7986828701613a44565b9150509250925092565b6000613f8f8383613fb3565b60208301905092915050565b6000613fa783836144f9565b60208301905092915050565b613fbc81614e4a565b82525050565b613fcb81614e4a565b82525050565b6000613fdc82614c89565b613fe68185614cdc565b9350613ff183614c3f565b8060005b838110156140225781516140098882613f83565b975061401483614cb5565b925050600181019050613ff5565b5085935050505092915050565b600061403a82614c94565b6140448185614ced565b935061404f83614c4f565b8060005b838110156140805781516140678882613f9b565b975061407283614cc2565b925050600181019050614053565b5085935050505092915050565b600061409882614c9f565b6140a28185614ced565b93506140ad83614c5f565b8060005b838110156140e5576140c282615060565b6140cc8882613f9b565b97506140d783614ccf565b9250506001810190506140b1565b5085935050505092915050565b6140fb81614e5c565b82525050565b61410a81614e68565b82525050565b600061411c8385614cfe565b9350614129838584614e9c565b61413283615073565b840190509392505050565b600061414882614caa565b6141528185614d0f565b9350614162818560208601614eab565b61416b81615073565b840191505092915050565b600061418182614caa565b61418b8185614d20565b935061419b818560208601614eab565b80840191505092915050565b600081546141b481614ede565b6141be8186614d0f565b945060018216600081146141d957600181146141eb5761421e565b60ff198316865260208601935061421e565b6141f485614c74565b60005b83811015614216578154818901526001820191506020810190506141f7565b808801955050505b50505092915050565b6000815461423481614ede565b61423e8186614d20565b94506001821660008114614259576001811461426a5761429d565b60ff1983168652818601935061429d565b61427385614c74565b60005b8381101561429557815481890152600182019150602081019050614276565b838801955050505b50505092915050565b60006142b3602183614d0f565b91506142be82615091565b604082019050919050565b60006142d6602f83614d0f565b91506142e1826150e0565b604082019050919050565b60006142f9601983614d0f565b91506143048261512f565b602082019050919050565b600061431c601283614d0f565b915061432782615158565b602082019050919050565b600061433f601683614d0f565b915061434a82615181565b602082019050919050565b6000614362601383614d0f565b915061436d826151aa565b602082019050919050565b6000614385601d83614d0f565b9150614390826151d3565b602082019050919050565b60006143a8603083614d0f565b91506143b3826151fc565b604082019050919050565b60006143cb601483614d0f565b91506143d68261524b565b602082019050919050565b60006143ee601a83614d0f565b91506143f982615274565b602082019050919050565b6000614411601b83614d0f565b915061441c8261529d565b602082019050919050565b6000614434600083614cfe565b915061443f826152c6565b600082019050919050565b6000614457601283614d0f565b9150614462826152c9565b602082019050919050565b600061447a602083614d0f565b9150614485826152f2565b602082019050919050565b600061449d601783614d0f565b91506144a88261531b565b602082019050919050565b60006144c0601983614d0f565b91506144cb82615344565b602082019050919050565b60006144e3602f83614d0f565b91506144ee8261536d565b604082019050919050565b61450281614e92565b82525050565b61451181614e92565b82525050565b60006145238284614176565b915081905092915050565b600061453a8284614227565b915081905092915050565b600060208201905061455a6000830184613fc2565b92915050565b600060c082019050614575600083018b613fc2565b614582602083018a613fc2565b61458f6040830189613fc2565b61459c6060830188614508565b81810360808301526145af818688614110565b905081810360a08301526145c4818486614110565b90509998505050505050505050565b60006060820190506145e86000830185613fc2565b6145f56020830184614508565b818103604083015261460681614427565b90509392505050565b600060208201905081810360008301526146298184613fd1565b905092915050565b6000602082019050818103600083015261464b818461402f565b905092915050565b6000606082019050818103600083015261466d818661402f565b90508181036020830152614681818561402f565b905081810360408301526146958184613fd1565b9050949350505050565b60006020820190506146b460008301846140f2565b92915050565b60006020820190506146cf6000830184614101565b92915050565b600060608201905081810360008301526146ef818661413d565b90506146fe6020830185613fc2565b8181036040830152614710818461402f565b9050949350505050565b60006020820190508181036000830152614733816142a6565b9050919050565b60006020820190508181036000830152614753816142c9565b9050919050565b60006020820190508181036000830152614773816142ec565b9050919050565b600060208201905081810360008301526147938161430f565b9050919050565b600060208201905081810360008301526147b381614332565b9050919050565b600060208201905081810360008301526147d381614355565b9050919050565b600060208201905081810360008301526147f381614378565b9050919050565b600060208201905081810360008301526148138161439b565b9050919050565b60006020820190508181036000830152614833816143be565b9050919050565b60006020820190508181036000830152614853816143e1565b9050919050565b6000602082019050818103600083015261487381614404565b9050919050565b600060208201905081810360008301526148938161444a565b9050919050565b600060208201905081810360008301526148b38161446d565b9050919050565b600060208201905081810360008301526148d381614490565b9050919050565b600060208201905081810360008301526148f3816144b3565b9050919050565b60006020820190508181036000830152614913816144d6565b9050919050565b600060208201905061492f6000830184614508565b92915050565b600060c08201905061494a6000830189614508565b6149576020830188613fc2565b6149646040830187614508565b6149716060830186614508565b61497e6080830185614508565b61498b60a0830184614508565b979650505050505050565b60006060820190506149ab6000830186614508565b81810360208301526149bd818561402f565b905081810360408301526149d1818461413d565b9050949350505050565b60006040820190506149f06000830185614508565b8181036020830152614a02818461408d565b90509392505050565b6000606082019050614a206000830186614508565b8181036020830152614a32818561408d565b90508181036040830152614a4681846141a7565b9050949350505050565b6000606082019050614a656000830186614508565b8181036020830152614a77818561413d565b9050614a866040830184614508565b949350505050565b6000608082019050614aa36000830187614508565b8181036020830152614ab5818661413d565b9050614ac46040830185614508565b614ad16060830184613fc2565b95945050505050565b6000608082019050614aef6000830187614508565b8181036020830152614b0181866141a7565b9050614b106040830185614508565b614b1d6060830184613fc2565b95945050505050565b6000604082019050614b3b6000830185614508565b614b486020830184614508565b9392505050565b6000606082019050614b646000830186614508565b614b716020830185614508565b614b7e60408301846140f2565b949350505050565b6000606082019050614b9b6000830186614508565b614ba86020830185614508565b614bb56040830184614508565b949350505050565b6000614bc7614bd8565b9050614bd38282614f2a565b919050565b6000604051905090565b600067ffffffffffffffff821115614bfd57614bfc615031565b5b602082029050602081019050919050565b600067ffffffffffffffff821115614c2957614c28615031565b5b614c3282615073565b9050602081019050919050565b6000819050602082019050919050565b6000819050602082019050919050565b60008190508160005260206000209050919050565b60008190508160005260206000209050919050565b600081519050919050565b600081519050919050565b600081549050919050565b600081519050919050565b6000602082019050919050565b6000602082019050919050565b6000600182019050919050565b600082825260208201905092915050565b600082825260208201905092915050565b600082825260208201905092915050565b600082825260208201905092915050565b600081905092915050565b6000614d3682614e92565b9150614d4183614e92565b9250827fffffffffffffffffffffffffffffffffffffffffffffffffffffffffffffffff03821115614d7657614d75614fa4565b5b828201905092915050565b6000614d8c82614e92565b9150614d9783614e92565b925082614da757614da6614fd3565b5b828204905092915050565b6000614dbd82614e92565b9150614dc883614e92565b9250817fffffffffffffffffffffffffffffffffffffffffffffffffffffffffffffffff0483118215151615614e0157614e00614fa4565b5b828202905092915050565b6000614e1782614e92565b9150614e2283614e92565b925082821015614e3557614e34614fa4565b5b828203905092915050565b6000819050919050565b6000614e5582614e72565b9050919050565b60008115159050919050565b6000819050919050565b600073ffffffffffffffffffffffffffffffffffffffff82169050919050565b6000819050919050565b82818337600083830152505050565b60005b83811015614ec9578082015181840152602081019050614eae565b83811115614ed8576000848401525b50505050565b60006002820490506001821680614ef657607f821691505b60208210811415614f0a57614f09615002565b5b50919050565b6000614f23614f1e83615084565b614e40565b9050919050565b614f3382615073565b810181811067ffffffffffffffff82111715614f5257614f51615031565b5b80604052505050565b6000614f6682614e92565b91507fffffffffffffffffffffffffffffffffffffffffffffffffffffffffffffffff821415614f9957614f98614fa4565b5b600182019050919050565b7f4e487b7100000000000000000000000000000000000000000000000000000000600052601160045260246000fd5b7f4e487b7100000000000000000000000000000000000000000000000000000000600052601260045260246000fd5b7f4e487b7100000000000000000000000000000000000000000000000000000000600052602260045260246000fd5b7f4e487b7100000000000000000000000000000000000000000000000000000000600052604160045260246000fd5b600061506c8254614f10565b9050919050565b6000601f19601f8301169050919050565b60008160001c9050919050565b7f53696d706c65373737526563697069656e743a20496e76616c696420746f6b6560008201527f6e00000000000000000000000000000000000000000000000000000000000000602082015250565b7f416363657373436f6e74726f6c3a2073656e646572206d75737420626520616e60008201527f2061646d696e20746f206772616e740000000000000000000000000000000000602082015250565b7f5374616b65206e6f74206f776e65642062792073656e64657200000000000000600082015250565b7f54616720646f6573206e6f742065786973740000000000000000000000000000600082015250565b7f43616c6c6572206973206e6f7420612074616767657200000000000000000000600082015250565b7f546f706963206973206e6f742074616767656400000000000000000000000000600082015250565b7f5461672043616e6e6f7420626520616e20656d70747920737472696e67000000600082015250565b7f416363657373436f6e74726f6c3a2073656e646572206d75737420626520616e60008201527f2061646d696e20746f207265766f6b6500000000000000000000000000000000602082015250565b7f546f706963206d75737420626520746167676564000000000000000000000000600082015250565b7f496e73756666696369656e7420746f6b656e2062616c616e6365000000000000600082015250565b7f546f70696320696420616e6420696e646578206d69736d617463680000000000600082015250565b50565b7f54616720616c7265616479206578697374730000000000000000000000000000600082015250565b7f4f6e6c7920746f706963206f776e65722063616e207570646174652074616773600082015250565b7f546f70696320697320616c726561647920746167676564000000000000000000600082015250565b7f54616720696420616e6420696e646578206d69736d6174636800000000000000600082015250565b7f416363657373436f6e74726f6c3a2063616e206f6e6c792072656e6f756e636560008201527f20726f6c657320666f722073656c660000000000000000000000000000000000602082015250565b6153c581614e4a565b81146153d057600080fd5b50565b6153dc81614e68565b81146153e757600080fd5b50565b6153f381614e92565b81146153fe57600080fd5b5056fea264697066735822122091f8c0ed86398b478e665b92ee4ed4e3fc92db035c4679c2f1f220cc59badfd964736f6c63430008010033",
  "immutableReferences": {},
  "source": "pragma solidity ^0.8.0;\n\nimport \"openzeppelin-solidity/contracts/token/ERC777/IERC777Recipient.sol\";\nimport './Stake.sol';\nimport \"./ERC1820Client.sol\";\n\ncontract Algernon is IERC777Recipient, Stake, ERC1820Client {\n  address owner;\n  IERC777  private _token;\n\n  event TokensReceived(address operator, address from, address to, uint256 amount, bytes userData, bytes operatorData);\n  event TokensSent(address operator, address from, address to, uint256 amount, bytes userData, bytes operatorData);\n\n  constructor (address _tokenAddress) {\n    owner = msg.sender;\n    _token = IERC777(_tokenAddress);\n    setInterfaceImplementation(\"ERC777TokensRecipient\", address(this));\n\n  }\n\n  function createTopic(uint256[] memory _tagIds, string memory fileName) public returns (uint) {\n    uint topicId = createUserTopic(fileName, _tagIds, msg.sender);\n\n    return topicId;\n  }\n\n  function getContractTokenBalance() public view returns (uint256) {\n    return IERC777(TOKEN_ADDRESS).balanceOf(address(this));\n  }\n\n  function getAlgernonTokenBalance(address _account) public view returns (uint) {\n    return tokenBalances[_account];\n  }\n\n  function withdrawTokens(uint _amt) public {\n    require(tokenBalances[msg.sender] >= _amt, 'Insufficient token balance');\n    tokenBalances[msg.sender] -= _amt;\n    IERC777(TOKEN_ADDRESS).send(msg.sender, _amt, \"\");\n  }\n\n  function tokensReceived(\n    address operator,\n    address from,\n    address to,\n    uint256 amount,\n    bytes calldata userData,\n    bytes calldata operatorData\n  ) external override {\n    require(msg.sender == address(_token), \"Simple777Recipient: Invalid token\");\n\n    tokenBalances[from] += amount;\n\n    emit TokensReceived(operator, from, to, amount, userData, operatorData);\n  }\n }\n",
  "sourcePath": "/home/steve/codes/algernon_dapp/contracts/contracts/Algernon.sol",
  "compiler": {
    "name": "solc",
    "version": "0.8.1+commit.df193b15.Emscripten.clang"
  },
  "schemaVersion": "3.3.2",
  "updatedAt": "2021-03-02T01:44:17.829Z",
  "devdoc": {
    "kind": "dev",
    "methods": {
      "getRoleAdmin(bytes32)": {
        "details": "Returns the admin role that controls `role`. See {grantRole} and {revokeRole}. To change a role's admin, use {_setRoleAdmin}."
      },
      "grantRole(bytes32,address)": {
        "details": "Grants `role` to `account`. If `account` had not been already granted `role`, emits a {RoleGranted} event. Requirements: - the caller must have ``role``'s admin role."
      },
      "hasRole(bytes32,address)": {
        "details": "Returns `true` if `account` has been granted `role`."
      },
      "renounceRole(bytes32,address)": {
        "details": "Revokes `role` from the calling account. Roles are often managed via {grantRole} and {revokeRole}: this function's purpose is to provide a mechanism for accounts to lose their privileges if they are compromised (such as when a trusted device is misplaced). If the calling account had been granted `role`, emits a {RoleRevoked} event. Requirements: - the caller must be `account`."
      },
      "revokeRole(bytes32,address)": {
        "details": "Revokes `role` from `account`. If `account` had been granted `role`, emits a {RoleRevoked} event. Requirements: - the caller must have ``role``'s admin role."
      },
      "tokensReceived(address,address,address,uint256,bytes,bytes)": {
        "details": "Called by an {IERC777} token contract whenever tokens are being moved or created into a registered account (`to`). The type of operation is conveyed by `from` being the zero address or not. This call occurs _after_ the token contract's state is updated, so {IERC777-balanceOf}, etc., can be used to query the post-operation state. This function may revert to prevent the operation from being executed."
      }
    },
    "version": 1
  },
  "userdoc": {
    "kind": "user",
    "methods": {},
    "version": 1
  }
}