{
  "contractName": "Algernon",
  "abi": [
    {
      "inputs": [
        {
          "internalType": "address",
          "name": "_tokenAddress",
          "type": "address"
        }
      ],
      "stateMutability": "nonpayable",
      "type": "constructor"
    },
    {
      "anonymous": false,
      "inputs": [
        {
          "indexed": true,
          "internalType": "bytes32",
          "name": "role",
          "type": "bytes32"
        },
        {
          "indexed": true,
          "internalType": "bytes32",
          "name": "previousAdminRole",
          "type": "bytes32"
        },
        {
          "indexed": true,
          "internalType": "bytes32",
          "name": "newAdminRole",
          "type": "bytes32"
        }
      ],
      "name": "RoleAdminChanged",
      "type": "event"
    },
    {
      "anonymous": false,
      "inputs": [
        {
          "indexed": true,
          "internalType": "bytes32",
          "name": "role",
          "type": "bytes32"
        },
        {
          "indexed": true,
          "internalType": "address",
          "name": "account",
          "type": "address"
        },
        {
          "indexed": true,
          "internalType": "address",
          "name": "sender",
          "type": "address"
        }
      ],
      "name": "RoleGranted",
      "type": "event"
    },
    {
      "anonymous": false,
      "inputs": [
        {
          "indexed": true,
          "internalType": "bytes32",
          "name": "role",
          "type": "bytes32"
        },
        {
          "indexed": true,
          "internalType": "address",
          "name": "account",
          "type": "address"
        },
        {
          "indexed": true,
          "internalType": "address",
          "name": "sender",
          "type": "address"
        }
      ],
      "name": "RoleRevoked",
      "type": "event"
    },
    {
      "anonymous": false,
      "inputs": [
        {
          "indexed": false,
          "internalType": "address",
          "name": "staker",
          "type": "address"
        },
        {
          "indexed": false,
          "internalType": "uint256",
          "name": "totalAmt",
          "type": "uint256"
        },
        {
          "indexed": false,
          "internalType": "uint256",
          "name": "stakeAmt",
          "type": "uint256"
        },
        {
          "indexed": false,
          "internalType": "uint256",
          "name": "topicId",
          "type": "uint256"
        },
        {
          "indexed": false,
          "internalType": "uint256",
          "name": "tagId",
          "type": "uint256"
        }
      ],
      "name": "StakeAdded",
      "type": "event"
    },
    {
      "anonymous": false,
      "inputs": [
        {
          "indexed": false,
          "internalType": "uint256",
          "name": "amt",
          "type": "uint256"
        },
        {
          "indexed": false,
          "internalType": "uint256",
          "name": "stakeIdx",
          "type": "uint256"
        }
      ],
      "name": "StakeUpdated",
      "type": "event"
    },
    {
      "anonymous": false,
      "inputs": [
        {
          "indexed": false,
          "internalType": "uint256",
          "name": "id",
          "type": "uint256"
        },
        {
          "indexed": false,
          "internalType": "string",
          "name": "tag",
          "type": "string"
        },
        {
          "indexed": false,
          "internalType": "uint256",
          "name": "parent",
          "type": "uint256"
        },
        {
          "indexed": false,
          "internalType": "address",
          "name": "addedBy",
          "type": "address"
        }
      ],
      "name": "TagAdded",
      "type": "event"
    },
    {
      "anonymous": false,
      "inputs": [
        {
          "indexed": false,
          "internalType": "uint256",
          "name": "id",
          "type": "uint256"
        },
        {
          "indexed": false,
          "internalType": "string",
          "name": "tag",
          "type": "string"
        },
        {
          "indexed": false,
          "internalType": "uint256",
          "name": "parent",
          "type": "uint256"
        },
        {
          "indexed": false,
          "internalType": "address",
          "name": "updatedBy",
          "type": "address"
        }
      ],
      "name": "TagUpdated",
      "type": "event"
    },
    {
      "anonymous": false,
      "inputs": [
        {
          "indexed": false,
          "internalType": "address",
          "name": "operator",
          "type": "address"
        },
        {
          "indexed": false,
          "internalType": "address",
          "name": "from",
          "type": "address"
        },
        {
          "indexed": false,
          "internalType": "address",
          "name": "to",
          "type": "address"
        },
        {
          "indexed": false,
          "internalType": "uint256",
          "name": "amount",
          "type": "uint256"
        },
        {
          "indexed": false,
          "internalType": "bytes",
          "name": "userData",
          "type": "bytes"
        },
        {
          "indexed": false,
          "internalType": "bytes",
          "name": "operatorData",
          "type": "bytes"
        }
      ],
      "name": "TokensReceived",
      "type": "event"
    },
    {
      "anonymous": false,
      "inputs": [
        {
          "indexed": false,
          "internalType": "address",
          "name": "operator",
          "type": "address"
        },
        {
          "indexed": false,
          "internalType": "address",
          "name": "from",
          "type": "address"
        },
        {
          "indexed": false,
          "internalType": "address",
          "name": "to",
          "type": "address"
        },
        {
          "indexed": false,
          "internalType": "uint256",
          "name": "amount",
          "type": "uint256"
        },
        {
          "indexed": false,
          "internalType": "bytes",
          "name": "userData",
          "type": "bytes"
        },
        {
          "indexed": false,
          "internalType": "bytes",
          "name": "operatorData",
          "type": "bytes"
        }
      ],
      "name": "TokensSent",
      "type": "event"
    },
    {
      "anonymous": false,
      "inputs": [
        {
          "indexed": false,
          "internalType": "uint256",
          "name": "id",
          "type": "uint256"
        },
        {
          "indexed": false,
          "internalType": "uint256[]",
          "name": "tagIds",
          "type": "uint256[]"
        },
        {
          "indexed": true,
          "internalType": "address",
          "name": "owner",
          "type": "address"
        },
        {
          "indexed": false,
          "internalType": "string",
          "name": "content",
          "type": "string"
        }
      ],
      "name": "TopicCreated",
      "type": "event"
    },
    {
      "anonymous": false,
      "inputs": [
        {
          "indexed": false,
          "internalType": "uint256",
          "name": "topicId",
          "type": "uint256"
        },
        {
          "indexed": false,
          "internalType": "uint256",
          "name": "tagId",
          "type": "uint256"
        },
        {
          "indexed": false,
          "internalType": "bool",
          "name": "added",
          "type": "bool"
        }
      ],
      "name": "TopicTagUpdated",
      "type": "event"
    },
    {
      "anonymous": false,
      "inputs": [
        {
          "indexed": false,
          "internalType": "uint256",
          "name": "id",
          "type": "uint256"
        },
        {
          "indexed": false,
          "internalType": "uint256[]",
          "name": "tagIds",
          "type": "uint256[]"
        }
      ],
      "name": "TopicTagsUpdated",
      "type": "event"
    },
    {
      "anonymous": false,
      "inputs": [
        {
          "indexed": false,
          "internalType": "uint256",
          "name": "id",
          "type": "uint256"
        },
        {
          "indexed": false,
          "internalType": "uint256[]",
          "name": "tagIds",
          "type": "uint256[]"
        },
        {
          "indexed": false,
          "internalType": "string",
          "name": "content",
          "type": "string"
        }
      ],
      "name": "TopicUpdated",
      "type": "event"
    },
    {
      "inputs": [],
      "name": "DEFAULT_ADMIN_ROLE",
      "outputs": [
        {
          "internalType": "bytes32",
          "name": "",
          "type": "bytes32"
        }
      ],
      "stateMutability": "view",
      "type": "function"
    },
    {
      "inputs": [],
      "name": "TAGGER_ROLE",
      "outputs": [
        {
          "internalType": "bytes32",
          "name": "",
          "type": "bytes32"
        }
      ],
      "stateMutability": "view",
      "type": "function"
    },
    {
      "inputs": [
        {
          "internalType": "uint256",
          "name": "_topicId",
          "type": "uint256"
        },
        {
          "internalType": "uint256",
          "name": "_tagId",
          "type": "uint256"
        },
        {
          "internalType": "uint256",
          "name": "_amt",
          "type": "uint256"
        }
      ],
      "name": "addStake",
      "outputs": [],
      "stateMutability": "nonpayable",
      "type": "function"
    },
    {
      "inputs": [
        {
          "internalType": "string",
          "name": "_tag",
          "type": "string"
        },
        {
          "internalType": "uint256",
          "name": "_parent",
          "type": "uint256"
        }
      ],
      "name": "addTag",
      "outputs": [],
      "stateMutability": "nonpayable",
      "type": "function"
    },
    {
      "inputs": [
        {
          "internalType": "bytes32",
          "name": "role",
          "type": "bytes32"
        }
      ],
      "name": "getRoleAdmin",
      "outputs": [
        {
          "internalType": "bytes32",
          "name": "",
          "type": "bytes32"
        }
      ],
      "stateMutability": "view",
      "type": "function"
    },
    {
      "inputs": [
        {
          "internalType": "uint256",
          "name": "_id",
          "type": "uint256"
        }
      ],
      "name": "getTag",
      "outputs": [
        {
          "internalType": "uint256",
          "name": "",
          "type": "uint256"
        },
        {
          "internalType": "string",
          "name": "",
          "type": "string"
        },
        {
          "internalType": "uint256",
          "name": "",
          "type": "uint256"
        }
      ],
      "stateMutability": "view",
      "type": "function"
    },
    {
      "inputs": [
        {
          "internalType": "uint256",
          "name": "_tagId",
          "type": "uint256"
        },
        {
          "internalType": "address",
          "name": "_address",
          "type": "address"
        }
      ],
      "name": "getTagAddressTopicIds",
      "outputs": [
        {
          "internalType": "uint256[]",
          "name": "",
          "type": "uint256[]"
        }
      ],
      "stateMutability": "view",
      "type": "function"
    },
    {
      "inputs": [
        {
          "internalType": "uint256",
          "name": "_tagId",
          "type": "uint256"
        }
      ],
      "name": "getTagAddresses",
      "outputs": [
        {
          "internalType": "address[]",
          "name": "",
          "type": "address[]"
        }
      ],
      "stateMutability": "view",
      "type": "function"
    },
    {
      "inputs": [],
      "name": "getTagCount",
      "outputs": [
        {
          "internalType": "uint256",
          "name": "",
          "type": "uint256"
        }
      ],
      "stateMutability": "view",
      "type": "function"
    },
    {
      "inputs": [
        {
          "internalType": "uint256",
          "name": "_id",
          "type": "uint256"
        }
      ],
      "name": "getTopic",
      "outputs": [
        {
          "internalType": "string",
          "name": "content",
          "type": "string"
        },
        {
          "internalType": "address",
          "name": "owner",
          "type": "address"
        },
        {
          "internalType": "uint256[]",
          "name": "tagIds",
          "type": "uint256[]"
        }
      ],
      "stateMutability": "view",
      "type": "function"
    },
    {
      "inputs": [],
      "name": "getTopicCount",
      "outputs": [
        {
          "internalType": "uint256",
          "name": "",
          "type": "uint256"
        }
      ],
      "stateMutability": "view",
      "type": "function"
    },
    {
      "inputs": [
        {
          "internalType": "uint256",
          "name": "_id",
          "type": "uint256"
        }
      ],
      "name": "getTopicTagIds",
      "outputs": [
        {
          "internalType": "uint256[]",
          "name": "",
          "type": "uint256[]"
        }
      ],
      "stateMutability": "view",
      "type": "function"
    },
    {
      "inputs": [
        {
          "internalType": "uint256",
          "name": "_topicId",
          "type": "uint256"
        },
        {
          "internalType": "uint256",
          "name": "_tagId",
          "type": "uint256"
        }
      ],
      "name": "getTopicTagStakeTotal",
      "outputs": [
        {
          "internalType": "uint256",
          "name": "",
          "type": "uint256"
        }
      ],
      "stateMutability": "view",
      "type": "function"
    },
    {
      "inputs": [
        {
          "internalType": "uint256",
          "name": "_topicId",
          "type": "uint256"
        },
        {
          "internalType": "uint256",
          "name": "_tagId",
          "type": "uint256"
        }
      ],
      "name": "getTopicTagStakes",
      "outputs": [
        {
          "internalType": "uint256[]",
          "name": "idxs",
          "type": "uint256[]"
        },
        {
          "internalType": "uint256[]",
          "name": "amts",
          "type": "uint256[]"
        },
        {
          "internalType": "address[]",
          "name": "stakers",
          "type": "address[]"
        }
      ],
      "stateMutability": "view",
      "type": "function"
    },
    {
      "inputs": [
        {
          "internalType": "address",
          "name": "_address",
          "type": "address"
        }
      ],
      "name": "getUserStakeIds",
      "outputs": [
        {
          "internalType": "uint256[]",
          "name": "",
          "type": "uint256[]"
        }
      ],
      "stateMutability": "view",
      "type": "function"
    },
    {
      "inputs": [
        {
          "internalType": "address",
          "name": "_user",
          "type": "address"
        }
      ],
      "name": "getUserTopicCount",
      "outputs": [
        {
          "internalType": "uint256",
          "name": "",
          "type": "uint256"
        }
      ],
      "stateMutability": "view",
      "type": "function"
    },
    {
      "inputs": [
        {
          "internalType": "address",
          "name": "_user",
          "type": "address"
        }
      ],
      "name": "getUserTopicIds",
      "outputs": [
        {
          "internalType": "uint256[]",
          "name": "",
          "type": "uint256[]"
        }
      ],
      "stateMutability": "view",
      "type": "function"
    },
    {
      "inputs": [
        {
          "internalType": "address",
          "name": "_addr",
          "type": "address"
        }
      ],
      "name": "grantAdminRole",
      "outputs": [],
      "stateMutability": "nonpayable",
      "type": "function"
    },
    {
      "inputs": [
        {
          "internalType": "bytes32",
          "name": "role",
          "type": "bytes32"
        },
        {
          "internalType": "address",
          "name": "account",
          "type": "address"
        }
      ],
      "name": "grantRole",
      "outputs": [],
      "stateMutability": "nonpayable",
      "type": "function"
    },
    {
      "inputs": [
        {
          "internalType": "address",
          "name": "_addr",
          "type": "address"
        }
      ],
      "name": "grantTaggerRole",
      "outputs": [],
      "stateMutability": "nonpayable",
      "type": "function"
    },
    {
      "inputs": [
        {
          "internalType": "bytes32",
          "name": "role",
          "type": "bytes32"
        },
        {
          "internalType": "address",
          "name": "account",
          "type": "address"
        }
      ],
      "name": "hasRole",
      "outputs": [
        {
          "internalType": "bool",
          "name": "",
          "type": "bool"
        }
      ],
      "stateMutability": "view",
      "type": "function"
    },
    {
      "inputs": [
        {
          "internalType": "uint256",
          "name": "_stakeIdx",
          "type": "uint256"
        },
        {
          "internalType": "uint256",
          "name": "_amt",
          "type": "uint256"
        }
      ],
      "name": "increaseStake",
      "outputs": [],
      "stateMutability": "nonpayable",
      "type": "function"
    },
    {
      "inputs": [
        {
          "internalType": "address",
          "name": "_addr",
          "type": "address"
        }
      ],
      "name": "isAdmin",
      "outputs": [
        {
          "internalType": "bool",
          "name": "",
          "type": "bool"
        }
      ],
      "stateMutability": "view",
      "type": "function"
    },
    {
      "inputs": [
        {
          "internalType": "address",
          "name": "_addr",
          "type": "address"
        }
      ],
      "name": "isTagger",
      "outputs": [
        {
          "internalType": "bool",
          "name": "",
          "type": "bool"
        }
      ],
      "stateMutability": "view",
      "type": "function"
    },
    {
      "inputs": [
        {
          "internalType": "uint256",
          "name": "_stakeIdx",
          "type": "uint256"
        },
        {
          "internalType": "uint256",
          "name": "_amt",
          "type": "uint256"
        }
      ],
      "name": "reduceStake",
      "outputs": [],
      "stateMutability": "nonpayable",
      "type": "function"
    },
    {
      "inputs": [
        {
          "internalType": "bytes32",
          "name": "role",
          "type": "bytes32"
        },
        {
          "internalType": "address",
          "name": "account",
          "type": "address"
        }
      ],
      "name": "renounceRole",
      "outputs": [],
      "stateMutability": "nonpayable",
      "type": "function"
    },
    {
      "inputs": [
        {
          "internalType": "address",
          "name": "_addr",
          "type": "address"
        }
      ],
      "name": "revokeAdminRole",
      "outputs": [],
      "stateMutability": "nonpayable",
      "type": "function"
    },
    {
      "inputs": [
        {
          "internalType": "bytes32",
          "name": "role",
          "type": "bytes32"
        },
        {
          "internalType": "address",
          "name": "account",
          "type": "address"
        }
      ],
      "name": "revokeRole",
      "outputs": [],
      "stateMutability": "nonpayable",
      "type": "function"
    },
    {
      "inputs": [
        {
          "internalType": "address",
          "name": "_addr",
          "type": "address"
        }
      ],
      "name": "revokeTaggerRole",
      "outputs": [],
      "stateMutability": "nonpayable",
      "type": "function"
    },
    {
      "inputs": [
        {
          "internalType": "string",
          "name": "",
          "type": "string"
        }
      ],
      "name": "tagExists",
      "outputs": [
        {
          "internalType": "bool",
          "name": "",
          "type": "bool"
        }
      ],
      "stateMutability": "view",
      "type": "function"
    },
    {
      "inputs": [
        {
          "internalType": "address",
          "name": "",
          "type": "address"
        }
      ],
      "name": "tokenBalances",
      "outputs": [
        {
          "internalType": "uint256",
          "name": "",
          "type": "uint256"
        }
      ],
      "stateMutability": "view",
      "type": "function"
    },
    {
      "inputs": [
        {
          "internalType": "uint256",
          "name": "_id",
          "type": "uint256"
        },
        {
          "internalType": "uint256",
          "name": "_newParent",
          "type": "uint256"
        }
      ],
      "name": "updateParent",
      "outputs": [],
      "stateMutability": "nonpayable",
      "type": "function"
    },
    {
      "inputs": [
        {
          "internalType": "uint256",
          "name": "_id",
          "type": "uint256"
        },
        {
          "internalType": "uint256[]",
          "name": "_tagIds",
          "type": "uint256[]"
        },
        {
          "internalType": "string",
          "name": "_fileName",
          "type": "string"
        }
      ],
      "name": "updateTopic",
      "outputs": [],
      "stateMutability": "nonpayable",
      "type": "function"
    },
    {
      "inputs": [
        {
          "internalType": "uint256[]",
          "name": "_tagIds",
          "type": "uint256[]"
        },
        {
          "internalType": "uint256",
          "name": "_topicId",
          "type": "uint256"
        }
      ],
      "name": "updateTopicTags",
      "outputs": [],
      "stateMutability": "nonpayable",
      "type": "function"
    },
    {
      "inputs": [
        {
          "internalType": "uint256[]",
          "name": "_addIds",
          "type": "uint256[]"
        },
        {
          "internalType": "uint256[]",
          "name": "_removeIds",
          "type": "uint256[]"
        },
        {
          "internalType": "uint256[]",
          "name": "_topicTagIdxs",
          "type": "uint256[]"
        },
        {
          "internalType": "uint256[]",
          "name": "_taggedUserTopicIdxs",
          "type": "uint256[]"
        },
        {
          "internalType": "uint256",
          "name": "_topicId",
          "type": "uint256"
        }
      ],
      "name": "updateTopicTags",
      "outputs": [],
      "stateMutability": "nonpayable",
      "type": "function"
    },
    {
      "inputs": [
        {
          "internalType": "uint256[]",
          "name": "_tagIds",
          "type": "uint256[]"
        },
        {
          "internalType": "string",
          "name": "fileName",
          "type": "string"
        }
      ],
      "name": "createTopic",
      "outputs": [
        {
          "internalType": "uint256",
          "name": "",
          "type": "uint256"
        }
      ],
      "stateMutability": "nonpayable",
      "type": "function"
    },
    {
      "inputs": [],
      "name": "getContractTokenBalance",
      "outputs": [
        {
          "internalType": "uint256",
          "name": "",
          "type": "uint256"
        }
      ],
      "stateMutability": "view",
      "type": "function"
    },
    {
      "inputs": [
        {
          "internalType": "address",
          "name": "_account",
          "type": "address"
        }
      ],
      "name": "getAlgernonTokenBalance",
      "outputs": [
        {
          "internalType": "uint256",
          "name": "",
          "type": "uint256"
        }
      ],
      "stateMutability": "view",
      "type": "function"
    },
    {
      "inputs": [
        {
          "internalType": "uint256",
          "name": "_amt",
          "type": "uint256"
        }
      ],
      "name": "withdrawTokens",
      "outputs": [],
      "stateMutability": "nonpayable",
      "type": "function"
    },
    {
      "inputs": [
        {
          "internalType": "address",
          "name": "operator",
          "type": "address"
        },
        {
          "internalType": "address",
          "name": "from",
          "type": "address"
        },
        {
          "internalType": "address",
          "name": "to",
          "type": "address"
        },
        {
          "internalType": "uint256",
          "name": "amount",
          "type": "uint256"
        },
        {
          "internalType": "bytes",
          "name": "userData",
          "type": "bytes"
        },
        {
          "internalType": "bytes",
          "name": "operatorData",
          "type": "bytes"
        }
      ],
      "name": "tokensReceived",
      "outputs": [],
      "stateMutability": "nonpayable",
      "type": "function"
    }
  ],
  "bytecode": "0x6080604052620186a0600f55600160105560026011553480156200002257600080fd5b5060405162005d1038038062005d10833981810160405281019062000048919062000450565b6200005d6000801b336200015f60201b60201c565b6200008f7fa807086040659eb7db9d31549a4199b0f7dd99f763c671636e80d5e5dc36a5d0336200017560201b60201c565b33601360006101000a81548173ffffffffffffffffffffffffffffffffffffffff021916908373ffffffffffffffffffffffffffffffffffffffff16021790555080601460006101000a81548173ffffffffffffffffffffffffffffffffffffffff021916908373ffffffffffffffffffffffffffffffffffffffff160217905550620001586040518060400160405280601581526020017f455243373737546f6b656e73526563697069656e74000000000000000000000081525030620001fe60201b60201c565b5062000678565b620001718282620002b760201b60201c565b5050565b620001a66200018a83620003a860201b60201c565b6200019a620003c760201b60201c565b620003cf60201b60201c565b620001e8576040517f08c379a0000000000000000000000000000000000000000000000000000000008152600401620001df9062000552565b60405180910390fd5b620001fa8282620002b760201b60201c565b5050565b600082604051602001620002139190620004fc565b604051602081830303815290604052805190602001209050731820a4b7618bde71dce8cdc73aab6c95905fad2473ffffffffffffffffffffffffffffffffffffffff166329965a1d3083856040518463ffffffff1660e01b81526004016200027e9392919062000515565b600060405180830381600087803b1580156200029957600080fd5b505af1158015620002ae573d6000803e3d6000fd5b50505050505050565b620002c98282620003cf60201b60201c565b620003a457600160008084815260200190815260200160002060000160008373ffffffffffffffffffffffffffffffffffffffff1673ffffffffffffffffffffffffffffffffffffffff16815260200190815260200160002060006101000a81548160ff02191690831515021790555062000349620003c760201b60201c565b73ffffffffffffffffffffffffffffffffffffffff168173ffffffffffffffffffffffffffffffffffffffff16837f2f8788117e7eff1d82e926ec794901d17c78024a50270940304540a733656f0d60405160405180910390a45b5050565b6000806000838152602001908152602001600020600101549050919050565b600033905090565b600080600084815260200190815260200160002060000160008373ffffffffffffffffffffffffffffffffffffffff1673ffffffffffffffffffffffffffffffffffffffff16815260200190815260200160002060009054906101000a900460ff16905092915050565b6000815190506200044a816200065e565b92915050565b6000602082840312156200046357600080fd5b6000620004738482850162000439565b91505092915050565b62000487816200059b565b82525050565b6200049881620005af565b82525050565b6000620004ab8262000574565b620004b7818562000590565b9350620004c9818560208601620005d9565b80840191505092915050565b6000620004e4602f836200057f565b9150620004f1826200060f565b604082019050919050565b60006200050a82846200049e565b915081905092915050565b60006060820190506200052c60008301866200047c565b6200053b60208301856200048d565b6200054a60408301846200047c565b949350505050565b600060208201905081810360008301526200056d81620004d5565b9050919050565b600081519050919050565b600082825260208201905092915050565b600081905092915050565b6000620005a882620005b9565b9050919050565b6000819050919050565b600073ffffffffffffffffffffffffffffffffffffffff82169050919050565b60005b83811015620005f9578082015181840152602081019050620005dc565b8381111562000609576000848401525b50505050565b7f416363657373436f6e74726f6c3a2073656e646572206d75737420626520616e60008201527f2061646d696e20746f206772616e740000000000000000000000000000000000602082015250565b62000669816200059b565b81146200067557600080fd5b50565b61568880620006886000396000f3fe608060405234801561001057600080fd5b50600436106102475760003560e01c8063716588961161013b578063bec10cde116100b8578063d58c70441161007c578063d58c704414610770578063dc8b37251461078c578063e17a82db146107bc578063e3bb12e0146107d8578063f6293738146107f457610247565b8063bec10cde146106e2578063c634b78e146106fe578063cc89698c1461071a578063d1a29dbd14610738578063d547741f1461075457610247565b8063986f191c116100ff578063986f191c1461063c5780639a19c7b01461065a578063a217fddf14610676578063a828d5d114610694578063b2362add146106c457610247565b8063716588961461054a57806374b649c21461057c578063762a8bd5146105ac578063828fe4d0146105dc57806391d148541461060c57610247565b8063315a095d116101c957806346d938601161018d57806346d938601461046a57806350a5f1081461049a578063523fba7f146104b65780636107d6fc146104e6578063691bbb691461051857610247565b8063315a095d146103dc578063317d9453146103f857806336568abe1461041657806340073aaa1461043257806340f1725d1461044e57610247565b8063248a9ca311610210578063248a9ca31461031457806324d7806c1461034457806328a3f5e5146103745780632f2ff15d14610390578063313da78f146103ac57610247565b806223de291461024c5780630317b6811461026857806303820948146102845780630a2b7cf0146102b457806317f2feb6146102e4575b600080fd5b61026660048036038101906102619190613d2d565b610824565b005b610282600480360381019061027d919061410f565b610959565b005b61029e60048036038101906102999190613d04565b610a22565b6040516102ab9190614988565b60405180910390f35b6102ce60048036038101906102c99190614081565b610a55565b6040516102db919061491a565b60405180910390f35b6102fe60048036038101906102f991906140d3565b610af8565b60405161030b919061491a565b60405180910390f35b61032e60048036038101906103299190613f87565b610ba1565b60405161033b91906149a3565b60405180910390f35b61035e60048036038101906103599190613d04565b610bc0565b60405161036b9190614988565b60405180910390f35b61038e60048036038101906103899190613f33565b610bd6565b005b6103aa60048036038101906103a59190613fb0565b610c80565b005b6103c660048036038101906103c19190613d04565b610ce6565b6040516103d3919061491a565b60405180910390f35b6103f660048036038101906103f19190614081565b610d7d565b005b610400610ee7565b60405161040d9190614c03565b60405180910390f35b610430600480360381019061042b9190613fb0565b610f99565b005b61044c6004803603810190610447919061402d565b61101c565b005b61046860048036038101906104639190613df0565b611239565b005b610484600480360381019061047f919061418e565b611396565b6040516104919190614c03565b60405180910390f35b6104b460048036038101906104af91906141ca565b6113c8565b005b6104d060048036038101906104cb9190613d04565b6116d6565b6040516104dd9190614c03565b60405180910390f35b61050060048036038101906104fb919061418e565b6116ee565b60405161050f9392919061493c565b60405180910390f35b610532600480360381019061052d9190614081565b611ae3565b60405161054193929190614cd8565b60405180910390f35b610564600480360381019061055f9190614081565b611be4565b604051610573939291906149be565b60405180910390f35b61059660048036038101906105919190613ec7565b611dd1565b6040516105a39190614c03565b60405180910390f35b6105c660048036038101906105c19190613d04565b611deb565b6040516105d3919061491a565b60405180910390f35b6105f660048036038101906105f19190613fec565b611e82565b6040516106039190614988565b60405180910390f35b61062660048036038101906106219190613fb0565b611eb8565b6040516106339190614988565b60405180910390f35b610644611f22565b6040516106519190614c03565b60405180910390f35b610674600480360381019061066f9190613d04565b611f2f565b005b61067e611f3f565b60405161068b91906149a3565b60405180910390f35b6106ae60048036038101906106a99190613d04565b611f46565b6040516106bb9190614c03565b60405180910390f35b6106cc611f92565b6040516106d991906149a3565b60405180910390f35b6106fc60048036038101906106f7919061418e565b611fb6565b005b61071860048036038101906107139190613d04565b6121d4565b005b6107226121e4565b60405161072f9190614c03565b60405180910390f35b610752600480360381019061074d919061418e565b6121f1565b005b61076e60048036038101906107699190613fb0565b6123c8565b005b61078a6004803603810190610785919061418e565b61242e565b005b6107a660048036038101906107a19190613d04565b6125bc565b6040516107b39190614c03565b60405180910390f35b6107d660048036038101906107d19190613d04565b612605565b005b6107f260048036038101906107ed9190613d04565b612632565b005b61080e60048036038101906108099190614081565b61265f565b60405161081b91906148f8565b60405180910390f35b601460009054906101000a900473ffffffffffffffffffffffffffffffffffffffff1673ffffffffffffffffffffffffffffffffffffffff163373ffffffffffffffffffffffffffffffffffffffff16146108b4576040517f08c379a00000000000000000000000000000000000000000000000000000000081526004016108ab90614a03565b60405180910390fd5b84601260008973ffffffffffffffffffffffffffffffffffffffff1673ffffffffffffffffffffffffffffffffffffffff16815260200190815260200160002060008282546109039190614f7c565b925050819055507fc516411697311e2344b800024721d1011dfc3c7f81c219c10582557cf463369088888888888888886040516109479897969594939291906147f6565b60405180910390a15050505050505050565b600060048481548110610995577f4e487b7100000000000000000000000000000000000000000000000000000000600052603260045260246000fd5b90600052602060002090600402019050818160030190805190602001906109bd929190613a78565b50828160010190805190602001906109d6929190613afe565b507fd8e275d29f373157a51081b082dfddd9995ce4bd36c1fe1b892f8d8df9c5998581600001548260010183600301604051610a1493929190614c93565b60405180910390a150505050565b6000610a4e7fa807086040659eb7db9d31549a4199b0f7dd99f763c671636e80d5e5dc36a5d083611eb8565b9050919050565b606060048281548110610a91577f4e487b7100000000000000000000000000000000000000000000000000000000600052603260045260246000fd5b9060005260206000209060040201600101805480602002602001604051908101604052809291908181526020018280548015610aec57602002820191906000526020600020905b815481526020019060010190808311610ad8575b50505050509050919050565b6060600a600084815260200190815260200160002060008373ffffffffffffffffffffffffffffffffffffffff1673ffffffffffffffffffffffffffffffffffffffff168152602001908152602001600020805480602002602001604051908101604052809291908181526020018280548015610b9457602002820191906000526020600020905b815481526020019060010190808311610b80575b5050505050905092915050565b6000806000838152602001908152602001600020600101549050919050565b6000610bcf6000801b83611eb8565b9050919050565b600060048281548110610c12577f4e487b7100000000000000000000000000000000000000000000000000000000600052603260045260246000fd5b9060005260206000209060040201905082816001019080519060200190610c3a929190613afe565b507ff9e07a0f3220589d9d05b68b9de495d5fe3086c9680812cf5fe277b15f00b7e9816000015482600101604051610c73929190614c63565b60405180910390a1505050565b610c99610c8c83610ba1565b610c94612700565b611eb8565b610cd8576040517f08c379a0000000000000000000000000000000000000000000000000000000008152600401610ccf90614a23565b60405180910390fd5b610ce28282612708565b5050565b6060600960008373ffffffffffffffffffffffffffffffffffffffff1673ffffffffffffffffffffffffffffffffffffffff168152602001908152602001600020805480602002602001604051908101604052809291908181526020018280548015610d7157602002820191906000526020600020905b815481526020019060010190808311610d5d575b50505050509050919050565b80601260003373ffffffffffffffffffffffffffffffffffffffff1673ffffffffffffffffffffffffffffffffffffffff168152602001908152602001600020541015610dff576040517f08c379a0000000000000000000000000000000000000000000000000000000008152600401610df690614b23565b60405180910390fd5b80601260003373ffffffffffffffffffffffffffffffffffffffff1673ffffffffffffffffffffffffffffffffffffffff1681526020019081526020016000206000828254610e4e919061505d565b92505081905550600d60009054906101000a900473ffffffffffffffffffffffffffffffffffffffff1673ffffffffffffffffffffffffffffffffffffffff16639bd9bbc633836040518363ffffffff1660e01b8152600401610eb2929190614869565b600060405180830381600087803b158015610ecc57600080fd5b505af1158015610ee0573d6000803e3d6000fd5b5050505050565b6000600d60009054906101000a900473ffffffffffffffffffffffffffffffffffffffff1673ffffffffffffffffffffffffffffffffffffffff166370a08231306040518263ffffffff1660e01b8152600401610f4491906147db565b60206040518083038186803b158015610f5c57600080fd5b505afa158015610f70573d6000803e3d6000fd5b505050506040513d601f19601f82011682018060405250810190610f9491906140aa565b905090565b610fa1612700565b73ffffffffffffffffffffffffffffffffffffffff168173ffffffffffffffffffffffffffffffffffffffff161461100e576040517f08c379a000000000000000000000000000000000000000000000000000000000815260040161100590614be3565b60405180910390fd5b61101882826127e8565b5050565b6110467fa807086040659eb7db9d31549a4199b0f7dd99f763c671636e80d5e5dc36a5d033611eb8565b611085576040517f08c379a000000000000000000000000000000000000000000000000000000000815260040161107c90614a83565b60405180910390fd5b6000825114156110ca576040517f08c379a00000000000000000000000000000000000000000000000000000000081526004016110c190614ac3565b60405180910390fd5b600015156001836040516110de91906147ad565b908152602001604051809103902060009054906101000a900460ff1615151461113c576040517f08c379a000000000000000000000000000000000000000000000000000000000815260040161113390614b63565b60405180910390fd5b600060016002805490506111509190614f7c565b905060006040518060400160405280858152602001848152509050600281908060018154018082558091505060019003906000526020600020906002020160009091909190915060008201518160000190805190602001906111b3929190613a78565b50602082015181600101555050600180856040516111d191906147ad565b908152602001604051809103902060006101000a81548160ff0219169083151502179055507f06e4cc9025d7c31df00b1ba37c3602316917a0b691ef5de231465230e0debc4e8285853360405161122b9493929190614d16565b60405180910390a150505050565b60005b84518110156113245761131182868381518110611282577f4e487b7100000000000000000000000000000000000000000000000000000000600052603260045260246000fd5b60200260200101518684815181106112c3577f4e487b7100000000000000000000000000000000000000000000000000000000600052603260045260246000fd5b6020026020010151868581518110611304577f4e487b7100000000000000000000000000000000000000000000000000000000600052603260045260246000fd5b60200260200101516128c9565b808061131c906151ac565b91505061123c565b5060005b855181101561138e5761137b8287838151811061136e577f4e487b7100000000000000000000000000000000000000000000000000000000600052603260045260246000fd5b6020026020010151613070565b8080611386906151ac565b915050611328565b505050505050565b600060076000848152602001908152602001600020600083815260200190815260200160002060000154905092915050565b60086000848152602001908152602001600020600083815260200190815260200160002060009054906101000a900460ff16611439576040517f08c379a000000000000000000000000000000000000000000000000000000000815260040161143090614b03565b60405180910390fd5b80601260003373ffffffffffffffffffffffffffffffffffffffff1673ffffffffffffffffffffffffffffffffffffffff1681526020019081526020016000205410156114bb576040517f08c379a00000000000000000000000000000000000000000000000000000000081526004016114b290614b23565b60405180910390fd5b6000600760008581526020019081526020016000206000848152602001908152602001600020905060006114f18284873361346f565b9050600060405180608001604052803373ffffffffffffffffffffffffffffffffffffffff168152602001838152602001878152602001868152509050600681908060018154018082558091505060019003906000526020600020906004020160009091909190915060008201518160000160006101000a81548173ffffffffffffffffffffffffffffffffffffffff021916908373ffffffffffffffffffffffffffffffffffffffff1602179055506020820151816001015560408201518160020155606082015181600301555050818360000160008282546115d59190614f7c565b925050819055508260010160016006805490506115f2919061505d565b9080600181540180825580915050600190039060005260206000200160009091909190915055600960003373ffffffffffffffffffffffffffffffffffffffff1673ffffffffffffffffffffffffffffffffffffffff1681526020019081526020016000206001600680549050611669919061505d565b90806001815401808255809150506001900390600052602060002001600090919091909150557f8fd1da8bf60af9a2d6c8da9cbc4d0f43ac5da5d4c0cc22a7c363f9df2c7f141533858489896040516116c69594939291906148a5565b60405180910390a1505050505050565b60126020528060005260406000206000915090505481565b606080606060006007600087815260200190815260200160002060008681526020019081526020016000206001018054905090508067ffffffffffffffff811115611762577f4e487b7100000000000000000000000000000000000000000000000000000000600052604160045260246000fd5b6040519080825280602002602001820160405280156117905781602001602082028036833780820191505090505b5091508067ffffffffffffffff8111156117d3577f4e487b7100000000000000000000000000000000000000000000000000000000600052604160045260246000fd5b6040519080825280602002602001820160405280156118015781602001602082028036833780820191505090505b5092508067ffffffffffffffff811115611844577f4e487b7100000000000000000000000000000000000000000000000000000000600052604160045260246000fd5b6040519080825280602002602001820160405280156118725781602001602082028036833780820191505090505b50935060005b81811015611ada5760006006600760008a8152602001908152602001600020600089815260200190815260200160002060010183815481106118e3577f4e487b7100000000000000000000000000000000000000000000000000000000600052603260045260246000fd5b906000526020600020015481548110611925577f4e487b7100000000000000000000000000000000000000000000000000000000600052603260045260246000fd5b906000526020600020906004020190508060000160009054906101000a900473ffffffffffffffffffffffffffffffffffffffff16848381518110611993577f4e487b7100000000000000000000000000000000000000000000000000000000600052603260045260246000fd5b602002602001019073ffffffffffffffffffffffffffffffffffffffff16908173ffffffffffffffffffffffffffffffffffffffff16815250508060010154858381518110611a0b577f4e487b7100000000000000000000000000000000000000000000000000000000600052603260045260246000fd5b6020026020010181815250506007600089815260200190815260200160002060008881526020019081526020016000206001018281548110611a76577f4e487b7100000000000000000000000000000000000000000000000000000000600052603260045260246000fd5b9060005260206000200154868381518110611aba577f4e487b7100000000000000000000000000000000000000000000000000000000600052603260045260246000fd5b602002602001018181525050508080611ad2906151ac565b915050611878565b50509250925092565b600060606000806002600186611af9919061505d565b81548110611b30577f4e487b7100000000000000000000000000000000000000000000000000000000600052603260045260246000fd5b9060005260206000209060020201905084816000018260010154818054611b569061512f565b80601f0160208091040260200160405190810160405280929190818152602001828054611b829061512f565b8015611bcf5780601f10611ba457610100808354040283529160200191611bcf565b820191906000526020600020905b815481529060010190602001808311611bb257829003601f168201915b50505050509150935093509350509193909250565b60606000606060048481548110611c24577f4e487b7100000000000000000000000000000000000000000000000000000000600052603260045260246000fd5b90600052602060002090600402016003018054611c409061512f565b80601f0160208091040260200160405190810160405280929190818152602001828054611c6c9061512f565b8015611cb95780601f10611c8e57610100808354040283529160200191611cb9565b820191906000526020600020905b815481529060010190602001808311611c9c57829003601f168201915b5050505050925060048481548110611cfa577f4e487b7100000000000000000000000000000000000000000000000000000000600052603260045260246000fd5b906000526020600020906004020160020160009054906101000a900473ffffffffffffffffffffffffffffffffffffffff16915060048481548110611d68577f4e487b7100000000000000000000000000000000000000000000000000000000600052603260045260246000fd5b9060005260206000209060040201600101805480602002602001604051908101604052809291908181526020018280548015611dc357602002820191906000526020600020905b815481526020019060010190808311611daf575b505050505090509193909250565b600080611ddf83853361374b565b90508091505092915050565b6060600560008373ffffffffffffffffffffffffffffffffffffffff1673ffffffffffffffffffffffffffffffffffffffff168152602001908152602001600020805480602002602001604051908101604052809291908181526020018280548015611e7657602002820191906000526020600020905b815481526020019060010190808311611e62575b50505050509050919050565b6001818051602081018201805184825260208301602085012081835280955050505050506000915054906101000a900460ff1681565b600080600084815260200190815260200160002060000160008373ffffffffffffffffffffffffffffffffffffffff1673ffffffffffffffffffffffffffffffffffffffff16815260200190815260200160002060009054906101000a900460ff16905092915050565b6000600280549050905090565b611f3c6000801b826123c8565b50565b6000801b81565b6000600560008373ffffffffffffffffffffffffffffffffffffffff1673ffffffffffffffffffffffffffffffffffffffff168152602001908152602001600020805490509050919050565b7fa807086040659eb7db9d31549a4199b0f7dd99f763c671636e80d5e5dc36a5d081565b600060068381548110611ff2577f4e487b7100000000000000000000000000000000000000000000000000000000600052603260045260246000fd5b906000526020600020906004020190503373ffffffffffffffffffffffffffffffffffffffff168160000160009054906101000a900473ffffffffffffffffffffffffffffffffffffffff1673ffffffffffffffffffffffffffffffffffffffff1614612094576040517f08c379a000000000000000000000000000000000000000000000000000000000815260040161208b90614a43565b60405180910390fd5b81601260003373ffffffffffffffffffffffffffffffffffffffff1673ffffffffffffffffffffffffffffffffffffffff168152602001908152602001600020541015612116576040517f08c379a000000000000000000000000000000000000000000000000000000000815260040161210d90614b23565b60405180910390fd5b6000600760008360020154815260200190815260200160002060008360030154815260200190815260200160002090506000612158828585600201543361346f565b90508082600001600082825461216e9190614f7c565b92505081905550808360010160008282546121899190614f7c565b925050819055507fd92f41b2e4f261e450bf386d4d71dbcf786415a2f82fbd6c5d1c546e2f2fff398360010154866040516121c5929190614dae565b60405180910390a15050505050565b6121e16000801b82610c80565b50565b6000600480549050905090565b60006006838154811061222d577f4e487b7100000000000000000000000000000000000000000000000000000000600052603260045260246000fd5b906000526020600020906004020190503373ffffffffffffffffffffffffffffffffffffffff168160000160009054906101000a900473ffffffffffffffffffffffffffffffffffffffff1673ffffffffffffffffffffffffffffffffffffffff16146122cf576040517f08c379a00000000000000000000000000000000000000000000000000000000081526004016122c690614a43565b60405180910390fd5b818160010160008282546122e3919061505d565b9250508190555081601260003373ffffffffffffffffffffffffffffffffffffffff1673ffffffffffffffffffffffffffffffffffffffff16815260200190815260200160002060008282546123399190614f7c565b92505081905550816007600083600201548152602001908152602001600020600083600301548152602001908152602001600020600001600082825461237f919061505d565b925050819055507fd92f41b2e4f261e450bf386d4d71dbcf786415a2f82fbd6c5d1c546e2f2fff398160010154846040516123bb929190614dae565b60405180910390a1505050565b6123e16123d483610ba1565b6123dc612700565b611eb8565b612420576040517f08c379a000000000000000000000000000000000000000000000000000000000815260040161241790614ae3565b60405180910390fd5b61242a82826127e8565b5050565b6124587fa807086040659eb7db9d31549a4199b0f7dd99f763c671636e80d5e5dc36a5d033611eb8565b612497576040517f08c379a000000000000000000000000000000000000000000000000000000000815260040161248e90614a83565b60405180910390fd5b60006001836124a6919061505d565b90506000600282815481106124e4577f4e487b7100000000000000000000000000000000000000000000000000000000600052603260045260246000fd5b906000526020600020906002020190506001151560018260000160405161250b91906147c4565b908152602001604051809103902060009054906101000a900460ff16151514612569576040517f08c379a000000000000000000000000000000000000000000000000000000000815260040161256090614a63565b60405180910390fd5b8281600101819055507f1ffacb3972e8e436e2bb97df843a31836e41fd8f548dd1c6d3cf32c9b70c51a982826000018360010154336040516125ae9493929190614d62565b60405180910390a150505050565b6000601260008373ffffffffffffffffffffffffffffffffffffffff1673ffffffffffffffffffffffffffffffffffffffff168152602001908152602001600020549050919050565b61262f7fa807086040659eb7db9d31549a4199b0f7dd99f763c671636e80d5e5dc36a5d082610c80565b50565b61265c7fa807086040659eb7db9d31549a4199b0f7dd99f763c671636e80d5e5dc36a5d0826123c8565b50565b6060600c60008381526020019081526020016000208054806020026020016040519081016040528092919081815260200182805480156126f457602002820191906000526020600020905b8160009054906101000a900473ffffffffffffffffffffffffffffffffffffffff1673ffffffffffffffffffffffffffffffffffffffff16815260200190600101908083116126aa575b50505050509050919050565b600033905090565b6127128282611eb8565b6127e457600160008084815260200190815260200160002060000160008373ffffffffffffffffffffffffffffffffffffffff1673ffffffffffffffffffffffffffffffffffffffff16815260200190815260200160002060006101000a81548160ff021916908315150217905550612789612700565b73ffffffffffffffffffffffffffffffffffffffff168173ffffffffffffffffffffffffffffffffffffffff16837f2f8788117e7eff1d82e926ec794901d17c78024a50270940304540a733656f0d60405160405180910390a45b5050565b6127f28282611eb8565b156128c557600080600084815260200190815260200160002060000160008373ffffffffffffffffffffffffffffffffffffffff1673ffffffffffffffffffffffffffffffffffffffff16815260200190815260200160002060006101000a81548160ff02191690831515021790555061286a612700565b73ffffffffffffffffffffffffffffffffffffffff168173ffffffffffffffffffffffffffffffffffffffff16837ff6391f5c32d9c69d2a47ea670b442974b53935d1edc7fd64eb21e047a839171b60405160405180910390a45b5050565b6001151560086000868152602001908152602001600020600085815260200190815260200160002060009054906101000a900460ff16151514612941576040517f08c379a000000000000000000000000000000000000000000000000000000000815260040161293890614aa3565b60405180910390fd5b3373ffffffffffffffffffffffffffffffffffffffff1660048581548110612992577f4e487b7100000000000000000000000000000000000000000000000000000000600052603260045260246000fd5b906000526020600020906004020160020160009054906101000a900473ffffffffffffffffffffffffffffffffffffffff1673ffffffffffffffffffffffffffffffffffffffff1614612a1a576040517f08c379a0000000000000000000000000000000000000000000000000000000008152600401612a1190614b83565b60405180910390fd5b8260048581548110612a55577f4e487b7100000000000000000000000000000000000000000000000000000000600052603260045260246000fd5b90600052602060002090600402016001018381548110612a9e577f4e487b7100000000000000000000000000000000000000000000000000000000600052603260045260246000fd5b906000526020600020015414612ae9576040517f08c379a0000000000000000000000000000000000000000000000000000000008152600401612ae090614bc3565b60405180910390fd5b83600a600085815260200190815260200160002060003373ffffffffffffffffffffffffffffffffffffffff1673ffffffffffffffffffffffffffffffffffffffff1681526020019081526020016000208281548110612b72577f4e487b7100000000000000000000000000000000000000000000000000000000600052603260045260246000fd5b906000526020600020015414612bbd576040517f08c379a0000000000000000000000000000000000000000000000000000000008152600401612bb490614b43565b60405180910390fd5b600060086000868152602001908152602001600020600085815260200190815260200160002060006101000a81548160ff02191690831515021790555060048481548110612c34577f4e487b7100000000000000000000000000000000000000000000000000000000600052603260045260246000fd5b9060005260206000209060040201600101600160048681548110612c81577f4e487b7100000000000000000000000000000000000000000000000000000000600052603260045260246000fd5b906000526020600020906004020160010180549050612ca0919061505d565b81548110612cd7577f4e487b7100000000000000000000000000000000000000000000000000000000600052603260045260246000fd5b906000526020600020015460048581548110612d1c577f4e487b7100000000000000000000000000000000000000000000000000000000600052603260045260246000fd5b90600052602060002090600402016001018381548110612d65577f4e487b7100000000000000000000000000000000000000000000000000000000600052603260045260246000fd5b906000526020600020018190555060048481548110612dad577f4e487b7100000000000000000000000000000000000000000000000000000000600052603260045260246000fd5b9060005260206000209060040201600101805480612df4577f4e487b7100000000000000000000000000000000000000000000000000000000600052603160045260246000fd5b60019003818190600052602060002001600090559055600a600084815260200190815260200160002060003373ffffffffffffffffffffffffffffffffffffffff1673ffffffffffffffffffffffffffffffffffffffff1681526020019081526020016000206001600a600086815260200190815260200160002060003373ffffffffffffffffffffffffffffffffffffffff1673ffffffffffffffffffffffffffffffffffffffff16815260200190815260200160002080549050612eba919061505d565b81548110612ef1577f4e487b7100000000000000000000000000000000000000000000000000000000600052603260045260246000fd5b9060005260206000200154600a600085815260200190815260200160002060003373ffffffffffffffffffffffffffffffffffffffff1673ffffffffffffffffffffffffffffffffffffffff1681526020019081526020016000208281548110612f84577f4e487b7100000000000000000000000000000000000000000000000000000000600052603260045260246000fd5b9060005260206000200181905550600a600084815260200190815260200160002060003373ffffffffffffffffffffffffffffffffffffffff1673ffffffffffffffffffffffffffffffffffffffff168152602001908152602001600020805480613018577f4e487b7100000000000000000000000000000000000000000000000000000000600052603160045260246000fd5b600190038181906000526020600020016000905590557f027dd7071e2a04e9c5eaabd02ace2b8c700a4eb05b5c4bd4e27bd7b11fbd8c1b8484600060405161306293929190614dd7565b60405180910390a150505050565b6000151560086000848152602001908152602001600020600083815260200190815260200160002060009054906101000a900460ff161515146130e8576040517f08c379a00000000000000000000000000000000000000000000000000000000081526004016130df90614ba3565b60405180910390fd5b3373ffffffffffffffffffffffffffffffffffffffff1660048381548110613139577f4e487b7100000000000000000000000000000000000000000000000000000000600052603260045260246000fd5b906000526020600020906004020160020160009054906101000a900473ffffffffffffffffffffffffffffffffffffffff1673ffffffffffffffffffffffffffffffffffffffff16146131c1576040517f08c379a00000000000000000000000000000000000000000000000000000000081526004016131b890614b83565b60405180910390fd5b60001515600b600083815260200190815260200160002060003373ffffffffffffffffffffffffffffffffffffffff1673ffffffffffffffffffffffffffffffffffffffff16815260200190815260200160002060009054906101000a900460ff1615151415613309576001600b600083815260200190815260200160002060003373ffffffffffffffffffffffffffffffffffffffff1673ffffffffffffffffffffffffffffffffffffffff16815260200190815260200160002060006101000a81548160ff021916908315150217905550600c6000828152602001908152602001600020339080600181540180825580915050600190039060005260206000200160009091909190916101000a81548173ffffffffffffffffffffffffffffffffffffffff021916908373ffffffffffffffffffffffffffffffffffffffff1602179055505b600160086000848152602001908152602001600020600083815260200190815260200160002060006101000a81548160ff021916908315150217905550600a600082815260200190815260200160002060003373ffffffffffffffffffffffffffffffffffffffff1673ffffffffffffffffffffffffffffffffffffffff168152602001908152602001600020829080600181540180825580915050600190039060005260206000200160009091909190915055600482815481106133f7577f4e487b7100000000000000000000000000000000000000000000000000000000600052603260045260246000fd5b90600052602060002090600402016001018190806001815401808255809150506001900390600052602060002001600090919091909150557f027dd7071e2a04e9c5eaabd02ace2b8c700a4eb05b5c4bd4e27bd7b11fbd8c1b8282600160405161346393929190614dd7565b60405180910390a15050565b60008061348160105486600f54613935565b9050600061349460115487600f54613935565b905060006134bd6134ae838561398a90919063ffffffff16565b886139b290919063ffffffff16565b905086601260008773ffffffffffffffffffffffffffffffffffffffff1673ffffffffffffffffffffffffffffffffffffffff168152602001908152602001600020600082825461350e919061505d565b92505081905550826012600060048981548110613554577f4e487b7100000000000000000000000000000000000000000000000000000000600052603260045260246000fd5b906000526020600020906004020160020160009054906101000a900473ffffffffffffffffffffffffffffffffffffffff1673ffffffffffffffffffffffffffffffffffffffff1673ffffffffffffffffffffffffffffffffffffffff16815260200190815260200160002060008282546135cf9190614f7c565b9250508190555060005b886001018054905081101561372e57600060068a6001018381548110613628577f4e487b7100000000000000000000000000000000000000000000000000000000600052603260045260246000fd5b90600052602060002001548154811061366a577f4e487b7100000000000000000000000000000000000000000000000000000000600052603260045260246000fd5b90600052602060002090600402019050600061368f82600101548c60000154876139db565b9050808561369d919061505d565b945080601260008460000160009054906101000a900473ffffffffffffffffffffffffffffffffffffffff1673ffffffffffffffffffffffffffffffffffffffff1673ffffffffffffffffffffffffffffffffffffffff16815260200190815260200160002060008282546137129190614f7c565b9250508190555050508080613726906151ac565b9150506135d9565b50818161373b9190614f7c565b9050809350505050949350505050565b600080604051806080016040528060035481526020018581526020018473ffffffffffffffffffffffffffffffffffffffff16815260200186815250905060048190806001815401808255809150506001900390600052602060002090600402016000909190919091506000820151816000015560208201518160010190805190602001906137db929190613afe565b5060408201518160020160006101000a81548173ffffffffffffffffffffffffffffffffffffffff021916908373ffffffffffffffffffffffffffffffffffffffff160217905550606082015181600301908051906020019061383f929190613a78565b505050600560008473ffffffffffffffffffffffffffffffffffffffff1673ffffffffffffffffffffffffffffffffffffffff16815260200190815260200160002081600001519080600181540180825580915050600190039060005260206000200160009091909190915055600360008154809291906138bf906151ac565b9190505550806040015173ffffffffffffffffffffffffffffffffffffffff167f8b910af69fb425b0e128bb4984faa10fe80c4c5cc9988b195d287772e4d3e94982600001518360200151846060015160405161391e93929190614c1e565b60405180910390a280600001519150509392505050565b600061398161394e606484613a0b90919063ffffffff16565b613973846139658888613a0b90919063ffffffff16565b613a0b90919063ffffffff16565b613a5090919063ffffffff16565b90509392505050565b60008082846139999190614f7c565b9050838110156139a857600080fd5b8091505092915050565b6000828211156139c157600080fd5b600082846139cf919061505d565b90508091505092915050565b6000613a02836139f48487613a0b90919063ffffffff16565b613a5090919063ffffffff16565b90509392505050565b600080831415613a1e5760009050613a4a565b60008284613a2c9190615003565b9050828482613a3b9190614fd2565b14613a4557600080fd5b809150505b92915050565b6000808211613a5e57600080fd5b60008284613a6c9190614fd2565b90508091505092915050565b828054613a849061512f565b90600052602060002090601f016020900481019282613aa65760008555613aed565b82601f10613abf57805160ff1916838001178555613aed565b82800160010185558215613aed579182015b82811115613aec578251825591602001919060010190613ad1565b5b509050613afa9190613b4b565b5090565b828054828255906000526020600020908101928215613b3a579160200282015b82811115613b39578251825591602001919060010190613b1e565b5b509050613b479190613b4b565b5090565b5b80821115613b64576000816000905550600101613b4c565b5090565b6000613b7b613b7684614e33565b614e0e565b90508083825260208201905082856020860282011115613b9a57600080fd5b60005b85811015613bca5781613bb08882613cda565b845260208401935060208301925050600181019050613b9d565b5050509392505050565b6000613be7613be284614e5f565b614e0e565b905082815260208101848484011115613bff57600080fd5b613c0a8482856150ed565b509392505050565b600081359050613c218161560d565b92915050565b600082601f830112613c3857600080fd5b8135613c48848260208601613b68565b91505092915050565b600081359050613c6081615624565b92915050565b60008083601f840112613c7857600080fd5b8235905067ffffffffffffffff811115613c9157600080fd5b602083019150836001820283011115613ca957600080fd5b9250929050565b600082601f830112613cc157600080fd5b8135613cd1848260208601613bd4565b91505092915050565b600081359050613ce98161563b565b92915050565b600081519050613cfe8161563b565b92915050565b600060208284031215613d1657600080fd5b6000613d2484828501613c12565b91505092915050565b60008060008060008060008060c0898b031215613d4957600080fd5b6000613d578b828c01613c12565b9850506020613d688b828c01613c12565b9750506040613d798b828c01613c12565b9650506060613d8a8b828c01613cda565b955050608089013567ffffffffffffffff811115613da757600080fd5b613db38b828c01613c66565b945094505060a089013567ffffffffffffffff811115613dd257600080fd5b613dde8b828c01613c66565b92509250509295985092959890939650565b600080600080600060a08688031215613e0857600080fd5b600086013567ffffffffffffffff811115613e2257600080fd5b613e2e88828901613c27565b955050602086013567ffffffffffffffff811115613e4b57600080fd5b613e5788828901613c27565b945050604086013567ffffffffffffffff811115613e7457600080fd5b613e8088828901613c27565b935050606086013567ffffffffffffffff811115613e9d57600080fd5b613ea988828901613c27565b9250506080613eba88828901613cda565b9150509295509295909350565b60008060408385031215613eda57600080fd5b600083013567ffffffffffffffff811115613ef457600080fd5b613f0085828601613c27565b925050602083013567ffffffffffffffff811115613f1d57600080fd5b613f2985828601613cb0565b9150509250929050565b60008060408385031215613f4657600080fd5b600083013567ffffffffffffffff811115613f6057600080fd5b613f6c85828601613c27565b9250506020613f7d85828601613cda565b9150509250929050565b600060208284031215613f9957600080fd5b6000613fa784828501613c51565b91505092915050565b60008060408385031215613fc357600080fd5b6000613fd185828601613c51565b9250506020613fe285828601613c12565b9150509250929050565b600060208284031215613ffe57600080fd5b600082013567ffffffffffffffff81111561401857600080fd5b61402484828501613cb0565b91505092915050565b6000806040838503121561404057600080fd5b600083013567ffffffffffffffff81111561405a57600080fd5b61406685828601613cb0565b925050602061407785828601613cda565b9150509250929050565b60006020828403121561409357600080fd5b60006140a184828501613cda565b91505092915050565b6000602082840312156140bc57600080fd5b60006140ca84828501613cef565b91505092915050565b600080604083850312156140e657600080fd5b60006140f485828601613cda565b925050602061410585828601613c12565b9150509250929050565b60008060006060848603121561412457600080fd5b600061413286828701613cda565b935050602084013567ffffffffffffffff81111561414f57600080fd5b61415b86828701613c27565b925050604084013567ffffffffffffffff81111561417857600080fd5b61418486828701613cb0565b9150509250925092565b600080604083850312156141a157600080fd5b60006141af85828601613cda565b92505060206141c085828601613cda565b9150509250929050565b6000806000606084860312156141df57600080fd5b60006141ed86828701613cda565b93505060206141fe86828701613cda565b925050604061420f86828701613cda565b9150509250925092565b60006142258383614249565b60208301905092915050565b600061423d838361478f565b60208301905092915050565b6142528161509b565b82525050565b6142618161509b565b82525050565b600061427282614eda565b61427c8185614f2d565b935061428783614e90565b8060005b838110156142b857815161429f8882614219565b97506142aa83614f06565b92505060018101905061428b565b5085935050505092915050565b60006142d082614ee5565b6142da8185614f3e565b93506142e583614ea0565b8060005b838110156143165781516142fd8882614231565b975061430883614f13565b9250506001810190506142e9565b5085935050505092915050565b600061432e82614ef0565b6143388185614f3e565b935061434383614eb0565b8060005b8381101561437b57614358826152b1565b6143628882614231565b975061436d83614f20565b925050600181019050614347565b5085935050505092915050565b614391816150ad565b82525050565b6143a0816150b9565b82525050565b60006143b28385614f4f565b93506143bf8385846150ed565b6143c8836152c4565b840190509392505050565b60006143de82614efb565b6143e88185614f60565b93506143f88185602086016150fc565b614401816152c4565b840191505092915050565b600061441782614efb565b6144218185614f71565b93506144318185602086016150fc565b80840191505092915050565b6000815461444a8161512f565b6144548186614f60565b9450600182166000811461446f5760018114614481576144b4565b60ff19831686526020860193506144b4565b61448a85614ec5565b60005b838110156144ac5781548189015260018201915060208101905061448d565b808801955050505b50505092915050565b600081546144ca8161512f565b6144d48186614f71565b945060018216600081146144ef576001811461450057614533565b60ff19831686528186019350614533565b61450985614ec5565b60005b8381101561452b5781548189015260018201915060208101905061450c565b838801955050505b50505092915050565b6000614549602183614f60565b9150614554826152e2565b604082019050919050565b600061456c602f83614f60565b915061457782615331565b604082019050919050565b600061458f601983614f60565b915061459a82615380565b602082019050919050565b60006145b2601283614f60565b91506145bd826153a9565b602082019050919050565b60006145d5601683614f60565b91506145e0826153d2565b602082019050919050565b60006145f8601383614f60565b9150614603826153fb565b602082019050919050565b600061461b601d83614f60565b915061462682615424565b602082019050919050565b600061463e603083614f60565b91506146498261544d565b604082019050919050565b6000614661601483614f60565b915061466c8261549c565b602082019050919050565b6000614684601a83614f60565b915061468f826154c5565b602082019050919050565b60006146a7601b83614f60565b91506146b2826154ee565b602082019050919050565b60006146ca600083614f4f565b91506146d582615517565b600082019050919050565b60006146ed601283614f60565b91506146f88261551a565b602082019050919050565b6000614710602083614f60565b915061471b82615543565b602082019050919050565b6000614733601783614f60565b915061473e8261556c565b602082019050919050565b6000614756601983614f60565b915061476182615595565b602082019050919050565b6000614779602f83614f60565b9150614784826155be565b604082019050919050565b614798816150e3565b82525050565b6147a7816150e3565b82525050565b60006147b9828461440c565b915081905092915050565b60006147d082846144bd565b915081905092915050565b60006020820190506147f06000830184614258565b92915050565b600060c08201905061480b600083018b614258565b614818602083018a614258565b6148256040830189614258565b614832606083018861479e565b81810360808301526148458186886143a6565b905081810360a083015261485a8184866143a6565b90509998505050505050505050565b600060608201905061487e6000830185614258565b61488b602083018461479e565b818103604083015261489c816146bd565b90509392505050565b600060a0820190506148ba6000830188614258565b6148c7602083018761479e565b6148d4604083018661479e565b6148e1606083018561479e565b6148ee608083018461479e565b9695505050505050565b600060208201905081810360008301526149128184614267565b905092915050565b6000602082019050818103600083015261493481846142c5565b905092915050565b6000606082019050818103600083015261495681866142c5565b9050818103602083015261496a81856142c5565b9050818103604083015261497e8184614267565b9050949350505050565b600060208201905061499d6000830184614388565b92915050565b60006020820190506149b86000830184614397565b92915050565b600060608201905081810360008301526149d881866143d3565b90506149e76020830185614258565b81810360408301526149f981846142c5565b9050949350505050565b60006020820190508181036000830152614a1c8161453c565b9050919050565b60006020820190508181036000830152614a3c8161455f565b9050919050565b60006020820190508181036000830152614a5c81614582565b9050919050565b60006020820190508181036000830152614a7c816145a5565b9050919050565b60006020820190508181036000830152614a9c816145c8565b9050919050565b60006020820190508181036000830152614abc816145eb565b9050919050565b60006020820190508181036000830152614adc8161460e565b9050919050565b60006020820190508181036000830152614afc81614631565b9050919050565b60006020820190508181036000830152614b1c81614654565b9050919050565b60006020820190508181036000830152614b3c81614677565b9050919050565b60006020820190508181036000830152614b5c8161469a565b9050919050565b60006020820190508181036000830152614b7c816146e0565b9050919050565b60006020820190508181036000830152614b9c81614703565b9050919050565b60006020820190508181036000830152614bbc81614726565b9050919050565b60006020820190508181036000830152614bdc81614749565b9050919050565b60006020820190508181036000830152614bfc8161476c565b9050919050565b6000602082019050614c18600083018461479e565b92915050565b6000606082019050614c33600083018661479e565b8181036020830152614c4581856142c5565b90508181036040830152614c5981846143d3565b9050949350505050565b6000604082019050614c78600083018561479e565b8181036020830152614c8a8184614323565b90509392505050565b6000606082019050614ca8600083018661479e565b8181036020830152614cba8185614323565b90508181036040830152614cce818461443d565b9050949350505050565b6000606082019050614ced600083018661479e565b8181036020830152614cff81856143d3565b9050614d0e604083018461479e565b949350505050565b6000608082019050614d2b600083018761479e565b8181036020830152614d3d81866143d3565b9050614d4c604083018561479e565b614d596060830184614258565b95945050505050565b6000608082019050614d77600083018761479e565b8181036020830152614d89818661443d565b9050614d98604083018561479e565b614da56060830184614258565b95945050505050565b6000604082019050614dc3600083018561479e565b614dd0602083018461479e565b9392505050565b6000606082019050614dec600083018661479e565b614df9602083018561479e565b614e066040830184614388565b949350505050565b6000614e18614e29565b9050614e24828261517b565b919050565b6000604051905090565b600067ffffffffffffffff821115614e4e57614e4d615282565b5b602082029050602081019050919050565b600067ffffffffffffffff821115614e7a57614e79615282565b5b614e83826152c4565b9050602081019050919050565b6000819050602082019050919050565b6000819050602082019050919050565b60008190508160005260206000209050919050565b60008190508160005260206000209050919050565b600081519050919050565b600081519050919050565b600081549050919050565b600081519050919050565b6000602082019050919050565b6000602082019050919050565b6000600182019050919050565b600082825260208201905092915050565b600082825260208201905092915050565b600082825260208201905092915050565b600082825260208201905092915050565b600081905092915050565b6000614f87826150e3565b9150614f92836150e3565b9250827fffffffffffffffffffffffffffffffffffffffffffffffffffffffffffffffff03821115614fc757614fc66151f5565b5b828201905092915050565b6000614fdd826150e3565b9150614fe8836150e3565b925082614ff857614ff7615224565b5b828204905092915050565b600061500e826150e3565b9150615019836150e3565b9250817fffffffffffffffffffffffffffffffffffffffffffffffffffffffffffffffff0483118215151615615052576150516151f5565b5b828202905092915050565b6000615068826150e3565b9150615073836150e3565b925082821015615086576150856151f5565b5b828203905092915050565b6000819050919050565b60006150a6826150c3565b9050919050565b60008115159050919050565b6000819050919050565b600073ffffffffffffffffffffffffffffffffffffffff82169050919050565b6000819050919050565b82818337600083830152505050565b60005b8381101561511a5780820151818401526020810190506150ff565b83811115615129576000848401525b50505050565b6000600282049050600182168061514757607f821691505b6020821081141561515b5761515a615253565b5b50919050565b600061517461516f836152d5565b615091565b9050919050565b615184826152c4565b810181811067ffffffffffffffff821117156151a3576151a2615282565b5b80604052505050565b60006151b7826150e3565b91507fffffffffffffffffffffffffffffffffffffffffffffffffffffffffffffffff8214156151ea576151e96151f5565b5b600182019050919050565b7f4e487b7100000000000000000000000000000000000000000000000000000000600052601160045260246000fd5b7f4e487b7100000000000000000000000000000000000000000000000000000000600052601260045260246000fd5b7f4e487b7100000000000000000000000000000000000000000000000000000000600052602260045260246000fd5b7f4e487b7100000000000000000000000000000000000000000000000000000000600052604160045260246000fd5b60006152bd8254615161565b9050919050565b6000601f19601f8301169050919050565b60008160001c9050919050565b7f53696d706c65373737526563697069656e743a20496e76616c696420746f6b6560008201527f6e00000000000000000000000000000000000000000000000000000000000000602082015250565b7f416363657373436f6e74726f6c3a2073656e646572206d75737420626520616e60008201527f2061646d696e20746f206772616e740000000000000000000000000000000000602082015250565b7f5374616b65206e6f74206f776e65642062792073656e64657200000000000000600082015250565b7f54616720646f6573206e6f742065786973740000000000000000000000000000600082015250565b7f43616c6c6572206973206e6f7420612074616767657200000000000000000000600082015250565b7f546f706963206973206e6f742074616767656400000000000000000000000000600082015250565b7f5461672043616e6e6f7420626520616e20656d70747920737472696e67000000600082015250565b7f416363657373436f6e74726f6c3a2073656e646572206d75737420626520616e60008201527f2061646d696e20746f207265766f6b6500000000000000000000000000000000602082015250565b7f546f706963206d75737420626520746167676564000000000000000000000000600082015250565b7f496e73756666696369656e7420746f6b656e2062616c616e6365000000000000600082015250565b7f546f70696320696420616e6420696e646578206d69736d617463680000000000600082015250565b50565b7f54616720616c7265616479206578697374730000000000000000000000000000600082015250565b7f4f6e6c7920746f706963206f776e65722063616e207570646174652074616773600082015250565b7f546f70696320697320616c726561647920746167676564000000000000000000600082015250565b7f54616720696420616e6420696e646578206d69736d6174636800000000000000600082015250565b7f416363657373436f6e74726f6c3a2063616e206f6e6c792072656e6f756e636560008201527f20726f6c657320666f722073656c660000000000000000000000000000000000602082015250565b6156168161509b565b811461562157600080fd5b50565b61562d816150b9565b811461563857600080fd5b50565b615644816150e3565b811461564f57600080fd5b5056fea2646970667358221220451d1d660c59bab34c62c69ce02b0259e9ba78a2fc0f4d7b948845986c5bf6ed64736f6c63430008010033",
  "immutableReferences": {},
  "source": "pragma solidity ^0.8.0;\n\nimport \"openzeppelin-solidity/contracts/token/ERC777/IERC777Recipient.sol\";\nimport './Stake.sol';\nimport \"./ERC1820Client.sol\";\n\ncontract Algernon is IERC777Recipient, Stake, ERC1820Client {\n  address owner;\n  IERC777  private _token;\n\n  event TokensReceived(address operator, address from, address to, uint256 amount, bytes userData, bytes operatorData);\n  event TokensSent(address operator, address from, address to, uint256 amount, bytes userData, bytes operatorData);\n\n  constructor (address _tokenAddress) {\n    owner = msg.sender;\n    _token = IERC777(_tokenAddress);\n    setInterfaceImplementation(\"ERC777TokensRecipient\", address(this));\n\n  }\n\n  function createTopic(uint256[] memory _tagIds, string memory fileName) public returns (uint) {\n    uint topicId = createUserTopic(fileName, _tagIds, msg.sender);\n\n    return topicId;\n  }\n\n  function getContractTokenBalance() public view returns (uint256) {\n    return IERC777(TOKEN_ADDRESS).balanceOf(address(this));\n  }\n\n  function getAlgernonTokenBalance(address _account) public view returns (uint) {\n    return tokenBalances[_account];\n  }\n\n  function withdrawTokens(uint _amt) public {\n    require(tokenBalances[msg.sender] >= _amt, 'Insufficient token balance');\n    tokenBalances[msg.sender] -= _amt;\n    IERC777(TOKEN_ADDRESS).send(msg.sender, _amt, \"\");\n  }\n\n  function tokensReceived(\n    address operator,\n    address from,\n    address to,\n    uint256 amount,\n    bytes calldata userData,\n    bytes calldata operatorData\n  ) external override {\n    require(msg.sender == address(_token), \"Simple777Recipient: Invalid token\");\n\n    tokenBalances[from] += amount;\n\n    emit TokensReceived(operator, from, to, amount, userData, operatorData);\n  }\n }\n",
  "sourcePath": "/home/steve/codes/algernon_dapp/contracts/contracts/Algernon.sol",
  "compiler": {
    "name": "solc",
    "version": "0.8.1+commit.df193b15.Emscripten.clang"
  },
  "schemaVersion": "3.3.3",
  "updatedAt": "2021-02-27T04:07:24.201Z",
  "devdoc": {
    "kind": "dev",
    "methods": {
      "getRoleAdmin(bytes32)": {
        "details": "Returns the admin role that controls `role`. See {grantRole} and {revokeRole}. To change a role's admin, use {_setRoleAdmin}."
      },
      "grantRole(bytes32,address)": {
        "details": "Grants `role` to `account`. If `account` had not been already granted `role`, emits a {RoleGranted} event. Requirements: - the caller must have ``role``'s admin role."
      },
      "hasRole(bytes32,address)": {
        "details": "Returns `true` if `account` has been granted `role`."
      },
      "renounceRole(bytes32,address)": {
        "details": "Revokes `role` from the calling account. Roles are often managed via {grantRole} and {revokeRole}: this function's purpose is to provide a mechanism for accounts to lose their privileges if they are compromised (such as when a trusted device is misplaced). If the calling account had been granted `role`, emits a {RoleRevoked} event. Requirements: - the caller must be `account`."
      },
      "revokeRole(bytes32,address)": {
        "details": "Revokes `role` from `account`. If `account` had been granted `role`, emits a {RoleRevoked} event. Requirements: - the caller must have ``role``'s admin role."
      },
      "tokensReceived(address,address,address,uint256,bytes,bytes)": {
        "details": "Called by an {IERC777} token contract whenever tokens are being moved or created into a registered account (`to`). The type of operation is conveyed by `from` being the zero address or not. This call occurs _after_ the token contract's state is updated, so {IERC777-balanceOf}, etc., can be used to query the post-operation state. This function may revert to prevent the operation from being executed."
      }
    },
    "version": 1
  },
  "userdoc": {
    "kind": "user",
    "methods": {},
    "version": 1
  }
}