{
  "contractName": "Algernon",
  "abi": [
    {
      "inputs": [
        {
          "internalType": "address",
          "name": "_tokenAddress",
          "type": "address"
        }
      ],
      "stateMutability": "nonpayable",
      "type": "constructor"
    },
    {
      "anonymous": false,
      "inputs": [
        {
          "indexed": false,
          "internalType": "address",
          "name": "staker",
          "type": "address"
        },
        {
          "indexed": false,
          "internalType": "uint256",
          "name": "totalAmt",
          "type": "uint256"
        },
        {
          "indexed": false,
          "internalType": "uint256",
          "name": "stakeAmt",
          "type": "uint256"
        },
        {
          "indexed": false,
          "internalType": "uint256",
          "name": "topicId",
          "type": "uint256"
        },
        {
          "indexed": false,
          "internalType": "uint256",
          "name": "tagId",
          "type": "uint256"
        }
      ],
      "name": "StakeAdded",
      "type": "event"
    },
    {
      "anonymous": false,
      "inputs": [
        {
          "indexed": false,
          "internalType": "uint256",
          "name": "amt",
          "type": "uint256"
        },
        {
          "indexed": false,
          "internalType": "uint256",
          "name": "stakeIdx",
          "type": "uint256"
        }
      ],
      "name": "StakeUpdated",
      "type": "event"
    },
    {
      "anonymous": false,
      "inputs": [
        {
          "indexed": false,
          "internalType": "uint256",
          "name": "id",
          "type": "uint256"
        },
        {
          "indexed": false,
          "internalType": "string",
          "name": "tag",
          "type": "string"
        },
        {
          "indexed": false,
          "internalType": "address",
          "name": "addedBy",
          "type": "address"
        }
      ],
      "name": "TagAdded",
      "type": "event"
    },
    {
      "anonymous": false,
      "inputs": [
        {
          "indexed": false,
          "internalType": "uint256",
          "name": "id",
          "type": "uint256"
        },
        {
          "indexed": false,
          "internalType": "uint256[]",
          "name": "tagIds",
          "type": "uint256[]"
        },
        {
          "indexed": true,
          "internalType": "address",
          "name": "owner",
          "type": "address"
        },
        {
          "indexed": false,
          "internalType": "string",
          "name": "content",
          "type": "string"
        }
      ],
      "name": "TopicCreated",
      "type": "event"
    },
    {
      "anonymous": false,
      "inputs": [
        {
          "indexed": false,
          "internalType": "uint256",
          "name": "topicId",
          "type": "uint256"
        },
        {
          "indexed": false,
          "internalType": "uint256",
          "name": "tagId",
          "type": "uint256"
        },
        {
          "indexed": false,
          "internalType": "bool",
          "name": "added",
          "type": "bool"
        }
      ],
      "name": "TopicTagUpdated",
      "type": "event"
    },
    {
      "anonymous": false,
      "inputs": [
        {
          "indexed": false,
          "internalType": "uint256",
          "name": "id",
          "type": "uint256"
        },
        {
          "indexed": false,
          "internalType": "uint256[]",
          "name": "tagIds",
          "type": "uint256[]"
        }
      ],
      "name": "TopicTagsUpdated",
      "type": "event"
    },
    {
      "anonymous": false,
      "inputs": [
        {
          "indexed": false,
          "internalType": "uint256",
          "name": "id",
          "type": "uint256"
        },
        {
          "indexed": false,
          "internalType": "uint256[]",
          "name": "tagIds",
          "type": "uint256[]"
        },
        {
          "indexed": false,
          "internalType": "string",
          "name": "content",
          "type": "string"
        }
      ],
      "name": "TopicUpdated",
      "type": "event"
    },
    {
      "inputs": [
        {
          "internalType": "string",
          "name": "_tag",
          "type": "string"
        }
      ],
      "name": "addMasterTag",
      "outputs": [],
      "stateMutability": "nonpayable",
      "type": "function"
    },
    {
      "inputs": [
        {
          "internalType": "string",
          "name": "_tag",
          "type": "string"
        }
      ],
      "name": "doesTagExist",
      "outputs": [
        {
          "internalType": "bool",
          "name": "",
          "type": "bool"
        }
      ],
      "stateMutability": "view",
      "type": "function"
    },
    {
      "inputs": [
        {
          "internalType": "uint256",
          "name": "_id",
          "type": "uint256"
        }
      ],
      "name": "getTag",
      "outputs": [
        {
          "internalType": "string",
          "name": "",
          "type": "string"
        }
      ],
      "stateMutability": "view",
      "type": "function"
    },
    {
      "inputs": [
        {
          "internalType": "uint256",
          "name": "_tagId",
          "type": "uint256"
        },
        {
          "internalType": "address",
          "name": "_address",
          "type": "address"
        }
      ],
      "name": "getTagAddressTopicIds",
      "outputs": [
        {
          "internalType": "uint256[]",
          "name": "",
          "type": "uint256[]"
        }
      ],
      "stateMutability": "view",
      "type": "function"
    },
    {
      "inputs": [
        {
          "internalType": "uint256",
          "name": "_tagId",
          "type": "uint256"
        }
      ],
      "name": "getTagAddresses",
      "outputs": [
        {
          "internalType": "address[]",
          "name": "",
          "type": "address[]"
        }
      ],
      "stateMutability": "view",
      "type": "function"
    },
    {
      "inputs": [],
      "name": "getTagCount",
      "outputs": [
        {
          "internalType": "uint256",
          "name": "",
          "type": "uint256"
        }
      ],
      "stateMutability": "view",
      "type": "function"
    },
    {
      "inputs": [
        {
          "internalType": "uint256",
          "name": "_id",
          "type": "uint256"
        }
      ],
      "name": "getTopic",
      "outputs": [
        {
          "internalType": "string",
          "name": "content",
          "type": "string"
        },
        {
          "internalType": "address",
          "name": "owner",
          "type": "address"
        },
        {
          "internalType": "uint256[]",
          "name": "tagIds",
          "type": "uint256[]"
        }
      ],
      "stateMutability": "view",
      "type": "function"
    },
    {
      "inputs": [],
      "name": "getTopicCount",
      "outputs": [
        {
          "internalType": "uint256",
          "name": "",
          "type": "uint256"
        }
      ],
      "stateMutability": "view",
      "type": "function"
    },
    {
      "inputs": [
        {
          "internalType": "uint256",
          "name": "_id",
          "type": "uint256"
        }
      ],
      "name": "getTopicTagIds",
      "outputs": [
        {
          "internalType": "uint256[]",
          "name": "",
          "type": "uint256[]"
        }
      ],
      "stateMutability": "view",
      "type": "function"
    },
    {
      "inputs": [
        {
          "internalType": "uint256",
          "name": "_topicId",
          "type": "uint256"
        },
        {
          "internalType": "uint256",
          "name": "_tagId",
          "type": "uint256"
        }
      ],
      "name": "getTopicTagStakeTotal",
      "outputs": [
        {
          "internalType": "uint256",
          "name": "",
          "type": "uint256"
        }
      ],
      "stateMutability": "view",
      "type": "function"
    },
    {
      "inputs": [
        {
          "internalType": "uint256",
          "name": "_topicId",
          "type": "uint256"
        },
        {
          "internalType": "uint256",
          "name": "_tagId",
          "type": "uint256"
        }
      ],
      "name": "getTopicTagStakes",
      "outputs": [
        {
          "internalType": "uint256[]",
          "name": "idxs",
          "type": "uint256[]"
        },
        {
          "internalType": "uint256[]",
          "name": "amts",
          "type": "uint256[]"
        },
        {
          "internalType": "address[]",
          "name": "stakers",
          "type": "address[]"
        }
      ],
      "stateMutability": "view",
      "type": "function"
    },
    {
      "inputs": [
        {
          "internalType": "address",
          "name": "_address",
          "type": "address"
        }
      ],
      "name": "getUserStakeIds",
      "outputs": [
        {
          "internalType": "uint256[]",
          "name": "",
          "type": "uint256[]"
        }
      ],
      "stateMutability": "view",
      "type": "function"
    },
    {
      "inputs": [
        {
          "internalType": "address",
          "name": "_user",
          "type": "address"
        }
      ],
      "name": "getUserTopicCount",
      "outputs": [
        {
          "internalType": "uint256",
          "name": "",
          "type": "uint256"
        }
      ],
      "stateMutability": "view",
      "type": "function"
    },
    {
      "inputs": [
        {
          "internalType": "address",
          "name": "_user",
          "type": "address"
        }
      ],
      "name": "getUserTopicIds",
      "outputs": [
        {
          "internalType": "uint256[]",
          "name": "",
          "type": "uint256[]"
        }
      ],
      "stateMutability": "view",
      "type": "function"
    },
    {
      "inputs": [
        {
          "internalType": "address",
          "name": "",
          "type": "address"
        }
      ],
      "name": "tokenBalances",
      "outputs": [
        {
          "internalType": "uint256",
          "name": "",
          "type": "uint256"
        }
      ],
      "stateMutability": "view",
      "type": "function"
    },
    {
      "inputs": [
        {
          "internalType": "uint256",
          "name": "_id",
          "type": "uint256"
        },
        {
          "internalType": "uint256[]",
          "name": "_tagIds",
          "type": "uint256[]"
        },
        {
          "internalType": "string",
          "name": "_fileName",
          "type": "string"
        }
      ],
      "name": "updateTopic",
      "outputs": [],
      "stateMutability": "nonpayable",
      "type": "function"
    },
    {
      "inputs": [
        {
          "internalType": "uint256[]",
          "name": "_tagIds",
          "type": "uint256[]"
        },
        {
          "internalType": "uint256",
          "name": "_topicId",
          "type": "uint256"
        }
      ],
      "name": "updateTopicTags",
      "outputs": [],
      "stateMutability": "nonpayable",
      "type": "function"
    },
    {
      "inputs": [
        {
          "internalType": "uint256[]",
          "name": "_addIds",
          "type": "uint256[]"
        },
        {
          "internalType": "uint256[]",
          "name": "_removeIds",
          "type": "uint256[]"
        },
        {
          "internalType": "uint256[]",
          "name": "_topicTagIdxs",
          "type": "uint256[]"
        },
        {
          "internalType": "uint256[]",
          "name": "_taggedUserTopicIdxs",
          "type": "uint256[]"
        },
        {
          "internalType": "uint256",
          "name": "_topicId",
          "type": "uint256"
        }
      ],
      "name": "updateTopicTags",
      "outputs": [],
      "stateMutability": "nonpayable",
      "type": "function"
    },
    {
      "inputs": [
        {
          "internalType": "uint256[]",
          "name": "_tagIds",
          "type": "uint256[]"
        },
        {
          "internalType": "string",
          "name": "fileName",
          "type": "string"
        }
      ],
      "name": "createTopic",
      "outputs": [
        {
          "internalType": "uint256",
          "name": "",
          "type": "uint256"
        }
      ],
      "stateMutability": "nonpayable",
      "type": "function"
    },
    {
      "inputs": [
        {
          "internalType": "uint256",
          "name": "_topicId",
          "type": "uint256"
        },
        {
          "internalType": "uint256",
          "name": "_tagId",
          "type": "uint256"
        },
        {
          "internalType": "uint256",
          "name": "_amt",
          "type": "uint256"
        }
      ],
      "name": "addStake",
      "outputs": [],
      "stateMutability": "nonpayable",
      "type": "function"
    },
    {
      "inputs": [
        {
          "internalType": "uint256",
          "name": "_stakeIdx",
          "type": "uint256"
        },
        {
          "internalType": "uint256",
          "name": "_amt",
          "type": "uint256"
        }
      ],
      "name": "increaseStake",
      "outputs": [],
      "stateMutability": "nonpayable",
      "type": "function"
    },
    {
      "inputs": [
        {
          "internalType": "uint256",
          "name": "_stakeIdx",
          "type": "uint256"
        },
        {
          "internalType": "uint256",
          "name": "_amt",
          "type": "uint256"
        }
      ],
      "name": "reduceStake",
      "outputs": [],
      "stateMutability": "nonpayable",
      "type": "function"
    },
    {
      "inputs": [],
      "name": "getContractTokenBalance",
      "outputs": [
        {
          "internalType": "uint256",
          "name": "",
          "type": "uint256"
        }
      ],
      "stateMutability": "view",
      "type": "function"
    },
    {
      "inputs": [
        {
          "internalType": "address",
          "name": "_account",
          "type": "address"
        }
      ],
      "name": "getAlgernonTokenBalance",
      "outputs": [
        {
          "internalType": "uint256",
          "name": "",
          "type": "uint256"
        }
      ],
      "stateMutability": "view",
      "type": "function"
    },
    {
      "inputs": [
        {
          "internalType": "uint256",
          "name": "_amt",
          "type": "uint256"
        }
      ],
      "name": "depositTokens",
      "outputs": [],
      "stateMutability": "nonpayable",
      "type": "function"
    },
    {
      "inputs": [
        {
          "internalType": "uint256",
          "name": "_amt",
          "type": "uint256"
        }
      ],
      "name": "withdrawTokens",
      "outputs": [],
      "stateMutability": "nonpayable",
      "type": "function"
    }
  ],
  "bytecode": "0x6080604052620186a0600f556001601055600260115560016012556201518060010260135534801561003057600080fd5b5060405161406f38038061406f8339818101604052602081101561005357600080fd5b810190808051906020019092919050505033600c60006101000a81548173ffffffffffffffffffffffffffffffffffffffff021916908373ffffffffffffffffffffffffffffffffffffffff16021790555080600d60006101000a81548173ffffffffffffffffffffffffffffffffffffffff021916908373ffffffffffffffffffffffffffffffffffffffff16021790555050613f79806100f66000396000f3fe608060405234801561001057600080fd5b506004361061018e5760003560e01c806371658896116100de578063cc89698c11610097578063dc8b372511610071578063dc8b372514610fd6578063dd49756e1461102e578063f62937381461105c578063f7302506146110df5761018e565b8063cc89698c14610ead578063ce606ea514610ecb578063d1a29dbd14610f9e5761018e565b80637165889614610ae157806374b649c214610c03578063762a8bd514610d66578063986f191c14610dff578063a828d5d114610e1d578063bec10cde14610e755761018e565b8063317d94531161014b57806350a5f1081161012557806350a5f10814610883578063523fba7f146108c55780636107d6fc1461091d578063691bbb6914610a3a5761018e565b8063317d94531461059b57806340f1725d146105b957806346d93860146108375761018e565b80630317b681146101935780630a2b7cf0146102ec57806317f2feb61461036f57806328a3f5e514610412578063313da78f146104d4578063315a095d1461056d575b600080fd5b6102ea600480360360608110156101a957600080fd5b8101908080359060200190929190803590602001906401000000008111156101d057600080fd5b8201836020820111156101e257600080fd5b8035906020019184602083028401116401000000008311171561020457600080fd5b919080806020026020016040519081016040528093929190818152602001838360200280828437600081840152601f19601f8201169050808301925050505050505091929192908035906020019064010000000081111561026457600080fd5b82018360208201111561027657600080fd5b8035906020019184600183028401116401000000008311171561029857600080fd5b91908080601f016020809104026020016040519081016040528093929190818152602001838380828437600081840152601f19601f82011690508083019250505050505050919291929050505061119a565b005b6103186004803603602081101561030257600080fd5b8101908080359060200190929190505050611302565b6040518080602001828103825283818151815260200191508051906020019060200280838360005b8381101561035b578082015181840152602081019050610340565b505050509050019250505060405180910390f35b6103bb6004803603604081101561038557600080fd5b8101908080359060200190929190803573ffffffffffffffffffffffffffffffffffffffff169060200190929190505050611378565b6040518080602001828103825283818151815260200191508051906020019060200280838360005b838110156103fe5780820151818401526020810190506103e3565b505050509050019250505060405180910390f35b6104d26004803603604081101561042857600080fd5b810190808035906020019064010000000081111561044557600080fd5b82018360208201111561045757600080fd5b8035906020019184602083028401116401000000008311171561047957600080fd5b919080806020026020016040519081016040528093929190818152602001838360200280828437600081840152601f19601f82011690508083019250505050505050919291929080359060200190929190505050611421565b005b610516600480360360208110156104ea57600080fd5b81019080803573ffffffffffffffffffffffffffffffffffffffff1690602001909291905050506114e2565b6040518080602001828103825283818151815260200191508051906020019060200280838360005b8381101561055957808201518184015260208101905061053e565b505050509050019250505060405180910390f35b6105996004803603602081101561058357600080fd5b8101908080359060200190929190505050611579565b005b6105a3611753565b6040518082815260200191505060405180910390f35b610835600480360360a08110156105cf57600080fd5b81019080803590602001906401000000008111156105ec57600080fd5b8201836020820111156105fe57600080fd5b8035906020019184602083028401116401000000008311171561062057600080fd5b919080806020026020016040519081016040528093929190818152602001838360200280828437600081840152601f19601f8201169050808301925050505050505091929192908035906020019064010000000081111561068057600080fd5b82018360208201111561069257600080fd5b803590602001918460208302840111640100000000831117156106b457600080fd5b919080806020026020016040519081016040528093929190818152602001838360200280828437600081840152601f19601f8201169050808301925050505050505091929192908035906020019064010000000081111561071457600080fd5b82018360208201111561072657600080fd5b8035906020019184602083028401116401000000008311171561074857600080fd5b919080806020026020016040519081016040528093929190818152602001838360200280828437600081840152601f19601f820116905080830192505050505050509192919290803590602001906401000000008111156107a857600080fd5b8201836020820111156107ba57600080fd5b803590602001918460208302840111640100000000831117156107dc57600080fd5b919080806020026020016040519081016040528093929190818152602001838360200280828437600081840152601f19601f82011690508083019250505050505050919291929080359060200190929190505050611834565b005b61086d6004803603604081101561084d57600080fd5b8101908080359060200190929190803590602001909291905050506118d7565b6040518082815260200191505060405180910390f35b6108c36004803603606081101561089957600080fd5b81019080803590602001909291908035906020019092919080359060200190929190505050611909565b005b610907600480360360208110156108db57600080fd5b81019080803573ffffffffffffffffffffffffffffffffffffffff169060200190929190505050611cac565b6040518082815260200191505060405180910390f35b6109536004803603604081101561093357600080fd5b810190808035906020019092919080359060200190929190505050611cc4565b60405180806020018060200180602001848103845287818151815260200191508051906020019060200280838360005b8381101561099e578082015181840152602081019050610983565b50505050905001848103835286818151815260200191508051906020019060200280838360005b838110156109e05780820151818401526020810190506109c5565b50505050905001848103825285818151815260200191508051906020019060200280838360005b83811015610a22578082015181840152602081019050610a07565b50505050905001965050505050505060405180910390f35b610a6660048036036020811015610a5057600080fd5b8101908080359060200190929190505050611ef4565b6040518080602001828103825283818151815260200191508051906020019080838360005b83811015610aa6578082015181840152602081019050610a8b565b50505050905090810190601f168015610ad35780820380516001836020036101000a031916815260200191505b509250505060405180910390f35b610b0d60048036036020811015610af757600080fd5b8101908080359060200190929190505050611fad565b60405180806020018473ffffffffffffffffffffffffffffffffffffffff1673ffffffffffffffffffffffffffffffffffffffff16815260200180602001838103835286818151815260200191508051906020019080838360005b83811015610b83578082015181840152602081019050610b68565b50505050905090810190601f168015610bb05780820380516001836020036101000a031916815260200191505b50838103825284818151815260200191508051906020019060200280838360005b83811015610bec578082015181840152602081019050610bd1565b505050509050019550505050505060405180910390f35b610d5060048036036040811015610c1957600080fd5b8101908080359060200190640100000000811115610c3657600080fd5b820183602082011115610c4857600080fd5b80359060200191846020830284011164010000000083111715610c6a57600080fd5b919080806020026020016040519081016040528093929190818152602001838360200280828437600081840152601f19601f82011690508083019250505050505050919291929080359060200190640100000000811115610cca57600080fd5b820183602082011115610cdc57600080fd5b80359060200191846001830284011164010000000083111715610cfe57600080fd5b91908080601f016020809104026020016040519081016040528093929190818152602001838380828437600081840152601f19601f820116905080830192505050505050509192919290505050612123565b6040518082815260200191505060405180910390f35b610da860048036036020811015610d7c57600080fd5b81019080803573ffffffffffffffffffffffffffffffffffffffff16906020019092919050505061213d565b6040518080602001828103825283818151815260200191508051906020019060200280838360005b83811015610deb578082015181840152602081019050610dd0565b505050509050019250505060405180910390f35b610e076121d4565b6040518082815260200191505060405180910390f35b610e5f60048036036020811015610e3357600080fd5b81019080803573ffffffffffffffffffffffffffffffffffffffff1690602001909291905050506121e1565b6040518082815260200191505060405180910390f35b610eab60048036036040811015610e8b57600080fd5b81019080803590602001909291908035906020019092919050505061222d565b005b610eb5612478565b6040518082815260200191505060405180910390f35b610f8460048036036020811015610ee157600080fd5b8101908080359060200190640100000000811115610efe57600080fd5b820183602082011115610f1057600080fd5b80359060200191846001830284011164010000000083111715610f3257600080fd5b91908080601f016020809104026020016040519081016040528093929190818152602001838380828437600081840152601f19601f820116905080830192505050505050509192919290505050612485565b604051808215151515815260200191505060405180910390f35b610fd460048036036040811015610fb457600080fd5b810190808035906020019092919080359060200190929190505050612504565b005b61101860048036036020811015610fec57600080fd5b81019080803573ffffffffffffffffffffffffffffffffffffffff1690602001909291905050506126cc565b6040518082815260200191505060405180910390f35b61105a6004803603602081101561104457600080fd5b8101908080359060200190929190505050612715565b005b6110886004803603602081101561107257600080fd5b81019080803590602001909291905050506129d7565b6040518080602001828103825283818151815260200191508051906020019060200280838360005b838110156110cb5780820151818401526020810190506110b0565b505050509050019250505060405180910390f35b611198600480360360208110156110f557600080fd5b810190808035906020019064010000000081111561111257600080fd5b82018360208201111561112457600080fd5b8035906020019184600183028401116401000000008311171561114657600080fd5b91908080601f016020809104026020016040519081016040528093929190818152602001838380828437600081840152601f19601f820116905080830192505050505050509192919290505050612a78565b005b6000600384815481106111a957fe5b90600052602060002090600402019050818160030190805190602001906111d1929190613d08565b50828160010190805190602001906111ea929190613d88565b507fd8e275d29f373157a51081b082dfddd9995ce4bd36c1fe1b892f8d8df9c5998581600001548260010183600301604051808481526020018060200180602001838103835285818154815260200191508054801561126857602002820191906000526020600020905b815481526020019060010190808311611254575b50508381038252848181546001816001161561010002031660029004815260200191508054600181600116156101000203166002900480156112eb5780601f106112c0576101008083540402835291602001916112eb565b820191906000526020600020905b8154815290600101906020018083116112ce57829003601f168201915b50509550505050505060405180910390a150505050565b60606003828154811061131157fe5b906000526020600020906004020160010180548060200260200160405190810160405280929190818152602001828054801561136c57602002820191906000526020600020905b815481526020019060010190808311611358575b50505050509050919050565b60606009600084815260200190815260200160002060008373ffffffffffffffffffffffffffffffffffffffff1673ffffffffffffffffffffffffffffffffffffffff16815260200190815260200160002080548060200260200160405190810160405280929190818152602001828054801561141457602002820191906000526020600020905b815481526020019060010190808311611400575b5050505050905092915050565b60006003828154811061143057fe5b9060005260206000209060040201905082816001019080519060200190611458929190613d88565b507ff9e07a0f3220589d9d05b68b9de495d5fe3086c9680812cf5fe277b15f00b7e9816000015482600101604051808381526020018060200182810382528381815481526020019150805480156114ce57602002820191906000526020600020905b8154815260200190600101908083116114ba575b5050935050505060405180910390a1505050565b6060600860008373ffffffffffffffffffffffffffffffffffffffff1673ffffffffffffffffffffffffffffffffffffffff16815260200190815260200160002080548060200260200160405190810160405280929190818152602001828054801561156d57602002820191906000526020600020905b815481526020019060010190808311611559575b50505050509050919050565b80601460003373ffffffffffffffffffffffffffffffffffffffff1673ffffffffffffffffffffffffffffffffffffffff16815260200190815260200160002054101561162e576040517f08c379a000000000000000000000000000000000000000000000000000000000815260040180806020018281038252601a8152602001807f496e73756666696369656e7420746f6b656e2062616c616e636500000000000081525060200191505060405180910390fd5b80601460003373ffffffffffffffffffffffffffffffffffffffff1673ffffffffffffffffffffffffffffffffffffffff16815260200190815260200160002060008282540392505081905550600d60009054906101000a900473ffffffffffffffffffffffffffffffffffffffff1673ffffffffffffffffffffffffffffffffffffffff16639bd9bbc633836040518363ffffffff1660e01b8152600401808373ffffffffffffffffffffffffffffffffffffffff1673ffffffffffffffffffffffffffffffffffffffff168152602001828152602001806020018281038252600081526020016020019350505050600060405180830381600087803b15801561173857600080fd5b505af115801561174c573d6000803e3d6000fd5b5050505050565b6000600d60009054906101000a900473ffffffffffffffffffffffffffffffffffffffff1673ffffffffffffffffffffffffffffffffffffffff166370a08231306040518263ffffffff1660e01b8152600401808273ffffffffffffffffffffffffffffffffffffffff1673ffffffffffffffffffffffffffffffffffffffff16815260200191505060206040518083038186803b1580156117f457600080fd5b505afa158015611808573d6000803e3d6000fd5b505050506040513d602081101561181e57600080fd5b8101908080519060200190929190505050905090565b60008090505b8451811015611895576118888286838151811061185357fe5b602002602001015186848151811061186757fe5b602002602001015186858151811061187b57fe5b6020026020010151612d0c565b808060010191505061183a565b5060008090505b85518110156118cf576118c2828783815181106118b557fe5b6020026020010151613307565b808060010191505061189c565b505050505050565b600060066000848152602001908152602001600020600083815260200190815260200160002060000154905092915050565b60076000848152602001908152602001600020600083815260200190815260200160002060009054906101000a900460ff166119ad576040517f08c379a00000000000000000000000000000000000000000000000000000000081526004018080602001828103825260148152602001807f546f706963206d7573742062652074616767656400000000000000000000000081525060200191505060405180910390fd5b80601460003373ffffffffffffffffffffffffffffffffffffffff1673ffffffffffffffffffffffffffffffffffffffff168152602001908152602001600020541015611a62576040517f08c379a000000000000000000000000000000000000000000000000000000000815260040180806020018281038252601a8152602001807f496e73756666696369656e7420746f6b656e2062616c616e636500000000000081525060200191505060405180910390fd5b600060066000858152602001908152602001600020600084815260200190815260200160002090506000611a9882848733613722565b9050611aa2613dd5565b60405180608001604052803373ffffffffffffffffffffffffffffffffffffffff168152602001838152602001878152602001868152509050600581908060018154018082558091505060019003906000526020600020906004020160009091909190915060008201518160000160006101000a81548173ffffffffffffffffffffffffffffffffffffffff021916908373ffffffffffffffffffffffffffffffffffffffff1602179055506020820151816001015560408201518160020155606082015181600301555050818360000160008282540192505081905550826001016001600580549050039080600181540180825580915050600190039060005260206000200160009091909190915055600860003373ffffffffffffffffffffffffffffffffffffffff1673ffffffffffffffffffffffffffffffffffffffff16815260200190815260200160002060016005805490500390806001815401808255809150506001900390600052602060002001600090919091909150557f8fd1da8bf60af9a2d6c8da9cbc4d0f43ac5da5d4c0cc22a7c363f9df2c7f14153385848989604051808673ffffffffffffffffffffffffffffffffffffffff1673ffffffffffffffffffffffffffffffffffffffff1681526020018581526020018481526020018381526020018281526020019550505050505060405180910390a1505050505050565b60146020528060005260406000206000915090505481565b6060806060600060066000878152602001908152602001600020600086815260200190815260200160002060010180549050905080604051908082528060200260200182016040528015611d275781602001602082028038833980820191505090505b50915080604051908082528060200260200182016040528015611d595781602001602082028038833980820191505090505b50925080604051908082528060200260200182016040528015611d8b5781602001602082028038833980820191505090505b50935060008090505b81811015611ee25760006005600660008a815260200190815260200160002060008981526020019081526020016000206001018381548110611dd257fe5b906000526020600020015481548110611de757fe5b906000526020600020906004020190508060000160009054906101000a900473ffffffffffffffffffffffffffffffffffffffff16848381518110611e2857fe5b602002602001019073ffffffffffffffffffffffffffffffffffffffff16908173ffffffffffffffffffffffffffffffffffffffff16815250508060010154858381518110611e7357fe5b6020026020010181815250506006600089815260200190815260200160002060008881526020019081526020016000206001018281548110611eb157fe5b9060005260206000200154868381518110611ec857fe5b602002602001018181525050508080600101915050611d94565b50838383935093509350509250925092565b606060018281548110611f0357fe5b906000526020600020018054600181600116156101000203166002900480601f016020809104026020016040519081016040528092919081815260200182805460018160011615610100020316600290048015611fa15780601f10611f7657610100808354040283529160200191611fa1565b820191906000526020600020905b815481529060010190602001808311611f8457829003601f168201915b50505050509050919050565b60606000606060038481548110611fc057fe5b90600052602060002090600402016003018054600181600116156101000203166002900480601f0160208091040260200160405190810160405280929190818152602001828054600181600116156101000203166002900480156120655780601f1061203a57610100808354040283529160200191612065565b820191906000526020600020905b81548152906001019060200180831161204857829003601f168201915b505050505092506003848154811061207957fe5b906000526020600020906004020160020160009054906101000a900473ffffffffffffffffffffffffffffffffffffffff169150600384815481106120ba57fe5b906000526020600020906004020160010180548060200260200160405190810160405280929190818152602001828054801561211557602002820191906000526020600020905b815481526020019060010190808311612101575b505050505090509193909250565b600080612131838533613947565b90508091505092915050565b6060600460008373ffffffffffffffffffffffffffffffffffffffff1673ffffffffffffffffffffffffffffffffffffffff1681526020019081526020016000208054806020026020016040519081016040528092919081815260200182805480156121c857602002820191906000526020600020905b8154815260200190600101908083116121b4575b50505050509050919050565b6000600180549050905090565b6000600460008373ffffffffffffffffffffffffffffffffffffffff1673ffffffffffffffffffffffffffffffffffffffff168152602001908152602001600020805490509050919050565b60006005838154811061223c57fe5b906000526020600020906004020190503373ffffffffffffffffffffffffffffffffffffffff168160000160009054906101000a900473ffffffffffffffffffffffffffffffffffffffff1673ffffffffffffffffffffffffffffffffffffffff1614612311576040517f08c379a00000000000000000000000000000000000000000000000000000000081526004018080602001828103825260198152602001807f5374616b65206e6f74206f776e65642062792073656e6465720000000000000081525060200191505060405180910390fd5b81601460003373ffffffffffffffffffffffffffffffffffffffff1673ffffffffffffffffffffffffffffffffffffffff1681526020019081526020016000205410156123c6576040517f08c379a000000000000000000000000000000000000000000000000000000000815260040180806020018281038252601a8152602001807f496e73756666696369656e7420746f6b656e2062616c616e636500000000000081525060200191505060405180910390fd5b60006006600083600201548152602001908152602001600020600083600301548152602001908152602001600020905060006124088285856002015433613722565b90508082600001600082825401925050819055508083600101600082825401925050819055507fd92f41b2e4f261e450bf386d4d71dbcf786415a2f82fbd6c5d1c546e2f2fff39836001015486604051808381526020018281526020019250505060405180910390a15050505050565b6000600380549050905090565b600080826040518082805190602001908083835b602083106124bc5780518252602082019150602081019050602083039250612499565b6001836020036101000a038019825116818451168082178552505050505050905001915050908152602001604051809103902060009054906101000a900460ff169050919050565b60006005838154811061251357fe5b906000526020600020906004020190503373ffffffffffffffffffffffffffffffffffffffff168160000160009054906101000a900473ffffffffffffffffffffffffffffffffffffffff1673ffffffffffffffffffffffffffffffffffffffff16146125e8576040517f08c379a00000000000000000000000000000000000000000000000000000000081526004018080602001828103825260198152602001807f5374616b65206e6f74206f776e65642062792073656e6465720000000000000081525060200191505060405180910390fd5b81816001016000828254039250508190555081601460003373ffffffffffffffffffffffffffffffffffffffff1673ffffffffffffffffffffffffffffffffffffffff16815260200190815260200160002060008282540192505081905550816006600083600201548152602001908152602001600020600083600301548152602001908152602001600020600001600082825403925050819055507fd92f41b2e4f261e450bf386d4d71dbcf786415a2f82fbd6c5d1c546e2f2fff39816001015484604051808381526020018281526020019250505060405180910390a1505050565b6000601460008373ffffffffffffffffffffffffffffffffffffffff1673ffffffffffffffffffffffffffffffffffffffff168152602001908152602001600020549050919050565b6000600d60009054906101000a900473ffffffffffffffffffffffffffffffffffffffff1673ffffffffffffffffffffffffffffffffffffffff166370a08231336040518263ffffffff1660e01b8152600401808273ffffffffffffffffffffffffffffffffffffffff1673ffffffffffffffffffffffffffffffffffffffff16815260200191505060206040518083038186803b1580156127b657600080fd5b505afa1580156127ca573d6000803e3d6000fd5b505050506040513d60208110156127e057600080fd5b8101908080519060200190929190505050905081811015612869576040517f08c379a000000000000000000000000000000000000000000000000000000000815260040180806020018281038252601a8152602001807f496e73756666696369656e7420746f6b656e2062616c616e636500000000000081525060200191505060405180910390fd5b600d60009054906101000a900473ffffffffffffffffffffffffffffffffffffffff1673ffffffffffffffffffffffffffffffffffffffff166362ad1b833330856040518463ffffffff1660e01b8152600401808473ffffffffffffffffffffffffffffffffffffffff1673ffffffffffffffffffffffffffffffffffffffff1681526020018373ffffffffffffffffffffffffffffffffffffffff1673ffffffffffffffffffffffffffffffffffffffff168152602001828152602001806020018060200183810383526000815260200160200183810382526000815260200160200195505050505050600060405180830381600087803b15801561296e57600080fd5b505af1158015612982573d6000803e3d6000fd5b5050505081601460003373ffffffffffffffffffffffffffffffffffffffff1673ffffffffffffffffffffffffffffffffffffffff168152602001908152602001600020600082825401925050819055505050565b6060600b6000838152602001908152602001600020805480602002602001604051908101604052809291908181526020018280548015612a6c57602002820191906000526020600020905b8160009054906101000a900473ffffffffffffffffffffffffffffffffffffffff1673ffffffffffffffffffffffffffffffffffffffff1681526020019060010190808311612a22575b50505050509050919050565b600015156000826040518082805190602001908083835b60208310612ab25780518252602082019150602081019050602083039250612a8f565b6001836020036101000a038019825116818451168082178552505050505050905001915050908152602001604051809103902060009054906101000a900460ff16151514612b68576040517f08c379a00000000000000000000000000000000000000000000000000000000081526004018080602001828103825260128152602001807f54616720616c726561647920657869737473000000000000000000000000000081525060200191505060405180910390fd5b60006001805490509050600182908060018154018082558091505060019003906000526020600020016000909190919091509080519060200190612bad929190613d08565b5060016000836040518082805190602001908083835b60208310612be65780518252602082019150602081019050602083039250612bc3565b6001836020036101000a038019825116818451168082178552505050505050905001915050908152602001604051809103902060006101000a81548160ff0219169083151502179055507f8fc004b14aee5c0ca4de94bd14237f561d1b8fcd297828e4cd108d4a558387ef81833360405180848152602001806020018373ffffffffffffffffffffffffffffffffffffffff1673ffffffffffffffffffffffffffffffffffffffff168152602001828103825284818151815260200191508051906020019080838360005b83811015612ccc578082015181840152602081019050612cb1565b50505050905090810190601f168015612cf95780820380516001836020036101000a031916815260200191505b5094505050505060405180910390a15050565b6001151560076000868152602001908152602001600020600085815260200190815260200160002060009054906101000a900460ff16151514612db7576040517f08c379a00000000000000000000000000000000000000000000000000000000081526004018080602001828103825260138152602001807f546f706963206973206e6f74207461676765640000000000000000000000000081525060200191505060405180910390fd5b3373ffffffffffffffffffffffffffffffffffffffff1660038581548110612ddb57fe5b906000526020600020906004020160020160009054906101000a900473ffffffffffffffffffffffffffffffffffffffff1673ffffffffffffffffffffffffffffffffffffffff1614612e96576040517f08c379a00000000000000000000000000000000000000000000000000000000081526004018080602001828103825260208152602001807f4f6e6c7920746f706963206f776e65722063616e20757064617465207461677381525060200191505060405180910390fd5b8260038581548110612ea457fe5b90600052602060002090600402016001018381548110612ec057fe5b906000526020600020015414612f3e576040517f08c379a00000000000000000000000000000000000000000000000000000000081526004018080602001828103825260198152602001807f54616720696420616e6420696e646578206d69736d617463680000000000000081525060200191505060405180910390fd5b836009600085815260200190815260200160002060003373ffffffffffffffffffffffffffffffffffffffff1673ffffffffffffffffffffffffffffffffffffffff1681526020019081526020016000208281548110612f9a57fe5b906000526020600020015414613018576040517f08c379a000000000000000000000000000000000000000000000000000000000815260040180806020018281038252601b8152602001807f546f70696320696420616e6420696e646578206d69736d61746368000000000081525060200191505060405180910390fd5b600060076000868152602001908152602001600020600085815260200190815260200160002060006101000a81548160ff0219169083151502179055506003848154811061306257fe5b906000526020600020906004020160010160016003868154811061308257fe5b90600052602060002090600402016001018054905003815481106130a257fe5b9060005260206000200154600385815481106130ba57fe5b906000526020600020906004020160010183815481106130d657fe5b9060005260206000200181905550600384815481106130f157fe5b906000526020600020906004020160010180548061310b57fe5b600190038181906000526020600020016000905590556009600084815260200190815260200160002060003373ffffffffffffffffffffffffffffffffffffffff1673ffffffffffffffffffffffffffffffffffffffff16815260200190815260200160002060016009600086815260200190815260200160002060003373ffffffffffffffffffffffffffffffffffffffff1673ffffffffffffffffffffffffffffffffffffffff1681526020019081526020016000208054905003815481106131d257fe5b90600052602060002001546009600085815260200190815260200160002060003373ffffffffffffffffffffffffffffffffffffffff1673ffffffffffffffffffffffffffffffffffffffff168152602001908152602001600020828154811061323857fe5b90600052602060002001819055506009600084815260200190815260200160002060003373ffffffffffffffffffffffffffffffffffffffff1673ffffffffffffffffffffffffffffffffffffffff16815260200190815260200160002080548061329f57fe5b600190038181906000526020600020016000905590557f027dd7071e2a04e9c5eaabd02ace2b8c700a4eb05b5c4bd4e27bd7b11fbd8c1b848460006040518084815260200183815260200182151515158152602001935050505060405180910390a150505050565b6000151560076000848152602001908152602001600020600083815260200190815260200160002060009054906101000a900460ff161515146133b2576040517f08c379a00000000000000000000000000000000000000000000000000000000081526004018080602001828103825260178152602001807f546f70696320697320616c72656164792074616767656400000000000000000081525060200191505060405180910390fd5b3373ffffffffffffffffffffffffffffffffffffffff16600383815481106133d657fe5b906000526020600020906004020160020160009054906101000a900473ffffffffffffffffffffffffffffffffffffffff1673ffffffffffffffffffffffffffffffffffffffff1614613491576040517f08c379a00000000000000000000000000000000000000000000000000000000081526004018080602001828103825260208152602001807f4f6e6c7920746f706963206f776e65722063616e20757064617465207461677381525060200191505060405180910390fd5b60001515600a600083815260200190815260200160002060003373ffffffffffffffffffffffffffffffffffffffff1673ffffffffffffffffffffffffffffffffffffffff16815260200190815260200160002060009054906101000a900460ff16151514156135d9576001600a600083815260200190815260200160002060003373ffffffffffffffffffffffffffffffffffffffff1673ffffffffffffffffffffffffffffffffffffffff16815260200190815260200160002060006101000a81548160ff021916908315150217905550600b6000828152602001908152602001600020339080600181540180825580915050600190039060005260206000200160009091909190916101000a81548173ffffffffffffffffffffffffffffffffffffffff021916908373ffffffffffffffffffffffffffffffffffffffff1602179055505b600160076000848152602001908152602001600020600083815260200190815260200160002060006101000a81548160ff0219169083151502179055506009600082815260200190815260200160002060003373ffffffffffffffffffffffffffffffffffffffff1673ffffffffffffffffffffffffffffffffffffffff1681526020019081526020016000208290806001815401808255809150506001900390600052602060002001600090919091909150556003828154811061369a57fe5b90600052602060002090600402016001018190806001815401808255809150506001900390600052602060002001600090919091909150557f027dd7071e2a04e9c5eaabd02ace2b8c700a4eb05b5c4bd4e27bd7b11fbd8c1b828260016040518084815260200183815260200182151515158152602001935050505060405180910390a15050565b60008061373460105486600f54613be4565b9050600061374760115487600f54613be4565b905060006137706137618385613c3990919063ffffffff16565b88613c5890919063ffffffff16565b905086601460008773ffffffffffffffffffffffffffffffffffffffff1673ffffffffffffffffffffffffffffffffffffffff168152602001908152602001600020600082825403925050819055508260146000600389815481106137d157fe5b906000526020600020906004020160020160009054906101000a900473ffffffffffffffffffffffffffffffffffffffff1673ffffffffffffffffffffffffffffffffffffffff1673ffffffffffffffffffffffffffffffffffffffff1681526020019081526020016000206000828254019250508190555060008090505b886001018054905081101561393357600060058a600101838154811061387257fe5b90600052602060002001548154811061388757fe5b9060005260206000209060040201905060006138ac82600101548c6000015487613c78565b9050808503945080601460008460000160009054906101000a900473ffffffffffffffffffffffffffffffffffffffff1673ffffffffffffffffffffffffffffffffffffffff1673ffffffffffffffffffffffffffffffffffffffff1681526020019081526020016000206000828254019250508190555050508080600101915050613850565b508181019050809350505050949350505050565b6000613951613e13565b604051806080016040528060025481526020018581526020018473ffffffffffffffffffffffffffffffffffffffff16815260200186815250905060038190806001815401808255809150506001900390600052602060002090600402016000909190919091506000820151816000015560208201518160010190805190602001906139de929190613e51565b5060408201518160020160006101000a81548173ffffffffffffffffffffffffffffffffffffffff021916908373ffffffffffffffffffffffffffffffffffffffff1602179055506060820151816003019080519060200190613a42929190613e9e565b505050600460008473ffffffffffffffffffffffffffffffffffffffff1673ffffffffffffffffffffffffffffffffffffffff16815260200190815260200160002081600001519080600181540180825580915050600190039060005260206000200160009091909190915055600260008154809291906001019190505550806040015173ffffffffffffffffffffffffffffffffffffffff167f8b910af69fb425b0e128bb4984faa10fe80c4c5cc9988b195d287772e4d3e949826000015183602001518460600151604051808481526020018060200180602001838103835285818151815260200191508051906020019060200280838360005b83811015613b59578082015181840152602081019050613b3e565b50505050905001838103825284818151815260200191508051906020019080838360005b83811015613b98578082015181840152602081019050613b7d565b50505050905090810190601f168015613bc55780820380516001836020036101000a031916815260200191505b509550505050505060405180910390a280600001519150509392505050565b6000613c30613bfd606484613ca890919063ffffffff16565b613c2284613c148888613ca890919063ffffffff16565b613ca890919063ffffffff16565b613ce290919063ffffffff16565b90509392505050565b600080828401905083811015613c4e57600080fd5b8091505092915050565b600082821115613c6757600080fd5b600082840390508091505092915050565b6000613c9f83613c918487613ca890919063ffffffff16565b613ce290919063ffffffff16565b90509392505050565b600080831415613cbb5760009050613cdc565b6000828402905082848281613ccc57fe5b0414613cd757600080fd5b809150505b92915050565b6000808211613cf057600080fd5b6000828481613cfb57fe5b0490508091505092915050565b828054600181600116156101000203166002900490600052602060002090601f016020900481019282601f10613d4957805160ff1916838001178555613d77565b82800160010185558215613d77579182015b82811115613d76578251825591602001919060010190613d5b565b5b509050613d849190613f1e565b5090565b828054828255906000526020600020908101928215613dc4579160200282015b82811115613dc3578251825591602001919060010190613da8565b5b509050613dd19190613f1e565b5090565b6040518060800160405280600073ffffffffffffffffffffffffffffffffffffffff1681526020016000815260200160008152602001600081525090565b60405180608001604052806000815260200160608152602001600073ffffffffffffffffffffffffffffffffffffffff168152602001606081525090565b828054828255906000526020600020908101928215613e8d579160200282015b82811115613e8c578251825591602001919060010190613e71565b5b509050613e9a9190613f1e565b5090565b828054600181600116156101000203166002900490600052602060002090601f016020900481019282601f10613edf57805160ff1916838001178555613f0d565b82800160010185558215613f0d579182015b82811115613f0c578251825591602001919060010190613ef1565b5b509050613f1a9190613f1e565b5090565b613f4091905b80821115613f3c576000816000905550600101613f24565b5090565b9056fea2646970667358221220d7ef50b31b460b2848a0c8af5e633894b686f9eb03331b7d72b656bc53e7669964736f6c63430006020033",
  "source": "pragma solidity ^0.6.0;\n\nimport './TaggedTopics.sol';\nimport './Percent.sol';\nimport \"openzeppelin-solidity/contracts/token/ERC777/IERC777.sol\";\n\ncontract Algernon is TaggedTopics, Percent {\n  address owner;\n  address TOKEN_ADDRESS;\n  address COMMUNITY_ADDRESS;\n  uint constant DAILY_SECONDS = 86400;\n\n  uint PRECISION = 10 ** 5;\n  uint OWNER_PERCENT  = 1;\n  uint STAKER_PERCENT = 2;\n  uint COMMUNITY_PERCENT = 1;\n  uint STAKE_TIME_LIMIT = 1 * DAILY_SECONDS;\n  mapping (address => uint) public tokenBalances;\n\n  constructor (address _tokenAddress) public {\n    owner = msg.sender;\n    TOKEN_ADDRESS = _tokenAddress;\n  }\n\n  function createTopic(uint256[] memory _tagIds, string memory fileName) public returns (uint) {\n    uint topicId = createUserTopic(fileName, _tagIds, msg.sender);\n\n    return topicId;\n  }\n\n  //when a user stakes, 15% is given to the topic owner, 10% is distributed among stakers\n  //the remaining 75% is staked\n  function distributeStake(TagStake storage _tagStake, uint _amt, uint _topicId, address from) internal returns (uint){\n    uint ownerShare = getPercentShare(OWNER_PERCENT, _amt, PRECISION);\n    uint stakerShare = getPercentShare(STAKER_PERCENT, _amt, PRECISION);\n    uint stakedShare = _amt.sub(ownerShare.add(stakerShare));\n\n    tokenBalances[from] -= _amt;\n    tokenBalances[topics[_topicId].owner] += ownerShare;\n\n\n    for (uint i = 0;i < _tagStake.stakeIdxs.length;i++) {\n      Stake storage stake = stakes[_tagStake.stakeIdxs[i]];\n      uint share = getPercent(stake.amt, _tagStake.totalStaked, stakerShare);\n      stakerShare -= share;\n      tokenBalances[stake.staker] += share;\n    }\n\n    stakedShare += stakerShare;\n    return stakedShare;\n  }\n\n  function addStake(uint _topicId, uint _tagId, uint _amt) public {\n    require(topicIsTagged[_topicId][_tagId], 'Topic must be tagged');\n    require(tokenBalances[msg.sender] >= _amt, 'Insufficient token balance');\n\n    TagStake storage tagStake = stakesByTopic[_topicId][_tagId];\n    uint stakeAmt = distributeStake(tagStake, _amt, _topicId, msg.sender);\n    Stake memory stake = Stake(msg.sender, stakeAmt, _topicId, _tagId);\n    stakes.push(stake);\n    tagStake.totalStaked += stakeAmt;\n    tagStake.stakeIdxs.push(stakes.length-1);\n    stakesByUser[msg.sender].push(stakes.length-1);\n\n    emit StakeAdded(msg.sender, _amt, stakeAmt, _topicId, _tagId);\n\n  }\n\n  function increaseStake(uint _stakeIdx, uint _amt) public {\n    Stake storage stake = stakes[_stakeIdx];\n    require(stake.staker == msg.sender, 'Stake not owned by sender');\n    require(tokenBalances[msg.sender] >= _amt, 'Insufficient token balance');\n\n    TagStake storage tagStake = stakesByTopic[stake.topicId][stake.tagId];\n    uint stakeAmt = distributeStake(tagStake, _amt, stake.topicId, msg.sender);\n    tagStake.totalStaked += stakeAmt;\n    stake.amt += stakeAmt;\n\n    emit StakeUpdated(stake.amt, _stakeIdx);\n  }\n\n  function reduceStake(uint _stakeIdx, uint _amt) public {\n    Stake storage stake = stakes[_stakeIdx];\n    require(stake.staker == msg.sender, 'Stake not owned by sender');\n    stake.amt -= _amt;\n    tokenBalances[msg.sender] += _amt;\n\n    stakesByTopic[stake.topicId][stake.tagId].totalStaked -= _amt;\n\n    emit StakeUpdated(stake.amt, _stakeIdx);\n\n  }\n\n  function getContractTokenBalance() public view returns (uint256) {\n    return IERC777(TOKEN_ADDRESS).balanceOf(address(this));\n  }\n\n  function getAlgernonTokenBalance(address _account) public view returns (uint) {\n    return tokenBalances[_account];\n  }\n\n  function depositTokens(uint _amt) public {\n    uint depositerBalance = IERC777(TOKEN_ADDRESS).balanceOf(msg.sender);\n    require(depositerBalance >= _amt, 'Insufficient token balance');\n\n    IERC777(TOKEN_ADDRESS).operatorSend(msg.sender, address(this), _amt, \"\", \"\");\n    tokenBalances[msg.sender] += _amt;\n  }\n\n  function withdrawTokens(uint _amt) public {\n    require(tokenBalances[msg.sender] >= _amt, 'Insufficient token balance');\n    tokenBalances[msg.sender] -= _amt;\n    IERC777(TOKEN_ADDRESS).send(msg.sender, _amt, \"\");\n\n  }\n }\n",
  "sourcePath": "/home/steve/codes/algernon_dapp/contracts/contracts/Algernon.sol",
  "compiler": {
    "name": "solc",
    "version": "0.6.2+commit.bacdbe57.Emscripten.clang"
  },
  "schemaVersion": "3.0.23",
  "updatedAt": "2020-10-18T03:34:24.682Z",
  "devdoc": {
    "methods": {}
  },
  "userdoc": {
    "methods": {}
  }
}