{
  "contractName": "Algernon",
  "abi": [
    {
      "inputs": [
        {
          "internalType": "address",
          "name": "_tokenAddress",
          "type": "address"
        }
      ],
      "stateMutability": "nonpayable",
      "type": "constructor"
    },
    {
      "anonymous": false,
      "inputs": [
        {
          "indexed": true,
          "internalType": "bytes32",
          "name": "role",
          "type": "bytes32"
        },
        {
          "indexed": true,
          "internalType": "bytes32",
          "name": "previousAdminRole",
          "type": "bytes32"
        },
        {
          "indexed": true,
          "internalType": "bytes32",
          "name": "newAdminRole",
          "type": "bytes32"
        }
      ],
      "name": "RoleAdminChanged",
      "type": "event"
    },
    {
      "anonymous": false,
      "inputs": [
        {
          "indexed": true,
          "internalType": "bytes32",
          "name": "role",
          "type": "bytes32"
        },
        {
          "indexed": true,
          "internalType": "address",
          "name": "account",
          "type": "address"
        },
        {
          "indexed": true,
          "internalType": "address",
          "name": "sender",
          "type": "address"
        }
      ],
      "name": "RoleGranted",
      "type": "event"
    },
    {
      "anonymous": false,
      "inputs": [
        {
          "indexed": true,
          "internalType": "bytes32",
          "name": "role",
          "type": "bytes32"
        },
        {
          "indexed": true,
          "internalType": "address",
          "name": "account",
          "type": "address"
        },
        {
          "indexed": true,
          "internalType": "address",
          "name": "sender",
          "type": "address"
        }
      ],
      "name": "RoleRevoked",
      "type": "event"
    },
    {
      "anonymous": false,
      "inputs": [
        {
          "indexed": false,
          "internalType": "address",
          "name": "staker",
          "type": "address"
        },
        {
          "indexed": false,
          "internalType": "uint256",
          "name": "totalAmt",
          "type": "uint256"
        },
        {
          "indexed": false,
          "internalType": "uint256",
          "name": "stakeAmt",
          "type": "uint256"
        },
        {
          "indexed": false,
          "internalType": "uint256",
          "name": "topicId",
          "type": "uint256"
        },
        {
          "indexed": false,
          "internalType": "uint256",
          "name": "tagId",
          "type": "uint256"
        }
      ],
      "name": "StakeAdded",
      "type": "event"
    },
    {
      "anonymous": false,
      "inputs": [
        {
          "indexed": false,
          "internalType": "uint256",
          "name": "amt",
          "type": "uint256"
        },
        {
          "indexed": false,
          "internalType": "uint256",
          "name": "stakeIdx",
          "type": "uint256"
        }
      ],
      "name": "StakeUpdated",
      "type": "event"
    },
    {
      "anonymous": false,
      "inputs": [
        {
          "indexed": false,
          "internalType": "uint256",
          "name": "id",
          "type": "uint256"
        },
        {
          "indexed": false,
          "internalType": "string",
          "name": "tag",
          "type": "string"
        },
        {
          "indexed": false,
          "internalType": "uint256",
          "name": "parent",
          "type": "uint256"
        },
        {
          "indexed": false,
          "internalType": "address",
          "name": "addedBy",
          "type": "address"
        }
      ],
      "name": "TagAdded",
      "type": "event"
    },
    {
      "anonymous": false,
      "inputs": [
        {
          "indexed": false,
          "internalType": "uint256",
          "name": "id",
          "type": "uint256"
        },
        {
          "indexed": false,
          "internalType": "string",
          "name": "tag",
          "type": "string"
        },
        {
          "indexed": false,
          "internalType": "uint256",
          "name": "parent",
          "type": "uint256"
        },
        {
          "indexed": false,
          "internalType": "address",
          "name": "updatedBy",
          "type": "address"
        }
      ],
      "name": "TagUpdated",
      "type": "event"
    },
    {
      "anonymous": false,
      "inputs": [
        {
          "indexed": false,
          "internalType": "uint256",
          "name": "id",
          "type": "uint256"
        },
        {
          "indexed": false,
          "internalType": "uint256[]",
          "name": "tagIds",
          "type": "uint256[]"
        },
        {
          "indexed": true,
          "internalType": "address",
          "name": "owner",
          "type": "address"
        },
        {
          "indexed": false,
          "internalType": "string",
          "name": "content",
          "type": "string"
        }
      ],
      "name": "TopicCreated",
      "type": "event"
    },
    {
      "anonymous": false,
      "inputs": [
        {
          "indexed": false,
          "internalType": "uint256",
          "name": "topicId",
          "type": "uint256"
        },
        {
          "indexed": false,
          "internalType": "uint256",
          "name": "tagId",
          "type": "uint256"
        },
        {
          "indexed": false,
          "internalType": "bool",
          "name": "added",
          "type": "bool"
        }
      ],
      "name": "TopicTagUpdated",
      "type": "event"
    },
    {
      "anonymous": false,
      "inputs": [
        {
          "indexed": false,
          "internalType": "uint256",
          "name": "id",
          "type": "uint256"
        },
        {
          "indexed": false,
          "internalType": "uint256[]",
          "name": "tagIds",
          "type": "uint256[]"
        }
      ],
      "name": "TopicTagsUpdated",
      "type": "event"
    },
    {
      "anonymous": false,
      "inputs": [
        {
          "indexed": false,
          "internalType": "uint256",
          "name": "id",
          "type": "uint256"
        },
        {
          "indexed": false,
          "internalType": "uint256[]",
          "name": "tagIds",
          "type": "uint256[]"
        },
        {
          "indexed": false,
          "internalType": "string",
          "name": "content",
          "type": "string"
        }
      ],
      "name": "TopicUpdated",
      "type": "event"
    },
    {
      "inputs": [],
      "name": "DEFAULT_ADMIN_ROLE",
      "outputs": [
        {
          "internalType": "bytes32",
          "name": "",
          "type": "bytes32"
        }
      ],
      "stateMutability": "view",
      "type": "function",
      "constant": true
    },
    {
      "inputs": [],
      "name": "TAGGER_ROLE",
      "outputs": [
        {
          "internalType": "bytes32",
          "name": "",
          "type": "bytes32"
        }
      ],
      "stateMutability": "view",
      "type": "function",
      "constant": true
    },
    {
      "inputs": [
        {
          "internalType": "string",
          "name": "_tag",
          "type": "string"
        },
        {
          "internalType": "uint256",
          "name": "_parent",
          "type": "uint256"
        }
      ],
      "name": "addTag",
      "outputs": [],
      "stateMutability": "nonpayable",
      "type": "function"
    },
    {
      "inputs": [
        {
          "internalType": "bytes32",
          "name": "role",
          "type": "bytes32"
        }
      ],
      "name": "getRoleAdmin",
      "outputs": [
        {
          "internalType": "bytes32",
          "name": "",
          "type": "bytes32"
        }
      ],
      "stateMutability": "view",
      "type": "function",
      "constant": true
    },
    {
      "inputs": [
        {
          "internalType": "bytes32",
          "name": "role",
          "type": "bytes32"
        },
        {
          "internalType": "uint256",
          "name": "index",
          "type": "uint256"
        }
      ],
      "name": "getRoleMember",
      "outputs": [
        {
          "internalType": "address",
          "name": "",
          "type": "address"
        }
      ],
      "stateMutability": "view",
      "type": "function",
      "constant": true
    },
    {
      "inputs": [
        {
          "internalType": "bytes32",
          "name": "role",
          "type": "bytes32"
        }
      ],
      "name": "getRoleMemberCount",
      "outputs": [
        {
          "internalType": "uint256",
          "name": "",
          "type": "uint256"
        }
      ],
      "stateMutability": "view",
      "type": "function",
      "constant": true
    },
    {
      "inputs": [
        {
          "internalType": "uint256",
          "name": "_id",
          "type": "uint256"
        }
      ],
      "name": "getTag",
      "outputs": [
        {
          "internalType": "uint256",
          "name": "",
          "type": "uint256"
        },
        {
          "internalType": "string",
          "name": "",
          "type": "string"
        },
        {
          "internalType": "uint256",
          "name": "",
          "type": "uint256"
        }
      ],
      "stateMutability": "view",
      "type": "function",
      "constant": true
    },
    {
      "inputs": [
        {
          "internalType": "uint256",
          "name": "_tagId",
          "type": "uint256"
        },
        {
          "internalType": "address",
          "name": "_address",
          "type": "address"
        }
      ],
      "name": "getTagAddressTopicIds",
      "outputs": [
        {
          "internalType": "uint256[]",
          "name": "",
          "type": "uint256[]"
        }
      ],
      "stateMutability": "view",
      "type": "function",
      "constant": true
    },
    {
      "inputs": [
        {
          "internalType": "uint256",
          "name": "_tagId",
          "type": "uint256"
        }
      ],
      "name": "getTagAddresses",
      "outputs": [
        {
          "internalType": "address[]",
          "name": "",
          "type": "address[]"
        }
      ],
      "stateMutability": "view",
      "type": "function",
      "constant": true
    },
    {
      "inputs": [],
      "name": "getTagCount",
      "outputs": [
        {
          "internalType": "uint256",
          "name": "",
          "type": "uint256"
        }
      ],
      "stateMutability": "view",
      "type": "function",
      "constant": true
    },
    {
      "inputs": [
        {
          "internalType": "uint256",
          "name": "_id",
          "type": "uint256"
        }
      ],
      "name": "getTopic",
      "outputs": [
        {
          "internalType": "string",
          "name": "content",
          "type": "string"
        },
        {
          "internalType": "address",
          "name": "owner",
          "type": "address"
        },
        {
          "internalType": "uint256[]",
          "name": "tagIds",
          "type": "uint256[]"
        }
      ],
      "stateMutability": "view",
      "type": "function",
      "constant": true
    },
    {
      "inputs": [],
      "name": "getTopicCount",
      "outputs": [
        {
          "internalType": "uint256",
          "name": "",
          "type": "uint256"
        }
      ],
      "stateMutability": "view",
      "type": "function",
      "constant": true
    },
    {
      "inputs": [
        {
          "internalType": "uint256",
          "name": "_id",
          "type": "uint256"
        }
      ],
      "name": "getTopicTagIds",
      "outputs": [
        {
          "internalType": "uint256[]",
          "name": "",
          "type": "uint256[]"
        }
      ],
      "stateMutability": "view",
      "type": "function",
      "constant": true
    },
    {
      "inputs": [
        {
          "internalType": "uint256",
          "name": "_topicId",
          "type": "uint256"
        },
        {
          "internalType": "uint256",
          "name": "_tagId",
          "type": "uint256"
        }
      ],
      "name": "getTopicTagStakeTotal",
      "outputs": [
        {
          "internalType": "uint256",
          "name": "",
          "type": "uint256"
        }
      ],
      "stateMutability": "view",
      "type": "function",
      "constant": true
    },
    {
      "inputs": [
        {
          "internalType": "uint256",
          "name": "_topicId",
          "type": "uint256"
        },
        {
          "internalType": "uint256",
          "name": "_tagId",
          "type": "uint256"
        }
      ],
      "name": "getTopicTagStakes",
      "outputs": [
        {
          "internalType": "uint256[]",
          "name": "idxs",
          "type": "uint256[]"
        },
        {
          "internalType": "uint256[]",
          "name": "amts",
          "type": "uint256[]"
        },
        {
          "internalType": "address[]",
          "name": "stakers",
          "type": "address[]"
        }
      ],
      "stateMutability": "view",
      "type": "function",
      "constant": true
    },
    {
      "inputs": [
        {
          "internalType": "address",
          "name": "_address",
          "type": "address"
        }
      ],
      "name": "getUserStakeIds",
      "outputs": [
        {
          "internalType": "uint256[]",
          "name": "",
          "type": "uint256[]"
        }
      ],
      "stateMutability": "view",
      "type": "function",
      "constant": true
    },
    {
      "inputs": [
        {
          "internalType": "address",
          "name": "_user",
          "type": "address"
        }
      ],
      "name": "getUserTopicCount",
      "outputs": [
        {
          "internalType": "uint256",
          "name": "",
          "type": "uint256"
        }
      ],
      "stateMutability": "view",
      "type": "function",
      "constant": true
    },
    {
      "inputs": [
        {
          "internalType": "address",
          "name": "_user",
          "type": "address"
        }
      ],
      "name": "getUserTopicIds",
      "outputs": [
        {
          "internalType": "uint256[]",
          "name": "",
          "type": "uint256[]"
        }
      ],
      "stateMutability": "view",
      "type": "function",
      "constant": true
    },
    {
      "inputs": [
        {
          "internalType": "address",
          "name": "_addr",
          "type": "address"
        }
      ],
      "name": "grantAdminRole",
      "outputs": [],
      "stateMutability": "nonpayable",
      "type": "function"
    },
    {
      "inputs": [
        {
          "internalType": "bytes32",
          "name": "role",
          "type": "bytes32"
        },
        {
          "internalType": "address",
          "name": "account",
          "type": "address"
        }
      ],
      "name": "grantRole",
      "outputs": [],
      "stateMutability": "nonpayable",
      "type": "function"
    },
    {
      "inputs": [
        {
          "internalType": "address",
          "name": "_addr",
          "type": "address"
        }
      ],
      "name": "grantTaggerRole",
      "outputs": [],
      "stateMutability": "nonpayable",
      "type": "function"
    },
    {
      "inputs": [
        {
          "internalType": "bytes32",
          "name": "role",
          "type": "bytes32"
        },
        {
          "internalType": "address",
          "name": "account",
          "type": "address"
        }
      ],
      "name": "hasRole",
      "outputs": [
        {
          "internalType": "bool",
          "name": "",
          "type": "bool"
        }
      ],
      "stateMutability": "view",
      "type": "function",
      "constant": true
    },
    {
      "inputs": [
        {
          "internalType": "address",
          "name": "_addr",
          "type": "address"
        }
      ],
      "name": "isAdmin",
      "outputs": [
        {
          "internalType": "bool",
          "name": "",
          "type": "bool"
        }
      ],
      "stateMutability": "view",
      "type": "function",
      "constant": true
    },
    {
      "inputs": [
        {
          "internalType": "address",
          "name": "_addr",
          "type": "address"
        }
      ],
      "name": "isTagger",
      "outputs": [
        {
          "internalType": "bool",
          "name": "",
          "type": "bool"
        }
      ],
      "stateMutability": "view",
      "type": "function",
      "constant": true
    },
    {
      "inputs": [
        {
          "internalType": "bytes32",
          "name": "role",
          "type": "bytes32"
        },
        {
          "internalType": "address",
          "name": "account",
          "type": "address"
        }
      ],
      "name": "renounceRole",
      "outputs": [],
      "stateMutability": "nonpayable",
      "type": "function"
    },
    {
      "inputs": [
        {
          "internalType": "address",
          "name": "_addr",
          "type": "address"
        }
      ],
      "name": "revokeAdminRole",
      "outputs": [],
      "stateMutability": "nonpayable",
      "type": "function"
    },
    {
      "inputs": [
        {
          "internalType": "bytes32",
          "name": "role",
          "type": "bytes32"
        },
        {
          "internalType": "address",
          "name": "account",
          "type": "address"
        }
      ],
      "name": "revokeRole",
      "outputs": [],
      "stateMutability": "nonpayable",
      "type": "function"
    },
    {
      "inputs": [
        {
          "internalType": "address",
          "name": "_addr",
          "type": "address"
        }
      ],
      "name": "revokeTaggerRole",
      "outputs": [],
      "stateMutability": "nonpayable",
      "type": "function"
    },
    {
      "inputs": [
        {
          "internalType": "string",
          "name": "",
          "type": "string"
        }
      ],
      "name": "tagExists",
      "outputs": [
        {
          "internalType": "bool",
          "name": "",
          "type": "bool"
        }
      ],
      "stateMutability": "view",
      "type": "function",
      "constant": true
    },
    {
      "inputs": [
        {
          "internalType": "address",
          "name": "",
          "type": "address"
        }
      ],
      "name": "tokenBalances",
      "outputs": [
        {
          "internalType": "uint256",
          "name": "",
          "type": "uint256"
        }
      ],
      "stateMutability": "view",
      "type": "function",
      "constant": true
    },
    {
      "inputs": [
        {
          "internalType": "uint256",
          "name": "_id",
          "type": "uint256"
        },
        {
          "internalType": "uint256",
          "name": "_newParent",
          "type": "uint256"
        }
      ],
      "name": "updateParent",
      "outputs": [],
      "stateMutability": "nonpayable",
      "type": "function"
    },
    {
      "inputs": [
        {
          "internalType": "uint256",
          "name": "_id",
          "type": "uint256"
        },
        {
          "internalType": "uint256[]",
          "name": "_tagIds",
          "type": "uint256[]"
        },
        {
          "internalType": "string",
          "name": "_fileName",
          "type": "string"
        }
      ],
      "name": "updateTopic",
      "outputs": [],
      "stateMutability": "nonpayable",
      "type": "function"
    },
    {
      "inputs": [
        {
          "internalType": "uint256[]",
          "name": "_tagIds",
          "type": "uint256[]"
        },
        {
          "internalType": "uint256",
          "name": "_topicId",
          "type": "uint256"
        }
      ],
      "name": "updateTopicTags",
      "outputs": [],
      "stateMutability": "nonpayable",
      "type": "function"
    },
    {
      "inputs": [
        {
          "internalType": "uint256[]",
          "name": "_addIds",
          "type": "uint256[]"
        },
        {
          "internalType": "uint256[]",
          "name": "_removeIds",
          "type": "uint256[]"
        },
        {
          "internalType": "uint256[]",
          "name": "_topicTagIdxs",
          "type": "uint256[]"
        },
        {
          "internalType": "uint256[]",
          "name": "_taggedUserTopicIdxs",
          "type": "uint256[]"
        },
        {
          "internalType": "uint256",
          "name": "_topicId",
          "type": "uint256"
        }
      ],
      "name": "updateTopicTags",
      "outputs": [],
      "stateMutability": "nonpayable",
      "type": "function"
    },
    {
      "inputs": [
        {
          "internalType": "uint256[]",
          "name": "_tagIds",
          "type": "uint256[]"
        },
        {
          "internalType": "string",
          "name": "fileName",
          "type": "string"
        }
      ],
      "name": "createTopic",
      "outputs": [
        {
          "internalType": "uint256",
          "name": "",
          "type": "uint256"
        }
      ],
      "stateMutability": "nonpayable",
      "type": "function"
    },
    {
      "inputs": [
        {
          "internalType": "uint256",
          "name": "_topicId",
          "type": "uint256"
        },
        {
          "internalType": "uint256",
          "name": "_tagId",
          "type": "uint256"
        },
        {
          "internalType": "uint256",
          "name": "_amt",
          "type": "uint256"
        }
      ],
      "name": "addStake",
      "outputs": [],
      "stateMutability": "nonpayable",
      "type": "function"
    },
    {
      "inputs": [
        {
          "internalType": "uint256",
          "name": "_stakeIdx",
          "type": "uint256"
        },
        {
          "internalType": "uint256",
          "name": "_amt",
          "type": "uint256"
        }
      ],
      "name": "increaseStake",
      "outputs": [],
      "stateMutability": "nonpayable",
      "type": "function"
    },
    {
      "inputs": [
        {
          "internalType": "uint256",
          "name": "_stakeIdx",
          "type": "uint256"
        },
        {
          "internalType": "uint256",
          "name": "_amt",
          "type": "uint256"
        }
      ],
      "name": "reduceStake",
      "outputs": [],
      "stateMutability": "nonpayable",
      "type": "function"
    },
    {
      "inputs": [],
      "name": "getContractTokenBalance",
      "outputs": [
        {
          "internalType": "uint256",
          "name": "",
          "type": "uint256"
        }
      ],
      "stateMutability": "view",
      "type": "function",
      "constant": true
    },
    {
      "inputs": [
        {
          "internalType": "address",
          "name": "_account",
          "type": "address"
        }
      ],
      "name": "getAlgernonTokenBalance",
      "outputs": [
        {
          "internalType": "uint256",
          "name": "",
          "type": "uint256"
        }
      ],
      "stateMutability": "view",
      "type": "function",
      "constant": true
    },
    {
      "inputs": [
        {
          "internalType": "uint256",
          "name": "_amt",
          "type": "uint256"
        }
      ],
      "name": "depositTokens",
      "outputs": [],
      "stateMutability": "nonpayable",
      "type": "function"
    },
    {
      "inputs": [
        {
          "internalType": "uint256",
          "name": "_amt",
          "type": "uint256"
        }
      ],
      "name": "withdrawTokens",
      "outputs": [],
      "stateMutability": "nonpayable",
      "type": "function"
    }
  ],
  "bytecode": "0x6080604052620186a0601055600160115560026012556001601355620151806001026014553480156200003157600080fd5b506040516200538438038062005384833981810160405260208110156200005757600080fd5b81019080805190602001909291905050506200007d6000801b336200013860201b60201c565b620000af7fa807086040659eb7db9d31549a4199b0f7dd99f763c671636e80d5e5dc36a5d0336200014e60201b60201c565b33600d60006101000a81548173ffffffffffffffffffffffffffffffffffffffff021916908373ffffffffffffffffffffffffffffffffffffffff16021790555080600e60006101000a81548173ffffffffffffffffffffffffffffffffffffffff021916908373ffffffffffffffffffffffffffffffffffffffff16021790555050620003e1565b6200014a8282620001f160201b60201c565b5050565b6200018460008084815260200190815260200160002060020154620001786200029460201b60201c565b6200029c60201b60201c565b620001db576040517f08c379a000000000000000000000000000000000000000000000000000000000815260040180806020018281038252602f81526020018062005355602f913960400191505060405180910390fd5b620001ed8282620001f160201b60201c565b5050565b6200021f81600080858152602001908152602001600020600001620002d460201b6200390d1790919060201c565b156200029057620002356200029460201b60201c565b73ffffffffffffffffffffffffffffffffffffffff168173ffffffffffffffffffffffffffffffffffffffff16837f2f8788117e7eff1d82e926ec794901d17c78024a50270940304540a733656f0d60405160405180910390a45b5050565b600033905090565b6000620002cc826000808681526020019081526020016000206000016200030c60201b6200393d1790919060201c565b905092915050565b600062000304836000018373ffffffffffffffffffffffffffffffffffffffff1660001b6200034460201b60201c565b905092915050565b60006200033c836000018373ffffffffffffffffffffffffffffffffffffffff1660001b620003be60201b60201c565b905092915050565b6000620003588383620003be60201b60201c565b620003b3578260000182908060018154018082558091505060019003906000526020600020016000909190919091505582600001805490508360010160008481526020019081526020016000208190555060019050620003b8565b600090505b92915050565b600080836001016000848152602001908152602001600020541415905092915050565b614f6480620003f16000396000f3fe608060405234801561001057600080fd5b506004361061025e5760003560e01c8063762a8bd511610146578063c634b78e116100c3578063d58c704411610087578063d58c70441461150d578063dc8b372514611545578063dd49756e1461159d578063e17a82db146115cb578063e3bb12e01461160f578063f6293738146116535761025e565b8063c634b78e146113e3578063ca15c87314611427578063cc89698c14611469578063d1a29dbd14611487578063d547741f146114bf5761025e565b80639a19c7b01161010a5780639a19c7b0146112d3578063a217fddf14611317578063a828d5d114611335578063b2362add1461138d578063bec10cde146113ab5761025e565b8063762a8bd514611085578063828fe4d01461111e5780639010d07c146111ef57806391d1485414611251578063986f191c146112b55761025e565b8063317d9453116101df57806350a5f108116101a357806350a5f10814610baa578063523fba7f14610bec5780636107d6fc14610c44578063691bbb6914610d615780637165889614610e1657806374b649c214610f225761025e565b8063317d9453146107af57806336568abe146107cd57806340073aaa1461081b57806340f1725d146108e057806346d9386014610b5e5761025e565b806324d7806c1161022657806324d7806c1461057e57806328a3f5e5146105d85780632f2ff15d1461069a578063313da78f146106e8578063315a095d146107815761025e565b80630317b6811461026357806303820948146103bc5780630a2b7cf01461041657806317f2feb614610499578063248a9ca31461053c575b600080fd5b6103ba6004803603606081101561027957600080fd5b8101908080359060200190929190803590602001906401000000008111156102a057600080fd5b8201836020820111156102b257600080fd5b803590602001918460208302840111640100000000831117156102d457600080fd5b919080806020026020016040519081016040528093929190818152602001838360200280828437600081840152601f19601f8201169050808301925050505050505091929192908035906020019064010000000081111561033457600080fd5b82018360208201111561034657600080fd5b8035906020019184600183028401116401000000008311171561036857600080fd5b91908080601f016020809104026020016040519081016040528093929190818152602001838380828437600081840152601f19601f8201169050808301925050505050505091929192905050506116d6565b005b6103fe600480360360208110156103d257600080fd5b81019080803573ffffffffffffffffffffffffffffffffffffffff16906020019092919050505061183e565b60405180821515815260200191505060405180910390f35b6104426004803603602081101561042c57600080fd5b8101908080359060200190929190505050611871565b6040518080602001828103825283818151815260200191508051906020019060200280838360005b8381101561048557808201518184015260208101905061046a565b505050509050019250505060405180910390f35b6104e5600480360360408110156104af57600080fd5b8101908080359060200190929190803573ffffffffffffffffffffffffffffffffffffffff1690602001909291905050506118e7565b6040518080602001828103825283818151815260200191508051906020019060200280838360005b8381101561052857808201518184015260208101905061050d565b505050509050019250505060405180910390f35b6105686004803603602081101561055257600080fd5b8101908080359060200190929190505050611990565b6040518082815260200191505060405180910390f35b6105c06004803603602081101561059457600080fd5b81019080803573ffffffffffffffffffffffffffffffffffffffff1690602001909291905050506119af565b60405180821515815260200191505060405180910390f35b610698600480360360408110156105ee57600080fd5b810190808035906020019064010000000081111561060b57600080fd5b82018360208201111561061d57600080fd5b8035906020019184602083028401116401000000008311171561063f57600080fd5b919080806020026020016040519081016040528093929190818152602001838360200280828437600081840152601f19601f820116905080830192505050505050509192919290803590602001909291905050506119c5565b005b6106e6600480360360408110156106b057600080fd5b8101908080359060200190929190803573ffffffffffffffffffffffffffffffffffffffff169060200190929190505050611a86565b005b61072a600480360360208110156106fe57600080fd5b81019080803573ffffffffffffffffffffffffffffffffffffffff169060200190929190505050611b0f565b6040518080602001828103825283818151815260200191508051906020019060200280838360005b8381101561076d578082015181840152602081019050610752565b505050509050019250505060405180910390f35b6107ad6004803603602081101561079757600080fd5b8101908080359060200190929190505050611ba6565b005b6107b7611d6a565b6040518082815260200191505060405180910390f35b610819600480360360408110156107e357600080fd5b8101908080359060200190929190803573ffffffffffffffffffffffffffffffffffffffff169060200190929190505050611e35565b005b6108de6004803603604081101561083157600080fd5b810190808035906020019064010000000081111561084e57600080fd5b82018360208201111561086057600080fd5b8035906020019184600183028401116401000000008311171561088257600080fd5b91908080601f016020809104026020016040519081016040528093929190818152602001838380828437600081840152601f19601f82011690508083019250505050505050919291929080359060200190929190505050611ece565b005b610b5c600480360360a08110156108f657600080fd5b810190808035906020019064010000000081111561091357600080fd5b82018360208201111561092557600080fd5b8035906020019184602083028401116401000000008311171561094757600080fd5b919080806020026020016040519081016040528093929190818152602001838360200280828437600081840152601f19601f820116905080830192505050505050509192919290803590602001906401000000008111156109a757600080fd5b8201836020820111156109b957600080fd5b803590602001918460208302840111640100000000831117156109db57600080fd5b919080806020026020016040519081016040528093929190818152602001838360200280828437600081840152601f19601f82011690508083019250505050505050919291929080359060200190640100000000811115610a3b57600080fd5b820183602082011115610a4d57600080fd5b80359060200191846020830284011164010000000083111715610a6f57600080fd5b919080806020026020016040519081016040528093929190818152602001838360200280828437600081840152601f19601f82011690508083019250505050505050919291929080359060200190640100000000811115610acf57600080fd5b820183602082011115610ae157600080fd5b80359060200191846020830284011164010000000083111715610b0357600080fd5b919080806020026020016040519081016040528093929190818152602001838360200280828437600081840152601f19601f820116905080830192505050505050509192919290803590602001909291905050506122a4565b005b610b9460048036036040811015610b7457600080fd5b810190808035906020019092919080359060200190929190505050612341565b6040518082815260200191505060405180910390f35b610bea60048036036060811015610bc057600080fd5b81019080803590602001909291908035906020019092919080359060200190929190505050612373565b005b610c2e60048036036020811015610c0257600080fd5b81019080803573ffffffffffffffffffffffffffffffffffffffff169060200190929190505050612700565b6040518082815260200191505060405180910390f35b610c7a60048036036040811015610c5a57600080fd5b810190808035906020019092919080359060200190929190505050612718565b60405180806020018060200180602001848103845287818151815260200191508051906020019060200280838360005b83811015610cc5578082015181840152602081019050610caa565b50505050905001848103835286818151815260200191508051906020019060200280838360005b83811015610d07578082015181840152602081019050610cec565b50505050905001848103825285818151815260200191508051906020019060200280838360005b83811015610d49578082015181840152602081019050610d2e565b50505050905001965050505050505060405180910390f35b610d8d60048036036020811015610d7757600080fd5b8101908080359060200190929190505050612981565b6040518084815260200180602001838152602001828103825284818151815260200191508051906020019080838360005b83811015610dd9578082015181840152602081019050610dbe565b50505050905090810190601f168015610e065780820380516001836020036101000a031916815260200191505b5094505050505060405180910390f35b610e4260048036036020811015610e2c57600080fd5b8101908080359060200190929190505050612a5c565b60405180806020018473ffffffffffffffffffffffffffffffffffffffff16815260200180602001838103835286818151815260200191508051906020019080838360005b83811015610ea2578082015181840152602081019050610e87565b50505050905090810190601f168015610ecf5780820380516001836020036101000a031916815260200191505b50838103825284818151815260200191508051906020019060200280838360005b83811015610f0b578082015181840152602081019050610ef0565b505050509050019550505050505060405180910390f35b61106f60048036036040811015610f3857600080fd5b8101908080359060200190640100000000811115610f5557600080fd5b820183602082011115610f6757600080fd5b80359060200191846020830284011164010000000083111715610f8957600080fd5b919080806020026020016040519081016040528093929190818152602001838360200280828437600081840152601f19601f82011690508083019250505050505050919291929080359060200190640100000000811115610fe957600080fd5b820183602082011115610ffb57600080fd5b8035906020019184600183028401116401000000008311171561101d57600080fd5b91908080601f016020809104026020016040519081016040528093929190818152602001838380828437600081840152601f19601f820116905080830192505050505050509192919290505050612bd2565b6040518082815260200191505060405180910390f35b6110c76004803603602081101561109b57600080fd5b81019080803573ffffffffffffffffffffffffffffffffffffffff169060200190929190505050612bec565b6040518080602001828103825283818151815260200191508051906020019060200280838360005b8381101561110a5780820151818401526020810190506110ef565b505050509050019250505060405180910390f35b6111d76004803603602081101561113457600080fd5b810190808035906020019064010000000081111561115157600080fd5b82018360208201111561116357600080fd5b8035906020019184600183028401116401000000008311171561118557600080fd5b91908080601f016020809104026020016040519081016040528093929190818152602001838380828437600081840152601f19601f820116905080830192505050505050509192919290505050612c83565b60405180821515815260200191505060405180910390f35b6112256004803603604081101561120557600080fd5b810190808035906020019092919080359060200190929190505050612cb9565b604051808273ffffffffffffffffffffffffffffffffffffffff16815260200191505060405180910390f35b61129d6004803603604081101561126757600080fd5b8101908080359060200190929190803573ffffffffffffffffffffffffffffffffffffffff169060200190929190505050612cea565b60405180821515815260200191505060405180910390f35b6112bd612d1b565b6040518082815260200191505060405180910390f35b611315600480360360208110156112e957600080fd5b81019080803573ffffffffffffffffffffffffffffffffffffffff169060200190929190505050612d28565b005b61131f612d38565b6040518082815260200191505060405180910390f35b6113776004803603602081101561134b57600080fd5b81019080803573ffffffffffffffffffffffffffffffffffffffff169060200190929190505050612d3f565b6040518082815260200191505060405180910390f35b611395612d8b565b6040518082815260200191505060405180910390f35b6113e1600480360360408110156113c157600080fd5b810190808035906020019092919080359060200190929190505050612daf565b005b611425600480360360208110156113f957600080fd5b81019080803573ffffffffffffffffffffffffffffffffffffffff169060200190929190505050612ffa565b005b6114536004803603602081101561143d57600080fd5b810190808035906020019092919050505061300a565b6040518082815260200191505060405180910390f35b611471613030565b6040518082815260200191505060405180910390f35b6114bd6004803603604081101561149d57600080fd5b81019080803590602001909291908035906020019092919050505061303d565b005b61150b600480360360408110156114d557600080fd5b8101908080359060200190929190803573ffffffffffffffffffffffffffffffffffffffff169060200190929190505050613205565b005b6115436004803603604081101561152357600080fd5b81019080803590602001909291908035906020019092919050505061328e565b005b6115876004803603602081101561155b57600080fd5b81019080803573ffffffffffffffffffffffffffffffffffffffff169060200190929190505050613549565b6040518082815260200191505060405180910390f35b6115c9600480360360208110156115b357600080fd5b8101908080359060200190929190505050613592565b005b61160d600480360360208110156115e157600080fd5b81019080803573ffffffffffffffffffffffffffffffffffffffff169060200190929190505050613812565b005b6116516004803603602081101561162557600080fd5b81019080803573ffffffffffffffffffffffffffffffffffffffff16906020019092919050505061383f565b005b61167f6004803603602081101561166957600080fd5b810190808035906020019092919050505061386c565b6040518080602001828103825283818151815260200191508051906020019060200280838360005b838110156116c25780820151818401526020810190506116a7565b505050509050019250505060405180910390f35b6000600484815481106116e557fe5b906000526020600020906004020190508181600301908051906020019061170d929190614cfe565b5082816001019080519060200190611726929190614d7e565b507fd8e275d29f373157a51081b082dfddd9995ce4bd36c1fe1b892f8d8df9c599858160000154826001018360030160405180848152602001806020018060200183810383528581815481526020019150805480156117a457602002820191906000526020600020905b815481526020019060010190808311611790575b50508381038252848181546001816001161561010002031660029004815260200191508054600181600116156101000203166002900480156118275780601f106117fc57610100808354040283529160200191611827565b820191906000526020600020905b81548152906001019060200180831161180a57829003601f168201915b50509550505050505060405180910390a150505050565b600061186a7fa807086040659eb7db9d31549a4199b0f7dd99f763c671636e80d5e5dc36a5d083612cea565b9050919050565b60606004828154811061188057fe5b90600052602060002090600402016001018054806020026020016040519081016040528092919081815260200182805480156118db57602002820191906000526020600020905b8154815260200190600101908083116118c7575b50505050509050919050565b6060600a600084815260200190815260200160002060008373ffffffffffffffffffffffffffffffffffffffff1673ffffffffffffffffffffffffffffffffffffffff16815260200190815260200160002080548060200260200160405190810160405280929190818152602001828054801561198357602002820191906000526020600020905b81548152602001906001019080831161196f575b5050505050905092915050565b6000806000838152602001908152602001600020600201549050919050565b60006119be6000801b83612cea565b9050919050565b6000600482815481106119d457fe5b90600052602060002090600402019050828160010190805190602001906119fc929190614d7e565b507ff9e07a0f3220589d9d05b68b9de495d5fe3086c9680812cf5fe277b15f00b7e981600001548260010160405180838152602001806020018281038252838181548152602001915080548015611a7257602002820191906000526020600020905b815481526020019060010190808311611a5e575b5050935050505060405180910390a1505050565b611aac60008084815260200190815260200160002060020154611aa761396d565b612cea565b611b01576040517f08c379a000000000000000000000000000000000000000000000000000000000815260040180806020018281038252602f815260200180614ea1602f913960400191505060405180910390fd5b611b0b8282613975565b5050565b6060600960008373ffffffffffffffffffffffffffffffffffffffff1673ffffffffffffffffffffffffffffffffffffffff168152602001908152602001600020805480602002602001604051908101604052809291908181526020018280548015611b9a57602002820191906000526020600020905b815481526020019060010190808311611b86575b50505050509050919050565b80601560003373ffffffffffffffffffffffffffffffffffffffff1673ffffffffffffffffffffffffffffffffffffffff168152602001908152602001600020541015611c5b576040517f08c379a000000000000000000000000000000000000000000000000000000000815260040180806020018281038252601a8152602001807f496e73756666696369656e7420746f6b656e2062616c616e636500000000000081525060200191505060405180910390fd5b80601560003373ffffffffffffffffffffffffffffffffffffffff1673ffffffffffffffffffffffffffffffffffffffff16815260200190815260200160002060008282540392505081905550600e60009054906101000a900473ffffffffffffffffffffffffffffffffffffffff1673ffffffffffffffffffffffffffffffffffffffff16639bd9bbc633836040518363ffffffff1660e01b8152600401808373ffffffffffffffffffffffffffffffffffffffff168152602001828152602001806020018281038252600081526020016020019350505050600060405180830381600087803b158015611d4f57600080fd5b505af1158015611d63573d6000803e3d6000fd5b5050505050565b6000600e60009054906101000a900473ffffffffffffffffffffffffffffffffffffffff1673ffffffffffffffffffffffffffffffffffffffff166370a08231306040518263ffffffff1660e01b8152600401808273ffffffffffffffffffffffffffffffffffffffff16815260200191505060206040518083038186803b158015611df557600080fd5b505afa158015611e09573d6000803e3d6000fd5b505050506040513d6020811015611e1f57600080fd5b8101908080519060200190929190505050905090565b611e3d61396d565b73ffffffffffffffffffffffffffffffffffffffff168173ffffffffffffffffffffffffffffffffffffffff1614611ec0576040517f08c379a000000000000000000000000000000000000000000000000000000000815260040180806020018281038252602f815260200180614f00602f913960400191505060405180910390fd5b611eca8282613a08565b5050565b611ef87fa807086040659eb7db9d31549a4199b0f7dd99f763c671636e80d5e5dc36a5d033612cea565b611f6a576040517f08c379a00000000000000000000000000000000000000000000000000000000081526004018080602001828103825260168152602001807f43616c6c6572206973206e6f742061207461676765720000000000000000000081525060200191505060405180910390fd5b600082511415611fe2576040517f08c379a000000000000000000000000000000000000000000000000000000000815260040180806020018281038252601d8152602001807f5461672043616e6e6f7420626520616e20656d70747920737472696e6700000081525060200191505060405180910390fd5b600015156001836040518082805190602001908083835b6020831061201c5780518252602082019150602081019050602083039250611ff9565b6001836020036101000a038019825116818451168082178552505050505050905001915050908152602001604051809103902060009054906101000a900460ff161515146120d2576040517f08c379a00000000000000000000000000000000000000000000000000000000081526004018080602001828103825260128152602001807f54616720616c726561647920657869737473000000000000000000000000000081525060200191505060405180910390fd5b600060016002805490500190506120e7614dcb565b604051806040016040528085815260200184815250905060028190806001815401808255809150506001900390600052602060002090600202016000909190919091506000820151816000019080519060200190612146929190614cfe565b50602082015181600101555050600180856040518082805190602001908083835b6020831061218a5780518252602082019150602081019050602083039250612167565b6001836020036101000a038019825116818451168082178552505050505050905001915050908152602001604051809103902060006101000a81548160ff0219169083151502179055507f06e4cc9025d7c31df00b1ba37c3602316917a0b691ef5de231465230e0debc4e8285853360405180858152602001806020018481526020018373ffffffffffffffffffffffffffffffffffffffff168152602001828103825285818151815260200191508051906020019080838360005b83811015612261578082015181840152602081019050612246565b50505050905090810190601f16801561228e5780820380516001836020036101000a031916815260200191505b509550505050505060405180910390a150505050565b60005b8451811015612302576122f5828683815181106122c057fe5b60200260200101518684815181106122d457fe5b60200260200101518685815181106122e857fe5b6020026020010151613a9b565b80806001019150506122a7565b5060005b85518110156123395761232c8287838151811061231f57fe5b6020026020010151614094565b8080600101915050612306565b505050505050565b600060076000848152602001908152602001600020600083815260200190815260200160002060000154905092915050565b60086000848152602001908152602001600020600083815260200190815260200160002060009054906101000a900460ff16612417576040517f08c379a00000000000000000000000000000000000000000000000000000000081526004018080602001828103825260148152602001807f546f706963206d7573742062652074616767656400000000000000000000000081525060200191505060405180910390fd5b80601560003373ffffffffffffffffffffffffffffffffffffffff1673ffffffffffffffffffffffffffffffffffffffff1681526020019081526020016000205410156124cc576040517f08c379a000000000000000000000000000000000000000000000000000000000815260040180806020018281038252601a8152602001807f496e73756666696369656e7420746f6b656e2062616c616e636500000000000081525060200191505060405180910390fd5b600060076000858152602001908152602001600020600084815260200190815260200160002090506000612502828487336144ad565b905061250c614de5565b60405180608001604052803373ffffffffffffffffffffffffffffffffffffffff168152602001838152602001878152602001868152509050600681908060018154018082558091505060019003906000526020600020906004020160009091909190915060008201518160000160006101000a81548173ffffffffffffffffffffffffffffffffffffffff021916908373ffffffffffffffffffffffffffffffffffffffff1602179055506020820151816001015560408201518160020155606082015181600301555050818360000160008282540192505081905550826001016001600680549050039080600181540180825580915050600190039060005260206000200160009091909190915055600960003373ffffffffffffffffffffffffffffffffffffffff1673ffffffffffffffffffffffffffffffffffffffff16815260200190815260200160002060016006805490500390806001815401808255809150506001900390600052602060002001600090919091909150557f8fd1da8bf60af9a2d6c8da9cbc4d0f43ac5da5d4c0cc22a7c363f9df2c7f14153385848989604051808673ffffffffffffffffffffffffffffffffffffffff1681526020018581526020018481526020018381526020018281526020019550505050505060405180910390a1505050505050565b60156020528060005260406000206000915090505481565b606080606060006007600087815260200190815260200160002060008681526020019081526020016000206001018054905090508067ffffffffffffffff8111801561276357600080fd5b506040519080825280602002602001820160405280156127925781602001602082028036833780820191505090505b5091508067ffffffffffffffff811180156127ac57600080fd5b506040519080825280602002602001820160405280156127db5781602001602082028036833780820191505090505b5092508067ffffffffffffffff811180156127f557600080fd5b506040519080825280602002602001820160405280156128245781602001602082028036833780820191505090505b50935060005b818110156129785760006006600760008a81526020019081526020016000206000898152602001908152602001600020600101838154811061286857fe5b90600052602060002001548154811061287d57fe5b906000526020600020906004020190508060000160009054906101000a900473ffffffffffffffffffffffffffffffffffffffff168483815181106128be57fe5b602002602001019073ffffffffffffffffffffffffffffffffffffffff16908173ffffffffffffffffffffffffffffffffffffffff1681525050806001015485838151811061290957fe5b602002602001018181525050600760008981526020019081526020016000206000888152602001908152602001600020600101828154811061294757fe5b906000526020600020015486838151811061295e57fe5b60200260200101818152505050808060010191505061282a565b50509250925092565b600060606000806002600186038154811061299857fe5b9060005260206000209060020201905084816000018260010154818054600181600116156101000203166002900480601f016020809104026020016040519081016040528092919081815260200182805460018160011615610100020316600290048015612a475780601f10612a1c57610100808354040283529160200191612a47565b820191906000526020600020905b815481529060010190602001808311612a2a57829003601f168201915b50505050509150935093509350509193909250565b60606000606060048481548110612a6f57fe5b90600052602060002090600402016003018054600181600116156101000203166002900480601f016020809104026020016040519081016040528092919081815260200182805460018160011615610100020316600290048015612b145780601f10612ae957610100808354040283529160200191612b14565b820191906000526020600020905b815481529060010190602001808311612af757829003601f168201915b5050505050925060048481548110612b2857fe5b906000526020600020906004020160020160009054906101000a900473ffffffffffffffffffffffffffffffffffffffff16915060048481548110612b6957fe5b9060005260206000209060040201600101805480602002602001604051908101604052809291908181526020018280548015612bc457602002820191906000526020600020905b815481526020019060010190808311612bb0575b505050505090509193909250565b600080612be08385336146cf565b90508091505092915050565b6060600560008373ffffffffffffffffffffffffffffffffffffffff1673ffffffffffffffffffffffffffffffffffffffff168152602001908152602001600020805480602002602001604051908101604052809291908181526020018280548015612c7757602002820191906000526020600020905b815481526020019060010190808311612c63575b50505050509050919050565b6001818051602081018201805184825260208301602085012081835280955050505050506000915054906101000a900460ff1681565b6000612ce28260008086815260200190815260200160002060000161496c90919063ffffffff16565b905092915050565b6000612d138260008086815260200190815260200160002060000161393d90919063ffffffff16565b905092915050565b6000600280549050905090565b612d356000801b82613205565b50565b6000801b81565b6000600560008373ffffffffffffffffffffffffffffffffffffffff1673ffffffffffffffffffffffffffffffffffffffff168152602001908152602001600020805490509050919050565b7fa807086040659eb7db9d31549a4199b0f7dd99f763c671636e80d5e5dc36a5d081565b600060068381548110612dbe57fe5b906000526020600020906004020190503373ffffffffffffffffffffffffffffffffffffffff168160000160009054906101000a900473ffffffffffffffffffffffffffffffffffffffff1673ffffffffffffffffffffffffffffffffffffffff1614612e93576040517f08c379a00000000000000000000000000000000000000000000000000000000081526004018080602001828103825260198152602001807f5374616b65206e6f74206f776e65642062792073656e6465720000000000000081525060200191505060405180910390fd5b81601560003373ffffffffffffffffffffffffffffffffffffffff1673ffffffffffffffffffffffffffffffffffffffff168152602001908152602001600020541015612f48576040517f08c379a000000000000000000000000000000000000000000000000000000000815260040180806020018281038252601a8152602001807f496e73756666696369656e7420746f6b656e2062616c616e636500000000000081525060200191505060405180910390fd5b6000600760008360020154815260200190815260200160002060008360030154815260200190815260200160002090506000612f8a82858560020154336144ad565b90508082600001600082825401925050819055508083600101600082825401925050819055507fd92f41b2e4f261e450bf386d4d71dbcf786415a2f82fbd6c5d1c546e2f2fff39836001015486604051808381526020018281526020019250505060405180910390a15050505050565b6130076000801b82611a86565b50565b6000613029600080848152602001908152602001600020600001614986565b9050919050565b6000600480549050905090565b60006006838154811061304c57fe5b906000526020600020906004020190503373ffffffffffffffffffffffffffffffffffffffff168160000160009054906101000a900473ffffffffffffffffffffffffffffffffffffffff1673ffffffffffffffffffffffffffffffffffffffff1614613121576040517f08c379a00000000000000000000000000000000000000000000000000000000081526004018080602001828103825260198152602001807f5374616b65206e6f74206f776e65642062792073656e6465720000000000000081525060200191505060405180910390fd5b81816001016000828254039250508190555081601560003373ffffffffffffffffffffffffffffffffffffffff1673ffffffffffffffffffffffffffffffffffffffff16815260200190815260200160002060008282540192505081905550816007600083600201548152602001908152602001600020600083600301548152602001908152602001600020600001600082825403925050819055507fd92f41b2e4f261e450bf386d4d71dbcf786415a2f82fbd6c5d1c546e2f2fff39816001015484604051808381526020018281526020019250505060405180910390a1505050565b61322b6000808481526020019081526020016000206002015461322661396d565b612cea565b613280576040517f08c379a0000000000000000000000000000000000000000000000000000000008152600401808060200182810382526030815260200180614ed06030913960400191505060405180910390fd5b61328a8282613a08565b5050565b6132b87fa807086040659eb7db9d31549a4199b0f7dd99f763c671636e80d5e5dc36a5d033612cea565b61332a576040517f08c379a00000000000000000000000000000000000000000000000000000000081526004018080602001828103825260168152602001807f43616c6c6572206973206e6f742061207461676765720000000000000000000081525060200191505060405180910390fd5b600060018303905060006002828154811061334157fe5b906000526020600020906002020190506001151560018260000160405180828054600181600116156101000203166002900480156133b65780601f106133945761010080835404028352918201916133b6565b820191906000526020600020905b8154815290600101906020018083116133a2575b5050915050908152602001604051809103902060009054906101000a900460ff1615151461344c576040517f08c379a00000000000000000000000000000000000000000000000000000000081526004018080602001828103825260128152602001807f54616720646f6573206e6f74206578697374000000000000000000000000000081525060200191505060405180910390fd5b8281600101819055507f1ffacb3972e8e436e2bb97df843a31836e41fd8f548dd1c6d3cf32c9b70c51a9828260000183600101543360405180858152602001806020018481526020018373ffffffffffffffffffffffffffffffffffffffff1681526020018281038252858181546001816001161561010002031660029004815260200191508054600181600116156101000203166002900480156135325780601f1061350757610100808354040283529160200191613532565b820191906000526020600020905b81548152906001019060200180831161351557829003601f168201915b50509550505050505060405180910390a150505050565b6000601560008373ffffffffffffffffffffffffffffffffffffffff1673ffffffffffffffffffffffffffffffffffffffff168152602001908152602001600020549050919050565b6000600e60009054906101000a900473ffffffffffffffffffffffffffffffffffffffff1673ffffffffffffffffffffffffffffffffffffffff166370a08231336040518263ffffffff1660e01b8152600401808273ffffffffffffffffffffffffffffffffffffffff16815260200191505060206040518083038186803b15801561361d57600080fd5b505afa158015613631573d6000803e3d6000fd5b505050506040513d602081101561364757600080fd5b81019080805190602001909291905050509050818110156136d0576040517f08c379a000000000000000000000000000000000000000000000000000000000815260040180806020018281038252601a8152602001807f496e73756666696369656e7420746f6b656e2062616c616e636500000000000081525060200191505060405180910390fd5b600e60009054906101000a900473ffffffffffffffffffffffffffffffffffffffff1673ffffffffffffffffffffffffffffffffffffffff166362ad1b833330856040518463ffffffff1660e01b8152600401808473ffffffffffffffffffffffffffffffffffffffff1681526020018373ffffffffffffffffffffffffffffffffffffffff168152602001828152602001806020018060200183810383526000815260200160200183810382526000815260200160200195505050505050600060405180830381600087803b1580156137a957600080fd5b505af11580156137bd573d6000803e3d6000fd5b5050505081601560003373ffffffffffffffffffffffffffffffffffffffff1673ffffffffffffffffffffffffffffffffffffffff168152602001908152602001600020600082825401925050819055505050565b61383c7fa807086040659eb7db9d31549a4199b0f7dd99f763c671636e80d5e5dc36a5d082611a86565b50565b6138697fa807086040659eb7db9d31549a4199b0f7dd99f763c671636e80d5e5dc36a5d082613205565b50565b6060600c600083815260200190815260200160002080548060200260200160405190810160405280929190818152602001828054801561390157602002820191906000526020600020905b8160009054906101000a900473ffffffffffffffffffffffffffffffffffffffff1673ffffffffffffffffffffffffffffffffffffffff16815260200190600101908083116138b7575b50505050509050919050565b6000613935836000018373ffffffffffffffffffffffffffffffffffffffff1660001b61499b565b905092915050565b6000613965836000018373ffffffffffffffffffffffffffffffffffffffff1660001b614a0b565b905092915050565b600033905090565b61399c8160008085815260200190815260200160002060000161390d90919063ffffffff16565b15613a04576139a961396d565b73ffffffffffffffffffffffffffffffffffffffff168173ffffffffffffffffffffffffffffffffffffffff16837f2f8788117e7eff1d82e926ec794901d17c78024a50270940304540a733656f0d60405160405180910390a45b5050565b613a2f81600080858152602001908152602001600020600001614a2e90919063ffffffff16565b15613a9757613a3c61396d565b73ffffffffffffffffffffffffffffffffffffffff168173ffffffffffffffffffffffffffffffffffffffff16837ff6391f5c32d9c69d2a47ea670b442974b53935d1edc7fd64eb21e047a839171b60405160405180910390a45b5050565b6001151560086000868152602001908152602001600020600085815260200190815260200160002060009054906101000a900460ff16151514613b46576040517f08c379a00000000000000000000000000000000000000000000000000000000081526004018080602001828103825260138152602001807f546f706963206973206e6f74207461676765640000000000000000000000000081525060200191505060405180910390fd5b3373ffffffffffffffffffffffffffffffffffffffff1660048581548110613b6a57fe5b906000526020600020906004020160020160009054906101000a900473ffffffffffffffffffffffffffffffffffffffff1673ffffffffffffffffffffffffffffffffffffffff1614613c25576040517f08c379a00000000000000000000000000000000000000000000000000000000081526004018080602001828103825260208152602001807f4f6e6c7920746f706963206f776e65722063616e20757064617465207461677381525060200191505060405180910390fd5b8260048581548110613c3357fe5b90600052602060002090600402016001018381548110613c4f57fe5b906000526020600020015414613ccd576040517f08c379a00000000000000000000000000000000000000000000000000000000081526004018080602001828103825260198152602001807f54616720696420616e6420696e646578206d69736d617463680000000000000081525060200191505060405180910390fd5b83600a600085815260200190815260200160002060003373ffffffffffffffffffffffffffffffffffffffff1673ffffffffffffffffffffffffffffffffffffffff1681526020019081526020016000208281548110613d2957fe5b906000526020600020015414613da7576040517f08c379a000000000000000000000000000000000000000000000000000000000815260040180806020018281038252601b8152602001807f546f70696320696420616e6420696e646578206d69736d61746368000000000081525060200191505060405180910390fd5b600060086000868152602001908152602001600020600085815260200190815260200160002060006101000a81548160ff02191690831515021790555060048481548110613df157fe5b9060005260206000209060040201600101600160048681548110613e1157fe5b9060005260206000209060040201600101805490500381548110613e3157fe5b906000526020600020015460048581548110613e4957fe5b90600052602060002090600402016001018381548110613e6557fe5b906000526020600020018190555060048481548110613e8057fe5b9060005260206000209060040201600101805480613e9a57fe5b60019003818190600052602060002001600090559055600a600084815260200190815260200160002060003373ffffffffffffffffffffffffffffffffffffffff1673ffffffffffffffffffffffffffffffffffffffff1681526020019081526020016000206001600a600086815260200190815260200160002060003373ffffffffffffffffffffffffffffffffffffffff1673ffffffffffffffffffffffffffffffffffffffff168152602001908152602001600020805490500381548110613f6157fe5b9060005260206000200154600a600085815260200190815260200160002060003373ffffffffffffffffffffffffffffffffffffffff1673ffffffffffffffffffffffffffffffffffffffff1681526020019081526020016000208281548110613fc757fe5b9060005260206000200181905550600a600084815260200190815260200160002060003373ffffffffffffffffffffffffffffffffffffffff1673ffffffffffffffffffffffffffffffffffffffff16815260200190815260200160002080548061402e57fe5b600190038181906000526020600020016000905590557f027dd7071e2a04e9c5eaabd02ace2b8c700a4eb05b5c4bd4e27bd7b11fbd8c1b84846000604051808481526020018381526020018215158152602001935050505060405180910390a150505050565b6000151560086000848152602001908152602001600020600083815260200190815260200160002060009054906101000a900460ff1615151461413f576040517f08c379a00000000000000000000000000000000000000000000000000000000081526004018080602001828103825260178152602001807f546f70696320697320616c72656164792074616767656400000000000000000081525060200191505060405180910390fd5b3373ffffffffffffffffffffffffffffffffffffffff166004838154811061416357fe5b906000526020600020906004020160020160009054906101000a900473ffffffffffffffffffffffffffffffffffffffff1673ffffffffffffffffffffffffffffffffffffffff161461421e576040517f08c379a00000000000000000000000000000000000000000000000000000000081526004018080602001828103825260208152602001807f4f6e6c7920746f706963206f776e65722063616e20757064617465207461677381525060200191505060405180910390fd5b60001515600b600083815260200190815260200160002060003373ffffffffffffffffffffffffffffffffffffffff1673ffffffffffffffffffffffffffffffffffffffff16815260200190815260200160002060009054906101000a900460ff1615151415614366576001600b600083815260200190815260200160002060003373ffffffffffffffffffffffffffffffffffffffff1673ffffffffffffffffffffffffffffffffffffffff16815260200190815260200160002060006101000a81548160ff021916908315150217905550600c6000828152602001908152602001600020339080600181540180825580915050600190039060005260206000200160009091909190916101000a81548173ffffffffffffffffffffffffffffffffffffffff021916908373ffffffffffffffffffffffffffffffffffffffff1602179055505b600160086000848152602001908152602001600020600083815260200190815260200160002060006101000a81548160ff021916908315150217905550600a600082815260200190815260200160002060003373ffffffffffffffffffffffffffffffffffffffff1673ffffffffffffffffffffffffffffffffffffffff1681526020019081526020016000208290806001815401808255809150506001900390600052602060002001600090919091909150556004828154811061442757fe5b90600052602060002090600402016001018190806001815401808255809150506001900390600052602060002001600090919091909150557f027dd7071e2a04e9c5eaabd02ace2b8c700a4eb05b5c4bd4e27bd7b11fbd8c1b82826001604051808481526020018381526020018215158152602001935050505060405180910390a15050565b6000806144bf60115486601054614a5e565b905060006144d260125487601054614a5e565b905060006144fb6144ec8385614ab390919063ffffffff16565b88614ad290919063ffffffff16565b905086601560008773ffffffffffffffffffffffffffffffffffffffff1673ffffffffffffffffffffffffffffffffffffffff1681526020019081526020016000206000828254039250508190555082601560006004898154811061455c57fe5b906000526020600020906004020160020160009054906101000a900473ffffffffffffffffffffffffffffffffffffffff1673ffffffffffffffffffffffffffffffffffffffff1673ffffffffffffffffffffffffffffffffffffffff1681526020019081526020016000206000828254019250508190555060005b88600101805490508110156146bb57600060068a60010183815481106145fa57fe5b90600052602060002001548154811061460f57fe5b90600052602060002090600402019050600061463482600101548c6000015487614af2565b9050808503945080601560008460000160009054906101000a900473ffffffffffffffffffffffffffffffffffffffff1673ffffffffffffffffffffffffffffffffffffffff1673ffffffffffffffffffffffffffffffffffffffff16815260200190815260200160002060008282540192505081905550505080806001019150506145d8565b508181019050809350505050949350505050565b60006146d9614e23565b604051806080016040528060035481526020018581526020018473ffffffffffffffffffffffffffffffffffffffff1681526020018681525090506004819080600181540180825580915050600190039060005260206000209060040201600090919091909150600082015181600001556020820151816001019080519060200190614766929190614d7e565b5060408201518160020160006101000a81548173ffffffffffffffffffffffffffffffffffffffff021916908373ffffffffffffffffffffffffffffffffffffffff16021790555060608201518160030190805190602001906147ca929190614cfe565b505050600560008473ffffffffffffffffffffffffffffffffffffffff1673ffffffffffffffffffffffffffffffffffffffff16815260200190815260200160002081600001519080600181540180825580915050600190039060005260206000200160009091909190915055600360008154809291906001019190505550806040015173ffffffffffffffffffffffffffffffffffffffff167f8b910af69fb425b0e128bb4984faa10fe80c4c5cc9988b195d287772e4d3e949826000015183602001518460600151604051808481526020018060200180602001838103835285818151815260200191508051906020019060200280838360005b838110156148e15780820151818401526020810190506148c6565b50505050905001838103825284818151815260200191508051906020019080838360005b83811015614920578082015181840152602081019050614905565b50505050905090810190601f16801561494d5780820380516001836020036101000a031916815260200191505b509550505050505060405180910390a280600001519150509392505050565b600061497b8360000183614b22565b60001c905092915050565b600061499482600001614ba5565b9050919050565b60006149a78383614a0b565b614a00578260000182908060018154018082558091505060019003906000526020600020016000909190919091505582600001805490508360010160008481526020019081526020016000208190555060019050614a05565b600090505b92915050565b600080836001016000848152602001908152602001600020541415905092915050565b6000614a56836000018373ffffffffffffffffffffffffffffffffffffffff1660001b614bb6565b905092915050565b6000614aaa614a77606484614c9e90919063ffffffff16565b614a9c84614a8e8888614c9e90919063ffffffff16565b614c9e90919063ffffffff16565b614cd890919063ffffffff16565b90509392505050565b600080828401905083811015614ac857600080fd5b8091505092915050565b600082821115614ae157600080fd5b600082840390508091505092915050565b6000614b1983614b0b8487614c9e90919063ffffffff16565b614cd890919063ffffffff16565b90509392505050565b600081836000018054905011614b83576040517f08c379a0000000000000000000000000000000000000000000000000000000008152600401808060200182810382526022815260200180614e7f6022913960400191505060405180910390fd5b826000018281548110614b9257fe5b9060005260206000200154905092915050565b600081600001805490509050919050565b60008083600101600084815260200190815260200160002054905060008114614c925760006001820390506000600186600001805490500390506000866000018281548110614c0157fe5b9060005260206000200154905080876000018481548110614c1e57fe5b9060005260206000200181905550600183018760010160008381526020019081526020016000208190555086600001805480614c5657fe5b60019003818190600052602060002001600090559055866001016000878152602001908152602001600020600090556001945050505050614c98565b60009150505b92915050565b600080831415614cb15760009050614cd2565b6000828402905082848281614cc257fe5b0414614ccd57600080fd5b809150505b92915050565b6000808211614ce657600080fd5b6000828481614cf157fe5b0490508091505092915050565b828054600181600116156101000203166002900490600052602060002090601f016020900481019282601f10614d3f57805160ff1916838001178555614d6d565b82800160010185558215614d6d579182015b82811115614d6c578251825591602001919060010190614d51565b5b509050614d7a9190614e61565b5090565b828054828255906000526020600020908101928215614dba579160200282015b82811115614db9578251825591602001919060010190614d9e565b5b509050614dc79190614e61565b5090565b604051806040016040528060608152602001600081525090565b6040518060800160405280600073ffffffffffffffffffffffffffffffffffffffff1681526020016000815260200160008152602001600081525090565b60405180608001604052806000815260200160608152602001600073ffffffffffffffffffffffffffffffffffffffff168152602001606081525090565b5b80821115614e7a576000816000905550600101614e62565b509056fe456e756d657261626c655365743a20696e646578206f7574206f6620626f756e6473416363657373436f6e74726f6c3a2073656e646572206d75737420626520616e2061646d696e20746f206772616e74416363657373436f6e74726f6c3a2073656e646572206d75737420626520616e2061646d696e20746f207265766f6b65416363657373436f6e74726f6c3a2063616e206f6e6c792072656e6f756e636520726f6c657320666f722073656c66a2646970667358221220b545e08bbf281947a8c040d69cd6a3e0f31e6834c16bf9b258f551256c5b1e8b64736f6c634300060c0033416363657373436f6e74726f6c3a2073656e646572206d75737420626520616e2061646d696e20746f206772616e74",
  "immutableReferences": {},
  "source": "pragma solidity ^0.6.0;\n\nimport './TaggedTopics.sol';\nimport './Percent.sol';\nimport \"openzeppelin-solidity/contracts/token/ERC777/IERC777.sol\";\n\ncontract Algernon is TaggedTopics, Percent {\n  address owner;\n  address TOKEN_ADDRESS;\n  address COMMUNITY_ADDRESS;\n  uint constant DAILY_SECONDS = 86400;\n\n  uint PRECISION = 10 ** 5;\n  uint OWNER_PERCENT  = 1;\n  uint STAKER_PERCENT = 2;\n  uint COMMUNITY_PERCENT = 1;\n  uint STAKE_TIME_LIMIT = 1 * DAILY_SECONDS;\n  mapping (address => uint) public tokenBalances;\n\n  constructor (address _tokenAddress) public {\n    owner = msg.sender;\n    TOKEN_ADDRESS = _tokenAddress;\n  }\n\n  function createTopic(uint256[] memory _tagIds, string memory fileName) public returns (uint) {\n    uint topicId = createUserTopic(fileName, _tagIds, msg.sender);\n\n    return topicId;\n  }\n\n  //when a user stakes, 15% is given to the topic owner, 10% is distributed among stakers\n  //the remaining 75% is staked\n  function distributeStake(TagStake storage _tagStake, uint _amt, uint _topicId, address from) internal returns (uint){\n    uint ownerShare = getPercentShare(OWNER_PERCENT, _amt, PRECISION);\n    uint stakerShare = getPercentShare(STAKER_PERCENT, _amt, PRECISION);\n    uint stakedShare = _amt.sub(ownerShare.add(stakerShare));\n\n    tokenBalances[from] -= _amt;\n    tokenBalances[topics[_topicId].owner] += ownerShare;\n\n\n    for (uint i = 0;i < _tagStake.stakeIdxs.length;i++) {\n      Stake storage stake = stakes[_tagStake.stakeIdxs[i]];\n      uint share = getPercent(stake.amt, _tagStake.totalStaked, stakerShare);\n      stakerShare -= share;\n      tokenBalances[stake.staker] += share;\n    }\n\n    stakedShare += stakerShare;\n    return stakedShare;\n  }\n\n  function addStake(uint _topicId, uint _tagId, uint _amt) public {\n    require(topicIsTagged[_topicId][_tagId], 'Topic must be tagged');\n    require(tokenBalances[msg.sender] >= _amt, 'Insufficient token balance');\n\n    TagStake storage tagStake = stakesByTopic[_topicId][_tagId];\n    uint stakeAmt = distributeStake(tagStake, _amt, _topicId, msg.sender);\n    Stake memory stake = Stake(msg.sender, stakeAmt, _topicId, _tagId);\n    stakes.push(stake);\n    tagStake.totalStaked += stakeAmt;\n    tagStake.stakeIdxs.push(stakes.length-1);\n    stakesByUser[msg.sender].push(stakes.length-1);\n\n    emit StakeAdded(msg.sender, _amt, stakeAmt, _topicId, _tagId);\n\n  }\n\n  function increaseStake(uint _stakeIdx, uint _amt) public {\n    Stake storage stake = stakes[_stakeIdx];\n    require(stake.staker == msg.sender, 'Stake not owned by sender');\n    require(tokenBalances[msg.sender] >= _amt, 'Insufficient token balance');\n\n    TagStake storage tagStake = stakesByTopic[stake.topicId][stake.tagId];\n    uint stakeAmt = distributeStake(tagStake, _amt, stake.topicId, msg.sender);\n    tagStake.totalStaked += stakeAmt;\n    stake.amt += stakeAmt;\n\n    emit StakeUpdated(stake.amt, _stakeIdx);\n  }\n\n  function reduceStake(uint _stakeIdx, uint _amt) public {\n    Stake storage stake = stakes[_stakeIdx];\n    require(stake.staker == msg.sender, 'Stake not owned by sender');\n    stake.amt -= _amt;\n    tokenBalances[msg.sender] += _amt;\n\n    stakesByTopic[stake.topicId][stake.tagId].totalStaked -= _amt;\n\n    emit StakeUpdated(stake.amt, _stakeIdx);\n\n  }\n\n  function getContractTokenBalance() public view returns (uint256) {\n    return IERC777(TOKEN_ADDRESS).balanceOf(address(this));\n  }\n\n  function getAlgernonTokenBalance(address _account) public view returns (uint) {\n    return tokenBalances[_account];\n  }\n\n  function depositTokens(uint _amt) public {\n    uint depositerBalance = IERC777(TOKEN_ADDRESS).balanceOf(msg.sender);\n    require(depositerBalance >= _amt, 'Insufficient token balance');\n\n    IERC777(TOKEN_ADDRESS).operatorSend(msg.sender, address(this), _amt, \"\", \"\");\n    tokenBalances[msg.sender] += _amt;\n  }\n\n  function withdrawTokens(uint _amt) public {\n    require(tokenBalances[msg.sender] >= _amt, 'Insufficient token balance');\n    tokenBalances[msg.sender] -= _amt;\n    IERC777(TOKEN_ADDRESS).send(msg.sender, _amt, \"\");\n\n  }\n }\n",
  "sourcePath": "/home/steve/codes/algernon_dapp/contracts/contracts/Algernon.sol",
  "compiler": {
    "name": "solc",
    "version": "0.6.12+commit.27d51765.Emscripten.clang"
  },
  "schemaVersion": "3.3.2",
  "updatedAt": "2020-12-31T20:56:51.263Z",
  "networkType": "ethereum",
  "devdoc": {
    "kind": "dev",
    "methods": {
      "getRoleAdmin(bytes32)": {
        "details": "Returns the admin role that controls `role`. See {grantRole} and {revokeRole}. To change a role's admin, use {_setRoleAdmin}."
      },
      "getRoleMember(bytes32,uint256)": {
        "details": "Returns one of the accounts that have `role`. `index` must be a value between 0 and {getRoleMemberCount}, non-inclusive. Role bearers are not sorted in any particular way, and their ordering may change at any point. WARNING: When using {getRoleMember} and {getRoleMemberCount}, make sure you perform all queries on the same block. See the following https://forum.openzeppelin.com/t/iterating-over-elements-on-enumerableset-in-openzeppelin-contracts/2296[forum post] for more information."
      },
      "getRoleMemberCount(bytes32)": {
        "details": "Returns the number of accounts that have `role`. Can be used together with {getRoleMember} to enumerate all bearers of a role."
      },
      "grantRole(bytes32,address)": {
        "details": "Grants `role` to `account`. If `account` had not been already granted `role`, emits a {RoleGranted} event. Requirements: - the caller must have ``role``'s admin role."
      },
      "hasRole(bytes32,address)": {
        "details": "Returns `true` if `account` has been granted `role`."
      },
      "renounceRole(bytes32,address)": {
        "details": "Revokes `role` from the calling account. Roles are often managed via {grantRole} and {revokeRole}: this function's purpose is to provide a mechanism for accounts to lose their privileges if they are compromised (such as when a trusted device is misplaced). If the calling account had been granted `role`, emits a {RoleRevoked} event. Requirements: - the caller must be `account`."
      },
      "revokeRole(bytes32,address)": {
        "details": "Revokes `role` from `account`. If `account` had been granted `role`, emits a {RoleRevoked} event. Requirements: - the caller must have ``role``'s admin role."
      }
    },
    "version": 1
  },
  "userdoc": {
    "kind": "user",
    "methods": {},
    "version": 1
  }
}